{
	"address": "0xdaCfA470af7a543b2d4ED0E9619924A3f9BE6C1a",
	"abi": [
		{
			"inputs": [
				{
					"internalType": "string",
					"name": "_name",
					"type": "string"
				},
				{
					"internalType": "string",
					"name": "_symbol",
					"type": "string"
				},
				{
					"internalType": "address",
					"name": "_proxyRegistryAddress",
					"type": "address"
				},
				{
					"internalType": "string",
					"name": "_templateURI",
					"type": "string"
				},
				{
					"internalType": "address",
					"name": "_migrationAddress",
					"type": "address"
				}
			],
			"stateMutability": "nonpayable",
			"type": "constructor"
		},
		{
			"anonymous": false,
			"inputs": [
				{
					"indexed": true,
					"internalType": "address",
					"name": "account",
					"type": "address"
				},
				{
					"indexed": true,
					"internalType": "address",
					"name": "operator",
					"type": "address"
				},
				{
					"indexed": false,
					"internalType": "bool",
					"name": "approved",
					"type": "bool"
				}
			],
			"name": "ApprovalForAll",
			"type": "event"
		},
		{
			"anonymous": false,
			"inputs": [
				{
					"indexed": true,
					"internalType": "uint256",
					"name": "_id",
					"type": "uint256"
				},
				{
					"indexed": true,
					"internalType": "address",
					"name": "_creator",
					"type": "address"
				}
			],
			"name": "CreatorChanged",
			"type": "event"
		},
		{
			"anonymous": false,
			"inputs": [
				{
					"indexed": false,
					"internalType": "address",
					"name": "userAddress",
					"type": "address"
				},
				{
					"indexed": false,
					"internalType": "address payable",
					"name": "relayerAddress",
					"type": "address"
				},
				{
					"indexed": false,
					"internalType": "bytes",
					"name": "functionSignature",
					"type": "bytes"
				}
			],
			"name": "MetaTransactionExecuted",
			"type": "event"
		},
		{
			"anonymous": false,
			"inputs": [
				{
					"indexed": true,
					"internalType": "address",
					"name": "previousOwner",
					"type": "address"
				},
				{
					"indexed": true,
					"internalType": "address",
					"name": "newOwner",
					"type": "address"
				}
			],
			"name": "OwnershipTransferred",
			"type": "event"
		},
		{
			"anonymous": false,
			"inputs": [
				{
					"indexed": false,
					"internalType": "address",
					"name": "account",
					"type": "address"
				}
			],
			"name": "Paused",
			"type": "event"
		},
		{
			"anonymous": false,
			"inputs": [
				{
					"indexed": false,
					"internalType": "string",
					"name": "_value",
					"type": "string"
				},
				{
					"indexed": true,
					"internalType": "uint256",
					"name": "_id",
					"type": "uint256"
				}
			],
			"name": "PermanentURI",
			"type": "event"
		},
		{
			"anonymous": false,
			"inputs": [
				{
					"indexed": true,
					"internalType": "address",
					"name": "operator",
					"type": "address"
				},
				{
					"indexed": true,
					"internalType": "address",
					"name": "from",
					"type": "address"
				},
				{
					"indexed": true,
					"internalType": "address",
					"name": "to",
					"type": "address"
				},
				{
					"indexed": false,
					"internalType": "uint256[]",
					"name": "ids",
					"type": "uint256[]"
				},
				{
					"indexed": false,
					"internalType": "uint256[]",
					"name": "values",
					"type": "uint256[]"
				}
			],
			"name": "TransferBatch",
			"type": "event"
		},
		{
			"anonymous": false,
			"inputs": [
				{
					"indexed": true,
					"internalType": "address",
					"name": "operator",
					"type": "address"
				},
				{
					"indexed": true,
					"internalType": "address",
					"name": "from",
					"type": "address"
				},
				{
					"indexed": true,
					"internalType": "address",
					"name": "to",
					"type": "address"
				},
				{
					"indexed": false,
					"internalType": "uint256",
					"name": "id",
					"type": "uint256"
				},
				{
					"indexed": false,
					"internalType": "uint256",
					"name": "value",
					"type": "uint256"
				}
			],
			"name": "TransferSingle",
			"type": "event"
		},
		{
			"anonymous": false,
			"inputs": [
				{
					"indexed": false,
					"internalType": "string",
					"name": "_uri",
					"type": "string"
				},
				{
					"indexed": true,
					"internalType": "uint256",
					"name": "_id",
					"type": "uint256"
				}
			],
			"name": "URI",
			"type": "event"
		},
		{
			"anonymous": false,
			"inputs": [
				{
					"indexed": false,
					"internalType": "address",
					"name": "account",
					"type": "address"
				}
			],
			"name": "Unpaused",
			"type": "event"
		},
		{
			"inputs": [],
			"name": "ERC712_VERSION",
			"outputs": [
				{
					"internalType": "string",
					"name": "",
					"type": "string"
				}
			],
			"stateMutability": "view",
			"type": "function"
		},
		{
			"inputs": [
				{
					"internalType": "address",
					"name": "_address",
					"type": "address"
				}
			],
			"name": "addSharedProxyAddress",
			"outputs": [],
			"stateMutability": "nonpayable",
			"type": "function"
		},
		{
			"inputs": [
				{
					"internalType": "address",
					"name": "_owner",
					"type": "address"
				},
				{
					"internalType": "uint256",
					"name": "_id",
					"type": "uint256"
				}
			],
			"name": "balanceOf",
			"outputs": [
				{
					"internalType": "uint256",
					"name": "",
					"type": "uint256"
				}
			],
			"stateMutability": "view",
			"type": "function"
		},
		{
			"inputs": [
				{
					"internalType": "address[]",
					"name": "accounts",
					"type": "address[]"
				},
				{
					"internalType": "uint256[]",
					"name": "ids",
					"type": "uint256[]"
				}
			],
			"name": "balanceOfBatch",
			"outputs": [
				{
					"internalType": "uint256[]",
					"name": "",
					"type": "uint256[]"
				}
			],
			"stateMutability": "view",
			"type": "function"
		},
		{
			"inputs": [
				{
					"internalType": "address",
					"name": "_from",
					"type": "address"
				},
				{
					"internalType": "uint256[]",
					"name": "_ids",
					"type": "uint256[]"
				},
				{
					"internalType": "uint256[]",
					"name": "_quantities",
					"type": "uint256[]"
				}
			],
			"name": "batchBurn",
			"outputs": [],
			"stateMutability": "nonpayable",
			"type": "function"
		},
		{
			"inputs": [
				{
					"internalType": "address",
					"name": "_to",
					"type": "address"
				},
				{
					"internalType": "uint256[]",
					"name": "_ids",
					"type": "uint256[]"
				},
				{
					"internalType": "uint256[]",
					"name": "_quantities",
					"type": "uint256[]"
				},
				{
					"internalType": "bytes",
					"name": "_data",
					"type": "bytes"
				}
			],
			"name": "batchMint",
			"outputs": [],
			"stateMutability": "nonpayable",
			"type": "function"
		},
		{
			"inputs": [
				{
					"internalType": "address",
					"name": "_from",
					"type": "address"
				},
				{
					"internalType": "uint256",
					"name": "_id",
					"type": "uint256"
				},
				{
					"internalType": "uint256",
					"name": "_quantity",
					"type": "uint256"
				}
			],
			"name": "burn",
			"outputs": [],
			"stateMutability": "nonpayable",
			"type": "function"
		},
		{
			"inputs": [
				{
					"internalType": "uint256",
					"name": "_id",
					"type": "uint256"
				}
			],
			"name": "creator",
			"outputs": [
				{
					"internalType": "address",
					"name": "",
					"type": "address"
				}
			],
			"stateMutability": "view",
			"type": "function"
		},
		{
			"inputs": [],
			"name": "disableMigrate",
			"outputs": [],
			"stateMutability": "nonpayable",
			"type": "function"
		},
		{
			"inputs": [
				{
					"internalType": "address",
					"name": "userAddress",
					"type": "address"
				},
				{
					"internalType": "bytes",
					"name": "functionSignature",
					"type": "bytes"
				},
				{
					"internalType": "bytes32",
					"name": "sigR",
					"type": "bytes32"
				},
				{
					"internalType": "bytes32",
					"name": "sigS",
					"type": "bytes32"
				},
				{
					"internalType": "uint8",
					"name": "sigV",
					"type": "uint8"
				}
			],
			"name": "executeMetaTransaction",
			"outputs": [
				{
					"internalType": "bytes",
					"name": "",
					"type": "bytes"
				}
			],
			"stateMutability": "payable",
			"type": "function"
		},
		{
			"inputs": [
				{
					"internalType": "uint256",
					"name": "_id",
					"type": "uint256"
				}
			],
			"name": "exists",
			"outputs": [
				{
					"internalType": "bool",
					"name": "",
					"type": "bool"
				}
			],
			"stateMutability": "view",
			"type": "function"
		},
		{
			"inputs": [],
			"name": "getChainId",
			"outputs": [
				{
					"internalType": "uint256",
					"name": "",
					"type": "uint256"
				}
			],
			"stateMutability": "view",
			"type": "function"
		},
		{
			"inputs": [],
			"name": "getDomainSeperator",
			"outputs": [
				{
					"internalType": "bytes32",
					"name": "",
					"type": "bytes32"
				}
			],
			"stateMutability": "view",
			"type": "function"
		},
		{
			"inputs": [
				{
					"internalType": "address",
					"name": "user",
					"type": "address"
				}
			],
			"name": "getNonce",
			"outputs": [
				{
					"internalType": "uint256",
					"name": "nonce",
					"type": "uint256"
				}
			],
			"stateMutability": "view",
			"type": "function"
		},
		{
			"inputs": [
				{
					"internalType": "address",
					"name": "_owner",
					"type": "address"
				},
				{
					"internalType": "address",
					"name": "_operator",
					"type": "address"
				}
			],
			"name": "isApprovedForAll",
			"outputs": [
				{
					"internalType": "bool",
					"name": "isOperator",
					"type": "bool"
				}
			],
			"stateMutability": "view",
			"type": "function"
		},
		{
			"inputs": [
				{
					"internalType": "uint256",
					"name": "_id",
					"type": "uint256"
				}
			],
			"name": "isPermanentURI",
			"outputs": [
				{
					"internalType": "bool",
					"name": "",
					"type": "bool"
				}
			],
			"stateMutability": "view",
			"type": "function"
		},
		{
			"inputs": [
				{
					"internalType": "uint256",
					"name": "_id",
					"type": "uint256"
				}
			],
			"name": "maxSupply",
			"outputs": [
				{
					"internalType": "uint256",
					"name": "",
					"type": "uint256"
				}
			],
			"stateMutability": "pure",
			"type": "function"
		},
		{
			"inputs": [
				{
					"components": [
						{
							"internalType": "uint256",
							"name": "id",
							"type": "uint256"
						},
						{
							"internalType": "address",
							"name": "owner",
							"type": "address"
						}
					],
					"internalType": "struct ForbitswapNFTSAssetShared.Ownership[]",
					"name": "_ownerships",
					"type": "tuple[]"
				}
			],
			"name": "migrate",
			"outputs": [],
			"stateMutability": "nonpayable",
			"type": "function"
		},
		{
			"inputs": [],
			"name": "migrationTarget",
			"outputs": [
				{
					"internalType": "contract ForbitswapNFTSAssetShared",
					"name": "",
					"type": "address"
				}
			],
			"stateMutability": "view",
			"type": "function"
		},
		{
			"inputs": [
				{
					"internalType": "address",
					"name": "_to",
					"type": "address"
				},
				{
					"internalType": "uint256",
					"name": "_id",
					"type": "uint256"
				},
				{
					"internalType": "uint256",
					"name": "_quantity",
					"type": "uint256"
				},
				{
					"internalType": "bytes",
					"name": "_data",
					"type": "bytes"
				}
			],
			"name": "mint",
			"outputs": [],
			"stateMutability": "nonpayable",
			"type": "function"
		},
		{
			"inputs": [],
			"name": "name",
			"outputs": [
				{
					"internalType": "string",
					"name": "",
					"type": "string"
				}
			],
			"stateMutability": "view",
			"type": "function"
		},
		{
			"inputs": [],
			"name": "owner",
			"outputs": [
				{
					"internalType": "address",
					"name": "",
					"type": "address"
				}
			],
			"stateMutability": "view",
			"type": "function"
		},
		{
			"inputs": [],
			"name": "pause",
			"outputs": [],
			"stateMutability": "nonpayable",
			"type": "function"
		},
		{
			"inputs": [],
			"name": "paused",
			"outputs": [
				{
					"internalType": "bool",
					"name": "",
					"type": "bool"
				}
			],
			"stateMutability": "nonpayable",
			"type": "function"
		},
		{
			"inputs": [],
			"name": "proxyRegistryAddress",
			"outputs": [
				{
					"internalType": "address",
					"name": "",
					"type": "address"
				}
			],
			"stateMutability": "view",
			"type": "function"
		},
		{
			"inputs": [
				{
					"internalType": "address",
					"name": "_address",
					"type": "address"
				}
			],
			"name": "removeSharedProxyAddress",
			"outputs": [],
			"stateMutability": "nonpayable",
			"type": "function"
		},
		{
			"inputs": [],
			"name": "renounceOwnership",
			"outputs": [],
			"stateMutability": "nonpayable",
			"type": "function"
		},
		{
			"inputs": [
				{
					"internalType": "address",
					"name": "_from",
					"type": "address"
				},
				{
					"internalType": "address",
					"name": "_to",
					"type": "address"
				},
				{
					"internalType": "uint256[]",
					"name": "_ids",
					"type": "uint256[]"
				},
				{
					"internalType": "uint256[]",
					"name": "_amounts",
					"type": "uint256[]"
				},
				{
					"internalType": "bytes",
					"name": "_data",
					"type": "bytes"
				}
			],
			"name": "safeBatchTransferFrom",
			"outputs": [],
			"stateMutability": "nonpayable",
			"type": "function"
		},
		{
			"inputs": [
				{
					"internalType": "address",
					"name": "_from",
					"type": "address"
				},
				{
					"internalType": "address",
					"name": "_to",
					"type": "address"
				},
				{
					"internalType": "uint256",
					"name": "_id",
					"type": "uint256"
				},
				{
					"internalType": "uint256",
					"name": "_amount",
					"type": "uint256"
				},
				{
					"internalType": "bytes",
					"name": "_data",
					"type": "bytes"
				}
			],
			"name": "safeTransferFrom",
			"outputs": [],
			"stateMutability": "nonpayable",
			"type": "function"
		},
		{
			"inputs": [
				{
					"internalType": "address",
					"name": "operator",
					"type": "address"
				},
				{
					"internalType": "bool",
					"name": "approved",
					"type": "bool"
				}
			],
			"name": "setApprovalForAll",
			"outputs": [],
			"stateMutability": "nonpayable",
			"type": "function"
		},
		{
			"inputs": [
				{
					"internalType": "uint256",
					"name": "_id",
					"type": "uint256"
				},
				{
					"internalType": "address",
					"name": "_to",
					"type": "address"
				}
			],
			"name": "setCreator",
			"outputs": [],
			"stateMutability": "nonpayable",
			"type": "function"
		},
		{
			"inputs": [
				{
					"internalType": "uint256",
					"name": "_id",
					"type": "uint256"
				},
				{
					"internalType": "string",
					"name": "_uri",
					"type": "string"
				}
			],
			"name": "setPermanentURI",
			"outputs": [],
			"stateMutability": "nonpayable",
			"type": "function"
		},
		{
			"inputs": [
				{
					"internalType": "address",
					"name": "_address",
					"type": "address"
				}
			],
			"name": "setProxyRegistryAddress",
			"outputs": [],
			"stateMutability": "nonpayable",
			"type": "function"
		},
		{
			"inputs": [
				{
					"internalType": "string",
					"name": "_uri",
					"type": "string"
				}
			],
			"name": "setTemplateURI",
			"outputs": [],
			"stateMutability": "nonpayable",
			"type": "function"
		},
		{
			"inputs": [
				{
					"internalType": "uint256",
					"name": "_id",
					"type": "uint256"
				},
				{
					"internalType": "string",
					"name": "_uri",
					"type": "string"
				}
			],
			"name": "setURI",
			"outputs": [],
			"stateMutability": "nonpayable",
			"type": "function"
		},
		{
			"inputs": [
				{
					"internalType": "address",
					"name": "",
					"type": "address"
				}
			],
			"name": "sharedProxyAddresses",
			"outputs": [
				{
					"internalType": "bool",
					"name": "",
					"type": "bool"
				}
			],
			"stateMutability": "view",
			"type": "function"
		},
		{
			"inputs": [],
			"name": "supportsFactoryInterface",
			"outputs": [
				{
					"internalType": "bool",
					"name": "",
					"type": "bool"
				}
			],
			"stateMutability": "pure",
			"type": "function"
		},
		{
			"inputs": [
				{
					"internalType": "bytes4",
					"name": "interfaceId",
					"type": "bytes4"
				}
			],
			"name": "supportsInterface",
			"outputs": [
				{
					"internalType": "bool",
					"name": "",
					"type": "bool"
				}
			],
			"stateMutability": "view",
			"type": "function"
		},
		{
			"inputs": [],
			"name": "symbol",
			"outputs": [
				{
					"internalType": "string",
					"name": "",
					"type": "string"
				}
			],
			"stateMutability": "view",
			"type": "function"
		},
		{
			"inputs": [],
			"name": "templateURI",
			"outputs": [
				{
					"internalType": "string",
					"name": "",
					"type": "string"
				}
			],
			"stateMutability": "view",
			"type": "function"
		},
		{
			"inputs": [
				{
					"internalType": "uint256",
					"name": "_id",
					"type": "uint256"
				}
			],
			"name": "totalSupply",
			"outputs": [
				{
					"internalType": "uint256",
					"name": "",
					"type": "uint256"
				}
			],
			"stateMutability": "view",
			"type": "function"
		},
		{
			"inputs": [
				{
					"internalType": "address",
					"name": "newOwner",
					"type": "address"
				}
			],
			"name": "transferOwnership",
			"outputs": [],
			"stateMutability": "nonpayable",
			"type": "function"
		},
		{
			"inputs": [],
			"name": "unpause",
			"outputs": [],
			"stateMutability": "nonpayable",
			"type": "function"
		},
		{
			"inputs": [
				{
					"internalType": "uint256",
					"name": "_id",
					"type": "uint256"
				}
			],
			"name": "uri",
			"outputs": [
				{
					"internalType": "string",
					"name": "",
					"type": "string"
				}
			],
			"stateMutability": "view",
			"type": "function"
		}
	],
	"transactionHash": "0x6237a52f170d86f6144279c04b8653158a409b586a0d1f80814cda89ac0865b0",
	"args": [
		"Forbit Migration contracts",
		"FMC",
		"0x14aFCbb771B02743234aF08e7DDd8647f42A5b58",
		"",
		"0x12F571d5Cd4D20C9D83D0D222516Dfb3299Ff29D"
	],
	"solcInputHash": "98c15b4f3559a23f2599202e42791894",
	"bytecode": "0x60806040526003805460ff191690553480156200001b57600080fd5b50604051620047d8380380620047d88339810160408190526200003e91620006bd565b8484848483836040518060200160405280600081525084816200006781620001be60201b60201c565b506200007c62000076620001d7565b620001f4565b6006805460ff60a01b1916905583516200009e9060089060208701906200054d565b508251620000b49060099060208601906200054d565b50600780546001600160a01b0319166001600160a01b03831617905560088054620001709190620000e59062000824565b80601f0160208091040260200160405190810160405280929190818152602001828054620001139062000824565b8015620001645780601f10620001385761010080835404028352916020019162000164565b820191906000526020600020905b8154815290600101906020018083116200014657829003601f168201915b50506200024692505050565b505050506000815111156200018a576200018a8162000290565b50506001600f555050601080546001600160a01b0319166001600160a01b0392909216919091179055506200089092505050565b8051620001d39060029060208401906200054d565b5050565b6000620001ee620002d860201b620018fb1760201c565b90505b90565b600680546001600160a01b038381166001600160a01b0319831681179093556040519116919082907f8be0079c531659141344cd1fd0a4f28419497f9722a3daafe3b4186f6b6457e090600090a35050565b60035460ff1615620002755760405162461bcd60e51b81526004016200026c90620007fc565b60405180910390fd5b620002808162000336565b506003805460ff19166001179055565b620002a46200029e620001d7565b620003d8565b620002c35760405162461bcd60e51b81526004016200026c90620007b7565b8051620001d390600c9060208401906200054d565b6000333014156200033157600080368080601f0160208091040260200160405190810160405280939291908181526020018383808284376000920191909152505050503601516001600160a01b03169150620001f19050565b503390565b6040518060800160405280604f815260200162004789604f913980516020918201208251838301206040805180820190915260018152603160f81b930192909252907fc89efdaa54c0f20c7adf612882df0950f5a951637e0307cdcb4c672f298b8bc630620003a46200041a565b604051620003ba9594939291906020016200078b565b60408051601f19818403018152919052805160209091012060045550565b60006001600160a01b038216620003ee6200041e565b6001600160a01b03161480620004145750620004146200040d6200041e565b836200042d565b92915050565b4690565b6006546001600160a01b031690565b6001600160a01b03811660009081526011602052604081205460ff1615620004585750600162000414565b6200046f83836200047660201b620019571760201c565b9392505050565b6007546000906200049c906001600160a01b031662000547602090811b62001a1217901c565b620004aa5750600062000414565b60075460405163c455279160e01b81526001600160a01b0391821691841690829063c455279190620004e190889060040162000777565b60206040518083038186803b158015620004fa57600080fd5b505afa1580156200050f573d6000803e3d6000fd5b505050506040513d601f19601f820116820180604052508101906200053591906200069e565b6001600160a01b031614949350505050565b3b151590565b8280546200055b9062000824565b90600052602060002090601f0160209004810192826200057f5760008555620005ca565b82601f106200059a57805160ff1916838001178555620005ca565b82800160010185558215620005ca579182015b82811115620005ca578251825591602001919060010190620005ad565b50620005d8929150620005dc565b5090565b5b80821115620005d85760008155600101620005dd565b600082601f83011262000604578081fd5b81516001600160401b038082111562000621576200062162000861565b6040516020601f8401601f191682018101838111838210171562000649576200064962000861565b604052838252858401810187101562000660578485fd5b8492505b8383101562000683578583018101518284018201529182019162000664565b838311156200069457848185840101525b5095945050505050565b600060208284031215620006b0578081fd5b81516200046f8162000877565b600080600080600060a08688031215620006d5578081fd5b85516001600160401b0380821115620006ec578283fd5b620006fa89838a01620005f3565b9650602088015191508082111562000710578283fd5b6200071e89838a01620005f3565b955060408801519150620007328262000877565b60608801519194508082111562000747578283fd5b506200075688828901620005f3565b9250506080860151620007698162000877565b809150509295509295909350565b6001600160a01b0391909116815260200190565b948552602085019390935260408401919091526001600160a01b03166060830152608082015260a00190565b60208082526025908201527f455243313135355472616e6461626c653a2043414c4c45525f49535f4e4f545f60408201526427aba722a960d91b606082015260800190565b6020808252600e908201526d185b1c9958591e481a5b9a5d195960921b604082015260600190565b6002810460018216806200083957607f821691505b602082108114156200085b57634e487b7160e01b600052602260045260246000fd5b50919050565b634e487b7160e01b600052604160045260246000fd5b6001600160a01b03811681146200088d57600080fd5b50565b613ee980620008a06000396000f3fe6080604052600436106102665760003560e01c8063731133e911610144578063b48ab8b6116100b6578063e985e9c51161007a578063e985e9c5146106d0578063f242432a146106f0578063f2fde38b14610710578063f5298aca14610730578063f6eb127a14610750578063f923e8c31461077057610266565b8063b48ab8b614610646578063bd85b03914610666578063c311c52314610686578063cd7c03261461069b578063d26ea6c0146106b057610266565b80638da5cb5b116101085780638da5cb5b1461059c57806391686f53146105b157806395d89b41146105d15780639e037eea146105e6578063a22cb46514610606578063a50aa5c31461062657610266565b8063731133e91461050757806373505d35146105275780638456cb5914610547578063862440e21461055c578063869f75941461057c57610266565b80632eb2c2d6116101dd5780634e1273f4116101a15780634e1273f41461044e5780634f558e791461047b578063510b51581461049b5780635b51acff146104c85780635c975abb146104dd578063715018a6146104f257610266565b80632eb2c2d6146103c45780632f1c982c146103e45780633408e470146104045780633588ad7c146104195780633f4ba83a1461043957610266565b80630e89341c1161022f5780630e89341c1461031a5780630f7e59701461033a5780631e7d9dbb1461034f57806320379ee51461036f57806324d88785146103845780632d0335ab146103a457610266565b8062fdd58e1461026b57806301ffc9a7146102a157806306fdde03146102ce5780630bb2465a146102f05780630c53c51c14610307575b600080fd5b34801561027757600080fd5b5061028b610286366004612f09565b610785565b60405161029891906134de565b60405180910390f35b3480156102ad57600080fd5b506102c16102bc366004613151565b6107c4565b60405161029891906134d3565b3480156102da57600080fd5b506102e361080c565b6040516102989190613529565b3480156102fc57600080fd5b5061030561089a565b005b6102e3610315366004612e8f565b6108e1565b34801561032657600080fd5b506102e3610335366004613249565b610a61565b34801561034657600080fd5b506102e3610ba2565b34801561035b57600080fd5b506102c161036a366004613249565b610bbf565b34801561037b57600080fd5b5061028b610bd4565b34801561039057600080fd5b5061030561039f3660046131a5565b610bdb565b3480156103b057600080fd5b5061028b6103bf366004612bf3565b610c19565b3480156103d057600080fd5b506103056103df366004612c47565b610c34565b3480156103f057600080fd5b506103056103ff36600461307b565b610cd6565b34801561041057600080fd5b5061028b61101d565b34801561042557600080fd5b5061030561043436600461329d565b611021565b34801561044557600080fd5b506103056110be565b34801561045a57600080fd5b5061046e610469366004612fbc565b6110ef565b604051610298919061349b565b34801561048757600080fd5b506102c1610496366004613249565b61120e565b3480156104a757600080fd5b506104bb6104b6366004613249565b611222565b60405161029891906133ab565b3480156104d457600080fd5b506104bb61126d565b3480156104e957600080fd5b506102c161127c565b3480156104fe57600080fd5b5061030561128c565b34801561051357600080fd5b50610305610522366004612f68565b6112d5565b34801561053357600080fd5b506102c1610542366004612bf3565b61133e565b34801561055357600080fd5b50610305611353565b34801561056857600080fd5b5061030561057736600461329d565b611382565b34801561058857600080fd5b5061028b610597366004613249565b6113dd565b3480156105a857600080fd5b506104bb6113e8565b3480156105bd57600080fd5b506103056105cc366004613279565b6113f7565b3480156105dd57600080fd5b506102e36114a0565b3480156105f257600080fd5b50610305610601366004612bf3565b6114ad565b34801561061257600080fd5b50610305610621366004612e5e565b6114f5565b34801561063257600080fd5b50610305610641366004612bf3565b6115c3565b34801561065257600080fd5b50610305610661366004612dc8565b61160e565b34801561067257600080fd5b5061028b610681366004613249565b6116bb565b34801561069257600080fd5b506102c16116cd565b3480156106a757600080fd5b506104bb6116d2565b3480156106bc57600080fd5b506103056106cb366004612bf3565b6116e1565b3480156106dc57600080fd5b506102c16106eb366004612c0f565b61172a565b3480156106fc57600080fd5b5061030561070b366004612cf0565b611754565b34801561071c57600080fd5b5061030561072b366004612bf3565b6117a4565b34801561073c57600080fd5b5061030561074b366004612f34565b611815565b34801561075c57600080fd5b5061030561076b366004612d56565b61184a565b34801561077c57600080fd5b506102e36118ee565b6000806107928484611a18565b905061079d84611a68565b6107a757806107ba565b6107b083611a73565b6107ba9082613c99565b9150505b92915050565b60006001600160e01b03198216636cdb3d1360e11b14806107f557506001600160e01b031982166303a24d0760e21b145b80610804575061080482611a91565b90505b919050565b6008805461081990613d19565b80601f016020809104026020016040519081016040528092919081815260200182805461084590613d19565b80156108925780601f1061086757610100808354040283529160200191610892565b820191906000526020600020905b81548152906001019060200180831161087557829003601f168201915b505050505081565b6108aa6108a5611aaa565b611ab9565b6108cf5760405162461bcd60e51b81526004016108c69061376f565b60405180910390fd5b601080546001600160a01b0319169055565b60408051606081810183526001600160a01b0388166000818152600560209081529085902054845283015291810186905261091f8782878787611aee565b61093b5760405162461bcd60e51b81526004016108c690613a0b565b6001600160a01b03871660009081526005602052604090205461095f906001613c99565b6001600160a01b0388166000908152600560205260409081902091909155517f5845892132946850460bff5a0083f71031bc5bf9aadcd40f1de79423eac9b10b906109af90899033908a906133bf565b60405180910390a1600080306001600160a01b0316888a6040516020016109d7929190613359565b60408051601f19818403018152908290526109f19161333d565b6000604051808303816000865af19150503d8060008114610a2e576040519150601f19603f3d011682016040523d82523d6000602084013e610a33565b606091505b509150915081610a555760405162461bcd60e51b81526004016108c6906136d3565b98975050505050505050565b6000818152600d6020526040812080546060929190610a7f90613d19565b80601f0160208091040260200160405190810160405280929190818152602001828054610aab90613d19565b8015610af85780601f10610acd57610100808354040283529160200191610af8565b820191906000526020600020905b815481529060010190602001808311610adb57829003601f168201915b505050505090508051600014610b0f579050610807565b600c8054610b1c90613d19565b80601f0160208091040260200160405190810160405280929190818152602001828054610b4890613d19565b8015610b955780601f10610b6a57610100808354040283529160200191610b95565b820191906000526020600020905b815481529060010190602001808311610b7857829003601f168201915b5050505050915050919050565b604051806040016040528060018152602001603160f81b81525081565b6000908152600e602052604090205460ff1690565b6004545b90565b610be66108a5611aaa565b610c025760405162461bcd60e51b81526004016108c69061376f565b8051610c1590600c906020840190612aa2565b5050565b6001600160a01b031660009081526005602052604090205490565b8151835114610c555760405162461bcd60e51b81526004016108c690613978565b60005b8351811015610cce57610cbc8686868481518110610c8657634e487b7160e01b600052603260045260246000fd5b6020026020010151868581518110610cae57634e487b7160e01b600052603260045260246000fd5b602002602001015186611754565b80610cc681613d54565b915050610c58565b505050505050565b610ce16108a5611aaa565b610cfd5760405162461bcd60e51b81526004016108c69061376f565b6010546001600160a01b031680610d265760405162461bcd60e51b81526004016108c690613a4c565b6000816001600160a01b031663f923e8c36040518163ffffffff1660e01b815260040160006040518083038186803b158015610d6157600080fd5b505afa158015610d75573d6000803e3d6000fd5b505050506040513d6000823e601f3d908101601f19168201604052610d9d91908101906131d7565b905060005b8351811015611017576000848281518110610dcd57634e487b7160e01b600052603260045260246000fd5b60200260200101516000015190506000858381518110610dfd57634e487b7160e01b600052603260045260246000fd5b602002602001015160200151905060006001600160a01b0316816001600160a01b03161415610e3e5760405162461bcd60e51b81526004016108c6906137b4565b604051627eeac760e11b81526000906001600160a01b0387169062fdd58e90610e6d9085908790600401613482565b60206040518083038186803b158015610e8557600080fd5b505afa158015610e99573d6000803e3d6000fd5b505050506040513d601f19601f82011682018060405250810190610ebd9190613261565b905080610ecc57505050611007565b610ee782848360405180602001604052806000815250611b94565b845160208601206040516303a24d0760e21b81526001600160a01b03881690630e89341c90610f1a9087906004016134de565b60006040518083038186803b158015610f3257600080fd5b505afa158015610f46573d6000803e3d6000fd5b505050506040513d6000823e601f3d908101601f19168201604052610f6e91908101906131d7565b80519060200120146110035761100383876001600160a01b0316630e89341c866040518263ffffffff1660e01b8152600401610faa91906134de565b60006040518083038186803b158015610fc257600080fd5b505afa158015610fd6573d6000803e3d6000fd5b505050506040513d6000823e601f3d908101601f19168201604052610ffe91908101906131d7565b611bb4565b5050505b61101081613d54565b9050610da2565b50505050565b4690565b816110338161102e611aaa565b611c34565b61104f5760405162461bcd60e51b81526004016108c690613a76565b8261105981610bbf565b156110765760405162461bcd60e51b81526004016108c6906139a7565b83611091611082611aaa565b8261108c84611c67565b611c82565b6110ad5760405162461bcd60e51b81526004016108c690613656565b6110b78585611bb4565b5050505050565b6110c96108a5611aaa565b6110e55760405162461bcd60e51b81526004016108c69061376f565b6110ed611c99565b565b606081518351146111125760405162461bcd60e51b81526004016108c690613b98565b600083516001600160401b0381111561113b57634e487b7160e01b600052604160045260246000fd5b604051908082528060200260200182016040528015611164578160200160208202803683370190505b50905060005b8451811015611206576111cb85828151811061119657634e487b7160e01b600052603260045260246000fd5b60200260200101518583815181106111be57634e487b7160e01b600052603260045260246000fd5b6020026020010151610785565b8282815181106111eb57634e487b7160e01b600052603260045260246000fd5b60209081029190910101526111ff81613d54565b905061116a565b509392505050565b6000908152600b6020526040902054151590565b6000818152601260205260408120546001600160a01b03161561125d57506000818152601260205260409020546001600160a01b0316610807565b61126682611d0a565b9050610807565b6010546001600160a01b031681565b600654600160a01b900460ff1690565b611294611aaa565b6001600160a01b03166112a56113e8565b6001600160a01b0316146112cb5760405162461bcd60e51b81526004016108c6906139d6565b6110ed6000611d24565b6002600f5414156112f85760405162461bcd60e51b81526004016108c690613be1565b6002600f558261130a8161102e611aaa565b6113265760405162461bcd60e51b81526004016108c690613a76565b61133285858585611b94565b50506001600f55505050565b60116020526000908152604090205460ff1681565b61135e6108a5611aaa565b61137a5760405162461bcd60e51b81526004016108c69061376f565b6110ed611d76565b8161138f8161102e611aaa565b6113ab5760405162461bcd60e51b81526004016108c690613a76565b826113b7611082611aaa565b6113d35760405162461bcd60e51b81526004016108c690613656565b6110178484611dd7565b600061080482611c67565b6006546001600160a01b031690565b816114048161102e611aaa565b6114205760405162461bcd60e51b81526004016108c690613a76565b6001600160a01b0382166114465760405162461bcd60e51b81526004016108c69061353c565b60008381526012602052604080822080546001600160a01b0319166001600160a01b0386169081179091559051909185917f39071c63e44267bfdefc7b625c0df99d3ce2e6ff98d9f5e9e8a7ab43cdf5000d9190a3505050565b6009805461081990613d19565b6114b86108a5611aaa565b6114d45760405162461bcd60e51b81526004016108c69061376f565b6001600160a01b03166000908152601160205260409020805460ff19169055565b816001600160a01b0316611507611aaa565b6001600160a01b0316141561152e5760405162461bcd60e51b81526004016108c690613b4f565b806001600061153b611aaa565b6001600160a01b03908116825260208083019390935260409182016000908120918716808252919093529120805460ff19169215159290921790915561157f611aaa565b6001600160a01b03167f17307eab39ab6107e8899845ad3d59bd9653f200f220920489ca2b5937696c31836040516115b791906134d3565b60405180910390a35050565b6115ce6108a5611aaa565b6115ea5760405162461bcd60e51b81526004016108c69061376f565b6001600160a01b03166000908152601160205260409020805460ff19166001179055565b6002600f5414156116315760405162461bcd60e51b81526004016108c690613be1565b6002600f5560005b83518110156116a35761167584828151811061166557634e487b7160e01b600052603260045260246000fd5b602002602001015161102e611aaa565b6116915760405162461bcd60e51b81526004016108c690613a76565b8061169b81613d54565b915050611639565b506116b084848484611e27565b50506001600f555050565b6000908152600b602052604090205490565b600190565b6007546001600160a01b031681565b6116ec6108a5611aaa565b6117085760405162461bcd60e51b81526004016108c69061376f565b600780546001600160a01b0319166001600160a01b0392909216919091179055565b60006117368383611e8c565b15611743575060016107be565b61174d8383611ebf565b9392505050565b60006117608685611a18565b9050828110156117975761177f85856117798487613cd6565b856112d5565b8015611792576117928686868486611eed565b610cce565b610cce8686868686611eed565b6117ac611aaa565b6001600160a01b03166117bd6113e8565b6001600160a01b0316146117e35760405162461bcd60e51b81526004016108c6906139d6565b6001600160a01b0381166118095760405162461bcd60e51b81526004016108c69061368d565b61181281611d24565b50565b828282611823838383611c82565b61183f5760405162461bcd60e51b81526004016108c69061370a565b610cce8686866120ae565b60005b82518110156118dd576118af8484838151811061187a57634e487b7160e01b600052603260045260246000fd5b60200260200101518484815181106118a257634e487b7160e01b600052603260045260246000fd5b6020026020010151611c82565b6118cb5760405162461bcd60e51b81526004016108c69061370a565b806118d581613d54565b91505061184d565b506118e9838383612104565b505050565b600c805461081990613d19565b60003330141561195257600080368080601f0160208091040260200160405190810160405280939291908181526020018383808284376000920191909152505050503601516001600160a01b03169150610bd89050565b503390565b60075460009061196f906001600160a01b0316611a12565b61197b575060006107be565b60075460405163c455279160e01b81526001600160a01b0391821691841690829063c4552791906119b09088906004016133ab565b60206040518083038186803b1580156119c857600080fd5b505afa1580156119dc573d6000803e3d6000fd5b505050506040513d601f19601f82011682018060405250810190611a009190613189565b6001600160a01b031614949350505050565b3b151590565b60006001600160a01b038316611a405760405162461bcd60e51b81526004016108c6906135d4565b506000908152600a602090815260408083206001600160a01b03949094168352929052205490565b600061080482611ab9565b6000611a7e826116bb565b611a87836113dd565b6108049190613cd6565b6001600160e01b031981166301ffc9a760e01b14919050565b6000611ab46118fb565b905090565b6000816001600160a01b0316611acd6113e8565b6001600160a01b031614806108045750610804611ae86113e8565b83611e8c565b60006001600160a01b038616611b165760405162461bcd60e51b81526004016108c690613822565b6001611b29611b248761215a565b6121b8565b83868660405160008152602001604052604051611b49949392919061350b565b6020604051602081039080840390855afa158015611b6b573d6000803e3d6000fd5b505050602060405103516001600160a01b0316866001600160a01b031614905095945050505050565b611ba0848484846121d4565b600181511115611017576110178382611dd7565b6000815111611bd55760405162461bcd60e51b81526004016108c6906138d6565b6000828152600e60205260409020805460ff19166001179055611bf88282611dd7565b817fa109ba539900bf1b633f956d63c96fc89b814c7287f7aa50a9216d0b5565720782604051611c289190613529565b60405180910390a25050565b600080611c4084611222565b9050826001600160a01b0316816001600160a01b031614806107ba57506107ba8184611e8c565b6000611c7a600165010000000000613cd6565b909116919050565b600081611c8f8585610785565b1015949350505050565b611ca161127c565b611cbd5760405162461bcd60e51b81526004016108c690613565565b6006805460ff60a01b191690557f5db9ee0a495bf2e6ff9c91a7834c1ba4fdd244a5e8aa4e537bd38aeae4b073aa611cf3611aaa565b604051611d0091906133ab565b60405180910390a1565b6000611d1860286038613cb1565b60ff169190911c919050565b600680546001600160a01b038381166001600160a01b0319831681179093556040519116919082907f8be0079c531659141344cd1fd0a4f28419497f9722a3daafe3b4186f6b6457e090600090a35050565b611d7e61127c565b15611d9b5760405162461bcd60e51b81526004016108c690613867565b6006805460ff60a01b1916600160a01b1790557f62e78cea01bee320cd4e420270b5ea74000d11b0c9f74754ebdbfc544b05a258611cf3611aaa565b6000828152600d602090815260409091208251611df692840190612aa2565b50817f6bb7ff708619ba0610cba295a58592e0451dee2622938c8755667688daf3529b82604051611c289190613529565b611e33848484846122f1565b6001815111156110175760005b83518110156110b757611e7a848281518110611e6c57634e487b7160e01b600052603260045260246000fd5b602002602001015183611dd7565b80611e8481613d54565b915050611e40565b6001600160a01b03811660009081526011602052604081205460ff1615611eb5575060016107be565b61174d8383611957565b6001600160a01b03918216600090815260016020908152604080832093909416825291909152205460ff1690565b611ef561127c565b15611f125760405162461bcd60e51b81526004016108c690613867565b84611f1b611aaa565b6001600160a01b0316816001600160a01b03161480611f415750611f41816106eb611aaa565b611f5d5760405162461bcd60e51b81526004016108c690613aa4565b6001600160a01b038516611f835760405162461bcd60e51b81526004016108c690613891565b6000611f8d611aaa565b9050611fad818888611f9e8961249a565b611fa78961249a565b88610cce565b6000858152600a602090815260408083206001600160a01b038b16845290915290205484811015611ff05760405162461bcd60e51b81526004016108c69061392e565b611ffa8582613cd6565b6000878152600a602090815260408083206001600160a01b038d81168552925280832093909355891681529081208054879290612038908490613c99565b92505081905550866001600160a01b0316886001600160a01b0316836001600160a01b03167fc3d58168c5ae7397731d063d5bbf3d657854427343f4c083240f7aacaa2d0f62898960405161208e929190613c18565b60405180910390a46120a48289898989896124f3565b5050505050505050565b826120b7611aaa565b6001600160a01b0316816001600160a01b031614806120dd57506120dd816106eb611aaa565b6120f95760405162461bcd60e51b81526004016108c690613aa4565b61101784848461260a565b8261210d611aaa565b6001600160a01b0316816001600160a01b031614806121335750612133816106eb611aaa565b61214f5760405162461bcd60e51b81526004016108c690613aa4565b6110178484846127a2565b6000604051806080016040528060438152602001613e71604391398051602091820120835184830151604080870151805190860120905161219b95016134e7565b604051602081830303815290604052805190602001209050919050565b60006121c2610bd4565b8260405160200161219b929190613390565b6121dc61127c565b156121f95760405162461bcd60e51b81526004016108c690613867565b6000612203611aaa565b9050612224816000876122158861249a565b61221e8861249a565b87610cce565b61222e84846129a9565b6000848152600a602090815260408083206001600160a01b038916845290915281208054859290612260908490613c99565b90915550506000848152600b602052604081208054859290612283908490613c99565b92505081905550846001600160a01b031660006001600160a01b0316826001600160a01b03167fc3d58168c5ae7397731d063d5bbf3d657854427343f4c083240f7aacaa2d0f6287876040516122da929190613c18565b60405180910390a46110b7816000878787876124f3565b6122f961127c565b156123165760405162461bcd60e51b81526004016108c690613867565b81518351146123375760405162461bcd60e51b81526004016108c690613978565b82516000612343611aaa565b905061235481600088888888610cce565b60005b8281101561243257600086828151811061238157634e487b7160e01b600052603260045260246000fd5b6020026020010151905060008683815181106123ad57634e487b7160e01b600052603260045260246000fd5b602002602001015190506123c182826129a9565b6000828152600a602090815260408083206001600160a01b038d168452909152812080548392906123f3908490613c99565b90915550506000828152600b602052604081208054839290612416908490613c99565b925050819055505050808061242a90613d54565b915050612357565b50856001600160a01b031660006001600160a01b0316826001600160a01b03167f4a39dc06d4c0dbc64b70af90fd698a233a518aa5d07e595d983b8c0526c8f7fb88886040516124839291906134ae565b60405180910390a4610cce816000888888886129d1565b604080516001808252818301909252606091600091906020808301908036833701905050905082816000815181106124e257634e487b7160e01b600052603260045260246000fd5b602090810291909101015292915050565b612505846001600160a01b0316611a12565b15610cce5760405163f23a6e6160e01b81526001600160a01b0385169063f23a6e619061253e908990899088908890889060040161343d565b602060405180830381600087803b15801561255857600080fd5b505af1925050508015612588575060408051601f3d908101601f191682019092526125859181019061316d565b60015b6125d157612594613da1565b8061259f57506125b9565b8060405162461bcd60e51b81526004016108c69190613529565b60405162461bcd60e51b81526004016108c69061361f565b6001600160e01b0319811663f23a6e6160e01b146126015760405162461bcd60e51b81526004016108c6906137eb565b50505050505050565b61261261127c565b1561262f5760405162461bcd60e51b81526004016108c690613867565b6001600160a01b0383166126555760405162461bcd60e51b81526004016108c690613b1f565b600081116126755760405162461bcd60e51b81526004016108c690613741565b600061267f611aaa565b90506126af818560006126918761249a565b61269a8761249a565b60405180602001604052806000815250610cce565b6000838152600a602090815260408083206001600160a01b0388168452909152902054828110156126f25760405162461bcd60e51b81526004016108c6906138fe565b6126fc8382613cd6565b6000858152600a602090815260408083206001600160a01b038a168452825280832093909355868252600b9052908120805485929061273c908490613cd6565b9250508190555060006001600160a01b0316856001600160a01b0316836001600160a01b03167fc3d58168c5ae7397731d063d5bbf3d657854427343f4c083240f7aacaa2d0f628787604051612793929190613c18565b60405180910390a45050505050565b6127aa61127c565b156127c75760405162461bcd60e51b81526004016108c690613867565b6001600160a01b0383166127ed5760405162461bcd60e51b81526004016108c690613b1f565b805182511461280e5760405162461bcd60e51b81526004016108c690613ae8565b6000612818611aaa565b905061283881856000868660405180602001604052806000815250610cce565b60005b835181101561294a57600084828151811061286657634e487b7160e01b600052603260045260246000fd5b60200260200101519050600084838151811061289257634e487b7160e01b600052603260045260246000fd5b6020908102919091018101516000848152600a835260408082206001600160a01b038c1683529093529190912054909150818110156128e35760405162461bcd60e51b81526004016108c6906138fe565b6128ed8282613cd6565b6000848152600a602090815260408083206001600160a01b038d168452825280832093909355858252600b9052908120805484929061292d908490613cd6565b92505081905550505050808061294290613d54565b91505061283b565b5060006001600160a01b0316846001600160a01b0316826001600160a01b03167f4a39dc06d4c0dbc64b70af90fd698a233a518aa5d07e595d983b8c0526c8f7fb868660405161299b9291906134ae565b60405180910390a450505050565b6129b282611a73565b811115610c155760405162461bcd60e51b81526004016108c690613593565b6129e3846001600160a01b0316611a12565b15610cce5760405163bc197c8160e01b81526001600160a01b0385169063bc197c8190612a1c90899089908890889088906004016133eb565b602060405180830381600087803b158015612a3657600080fd5b505af1925050508015612a66575060408051601f3d908101601f19168201909252612a639181019061316d565b60015b612a7257612594613da1565b6001600160e01b0319811663bc197c8160e01b146126015760405162461bcd60e51b81526004016108c6906137eb565b828054612aae90613d19565b90600052602060002090601f016020900481019282612ad05760008555612b16565b82601f10612ae957805160ff1916838001178555612b16565b82800160010185558215612b16579182015b82811115612b16578251825591602001919060010190612afb565b50612b22929150612b26565b5090565b5b80821115612b225760008155600101612b27565b600082601f830112612b4b578081fd5b81356020612b60612b5b83613c4f565b613c26565b8281528181019085830183850287018401881015612b7c578586fd5b855b85811015612b9a57813584529284019290840190600101612b7e565b5090979650505050505050565b600082601f830112612bb7578081fd5b8135612bc5612b5b82613c72565b818152846020838601011115612bd9578283fd5b816020850160208301379081016020019190915292915050565b600060208284031215612c04578081fd5b813561174d81613e45565b60008060408385031215612c21578081fd5b8235612c2c81613e45565b91506020830135612c3c81613e45565b809150509250929050565b600080600080600060a08688031215612c5e578081fd5b8535612c6981613e45565b94506020860135612c7981613e45565b935060408601356001600160401b0380821115612c94578283fd5b612ca089838a01612b3b565b94506060880135915080821115612cb5578283fd5b612cc189838a01612b3b565b93506080880135915080821115612cd6578283fd5b50612ce388828901612ba7565b9150509295509295909350565b600080600080600060a08688031215612d07578283fd5b8535612d1281613e45565b94506020860135612d2281613e45565b9350604086013592506060860135915060808601356001600160401b03811115612d4a578182fd5b612ce388828901612ba7565b600080600060608486031215612d6a578081fd5b8335612d7581613e45565b925060208401356001600160401b0380821115612d90578283fd5b612d9c87838801612b3b565b93506040860135915080821115612db1578283fd5b50612dbe86828701612b3b565b9150509250925092565b60008060008060808587031215612ddd578182fd5b8435612de881613e45565b935060208501356001600160401b0380821115612e03578384fd5b612e0f88838901612b3b565b94506040870135915080821115612e24578384fd5b612e3088838901612b3b565b93506060870135915080821115612e45578283fd5b50612e5287828801612ba7565b91505092959194509250565b60008060408385031215612e70578182fd5b8235612e7b81613e45565b915060208301358015158114612c3c578182fd5b600080600080600060a08688031215612ea6578283fd5b8535612eb181613e45565b945060208601356001600160401b03811115612ecb578384fd5b612ed788828901612ba7565b9450506040860135925060608601359150608086013560ff81168114612efb578182fd5b809150509295509295909350565b60008060408385031215612f1b578182fd5b8235612f2681613e45565b946020939093013593505050565b600080600060608486031215612f48578081fd5b8335612f5381613e45565b95602085013595506040909401359392505050565b60008060008060808587031215612f7d578182fd5b8435612f8881613e45565b9350602085013592506040850135915060608501356001600160401b03811115612fb0578182fd5b612e5287828801612ba7565b60008060408385031215612fce578182fd5b82356001600160401b0380821115612fe4578384fd5b818501915085601f830112612ff7578384fd5b81356020613007612b5b83613c4f565b82815281810190858301838502870184018b1015613023578889fd5b8896505b8487101561304e57803561303a81613e45565b835260019690960195918301918301613027565b5096505086013592505080821115613064578283fd5b5061307185828601612b3b565b9150509250929050565b6000602080838503121561308d578182fd5b82356001600160401b03808211156130a3578384fd5b818501915085601f8301126130b6578384fd5b81356130c4612b5b82613c4f565b818152848101908486016040808502870188018b10156130e2578889fd5b8896505b848710156131425780828c0312156130fc578889fd5b8051818101818110888211171561311557613115613d85565b8252823581528883013561312881613e45565b818a015284526001969096019592870192908101906130e6565b50909998505050505050505050565b600060208284031215613162578081fd5b813561174d81613e5a565b60006020828403121561317e578081fd5b815161174d81613e5a565b60006020828403121561319a578081fd5b815161174d81613e45565b6000602082840312156131b6578081fd5b81356001600160401b038111156131cb578182fd5b6107ba84828501612ba7565b6000602082840312156131e8578081fd5b81516001600160401b038111156131fd578182fd5b8201601f8101841361320d578182fd5b805161321b612b5b82613c72565b81815285602083850101111561322f578384fd5b613240826020830160208601613ced565b95945050505050565b60006020828403121561325a578081fd5b5035919050565b600060208284031215613272578081fd5b5051919050565b6000806040838503121561328b578182fd5b823591506020830135612c3c81613e45565b600080604083850312156132af578182fd5b8235915060208301356001600160401b038111156132cb578182fd5b61307185828601612ba7565b6000815180845260208085019450808401835b83811015613306578151875295820195908201906001016132ea565b509495945050505050565b60008151808452613329816020860160208601613ced565b601f01601f19169290920160200192915050565b6000825161334f818460208701613ced565b9190910192915050565b6000835161336b818460208801613ced565b60609390931b6bffffffffffffffffffffffff19169190920190815260140192915050565b61190160f01b81526002810192909252602282015260420190565b6001600160a01b0391909116815260200190565b6001600160a01b0384811682528316602082015260606040820181905260009061324090830184613311565b6001600160a01b0386811682528516602082015260a060408201819052600090613417908301866132d7565b828103606084015261342981866132d7565b90508281036080840152610a558185613311565b6001600160a01b03868116825285166020820152604081018490526060810183905260a06080820181905260009061347790830184613311565b979650505050505050565b6001600160a01b03929092168252602082015260400190565b60006020825261174d60208301846132d7565b6000604082526134c160408301856132d7565b828103602084015261324081856132d7565b901515815260200190565b90815260200190565b93845260208401929092526001600160a01b03166040830152606082015260800190565b93845260ff9290921660208401526040830152606082015260800190565b60006020825261174d6020830184613311565b6020808252600f908201526e494e56414c49445f4144445245535360881b604082015260600190565b60208082526014908201527314185d5cd8589b194e881b9bdd081c185d5cd95960621b604082015260600190565b60208082526021908201527f5155414e544954595f455843454544535f544f4b454e5f535550504c595f43416040820152600560fc1b606082015260800190565b6020808252602b908201527f455243313135353a2062616c616e636520717565727920666f7220746865207a60408201526a65726f206164647265737360a81b606082015260800190565b6020808252601f908201527f5472616e7366657220746f206e6f6e2045524331313535526563656976657200604082015260600190565b6020808252601d908201527f4f4e4c595f46554c4c5f544f4b454e5f4f574e45525f414c4c4f574544000000604082015260600190565b60208082526026908201527f4f776e61626c653a206e6577206f776e657220697320746865207a65726f206160408201526564647265737360d01b606082015260800190565b6020808252601c908201527f46756e6374696f6e2063616c6c206e6f74207375636365737366756c00000000604082015260600190565b6020808252601f908201527f4f4e4c595f544f4b454e5f414d4f554e545f4f574e45445f414c4c4f57454400604082015260600190565b602080825260149082015273414d4f554e545f4c4553535f5448414e5f4f4e4560601b604082015260600190565b60208082526025908201527f455243313135355472616e6461626c653a2043414c4c45525f49535f4e4f545f60408201526427aba722a960d91b606082015260800190565b60208082526018908201527f5a45524f5f414444524553535f4e4f545f414c4c4f5745440000000000000000604082015260600190565b6020808252601f908201527f4552433131353552656365697665722072656a656374656420746f6b656e7300604082015260600190565b60208082526025908201527f4e61746976654d6574615472616e73616374696f6e3a20494e56414c49445f5360408201526424a3a722a960d91b606082015260800190565b60208082526010908201526f14185d5cd8589b194e881c185d5cd95960821b604082015260600190565b60208082526025908201527f455243313135353a207472616e7366657220746f20746865207a65726f206164604082015264647265737360d81b606082015260800190565b6020808252600e908201526d4f4e4c595f56414c49445f55524960901b604082015260600190565b602080825260169082015275414d4f554e545f455843454544535f42414c414e434560501b604082015260600190565b6020808252602a908201527f455243313135353a20696e73756666696369656e742062616c616e636520666f60408201526939103a3930b739b332b960b11b606082015260800190565b6020808252601590820152740929cac82989288be82a4a482b2a6be988a9c8ea89605b1b604082015260600190565b60208082526015908201527415549257d0d0539393d517d09157d0d2105391d151605a1b604082015260600190565b6020808252818101527f4f776e61626c653a2063616c6c6572206973206e6f7420746865206f776e6572604082015260600190565b60208082526021908201527f5369676e657220616e64207369676e617475726520646f206e6f74206d6174636040820152600d60fb1b606082015260800190565b60208082526010908201526f135251d490551157d11254d05093115160821b604082015260600190565b60208082526014908201527313d3931657d0d491505513d497d0531313d5d15160621b604082015260600190565b60208082526024908201527f455243313135355472616e6461626c653a2043414c4c45525f4e4f545f414c4c60408201526313d5d15160e21b606082015260800190565b6020808252601b908201527f4944535f414d4f554e54535f4c454e4754485f4d49534d415443480000000000604082015260600190565b6020808252601690820152754255524e5f46524f4d5f5a45524f5f4144445245535360501b604082015260600190565b60208082526029908201527f455243313135353a2073657474696e6720617070726f76616c20737461747573604082015268103337b91039b2b63360b91b606082015260800190565b60208082526029908201527f455243313135353a206163636f756e747320616e6420696473206c656e677468604082015268040dad2e6dac2e8c6d60bb1b606082015260800190565b6020808252601f908201527f5265656e7472616e637947756172643a207265656e7472616e742063616c6c00604082015260600190565b918252602082015260400190565b6040518181016001600160401b0381118282101715613c4757613c47613d85565b604052919050565b60006001600160401b03821115613c6857613c68613d85565b5060209081020190565b60006001600160401b03821115613c8b57613c8b613d85565b50601f01601f191660200190565b60008219821115613cac57613cac613d6f565b500190565b600060ff821660ff84168060ff03821115613cce57613cce613d6f565b019392505050565b600082821015613ce857613ce8613d6f565b500390565b60005b83811015613d08578181015183820152602001613cf0565b838111156110175750506000910152565b600281046001821680613d2d57607f821691505b60208210811415613d4e57634e487b7160e01b600052602260045260246000fd5b50919050565b6000600019821415613d6857613d68613d6f565b5060010190565b634e487b7160e01b600052601160045260246000fd5b634e487b7160e01b600052604160045260246000fd5b60e01c90565b600060443d1015613db157610bd8565b600481823e6308c379a0613dc58251613d9b565b14613dcf57610bd8565b6040513d600319016004823e80513d6001600160401b038160248401118184111715613dfe5750505050610bd8565b82840192508251915080821115613e185750505050610bd8565b503d83016020828401011115613e3057505050610bd8565b601f01601f1916810160200160405291505090565b6001600160a01b038116811461181257600080fd5b6001600160e01b03198116811461181257600080fdfe4d6574615472616e73616374696f6e2875696e74323536206e6f6e63652c616464726573732066726f6d2c62797465732066756e6374696f6e5369676e617475726529a2646970667358221220fc1f5aea4eeee2df5db9b9be6c44f54550ede2ce190013367fe005dfc634543b64736f6c63430008000033454950373132446f6d61696e28737472696e67206e616d652c737472696e672076657273696f6e2c6164647265737320766572696679696e67436f6e74726163742c627974657333322073616c7429",
	"libraries": {},
	"devdoc": {
		"kind": "dev",
		"methods": {
			"balanceOfBatch(address[],uint256[])": {
				"details": "See {IERC1155-balanceOfBatch}. Requirements: - `accounts` and `ids` must have the same length."
			},
			"batchBurn(address,uint256[],uint256[])": {
				"details": "Burns tokens for each id in _ids",
				"params": {
					"_from": "The address to burn tokens from",
					"_ids": "Array of token ids to burn",
					"_quantities": "Array of the amount to be burned"
				}
			},
			"batchMint(address,uint256[],uint256[],bytes)": {
				"details": "Mint tokens for each id in _ids",
				"params": {
					"_data": "Data to pass if receiver is contract",
					"_ids": "Array of ids to mint",
					"_quantities": "Array of amounts of tokens to mint per id",
					"_to": "The address to mint tokens to"
				}
			},
			"burn(address,uint256,uint256)": {
				"details": "Burns amount of a given token id",
				"params": {
					"_from": "The address to burn tokens from",
					"_id": "Token ID to burn",
					"_quantity": "Amount to burn"
				}
			},
			"exists(uint256)": {
				"details": "Returns whether the specified token is minted"
			},
			"mint(address,uint256,uint256,bytes)": {
				"details": "Mints some amount of tokens to an address",
				"params": {
					"_data": "Data to pass if receiver is contract",
					"_id": "Token ID to mint",
					"_quantity": "Amount of tokens to mint",
					"_to": "Address of the future owner of the token"
				}
			},
			"owner()": {
				"details": "Returns the address of the current owner."
			},
			"paused()": {
				"details": "Return true if the contract is paused, and false otherwise"
			},
			"renounceOwnership()": {
				"details": "Leaves the contract without owner. It will not be possible to call `onlyOwner` functions anymore. Can only be called by the current owner. NOTE: Renouncing ownership will leave the contract without an owner, thereby removing any functionality that is only available to the owner."
			},
			"setApprovalForAll(address,bool)": {
				"details": "See {IERC1155-setApprovalForAll}."
			},
			"supportsInterface(bytes4)": {
				"details": "See {IERC165-supportsInterface}."
			},
			"totalSupply(uint256)": {
				"details": "Returns the total quantity for a token ID",
				"params": {
					"_id": "Id of token to query"
				},
				"returns": {
					"_0": "Amount of token in existence"
				}
			},
			"transferOwnership(address)": {
				"details": "Transfers ownership of the contract to a new account (`newOwner`). Can only be called by the current owner."
			}
		},
		"version": 1
	},
	"userdoc": {
		"kind": "user",
		"methods": {},
		"version": 1
	},
	"storageLayout": {
		"storage": [
			{
				"astId": 7145,
				"contract": "contracts/collectible/ForbitswapNFTSAssetShared.sol:ForbitswapNFTSAssetShared",
				"label": "_balances",
				"offset": 0,
				"slot": "0",
				"type": "t_mapping(t_uint256,t_mapping(t_address,t_uint256))"
			},
			{
				"astId": 7151,
				"contract": "contracts/collectible/ForbitswapNFTSAssetShared.sol:ForbitswapNFTSAssetShared",
				"label": "_operatorApprovals",
				"offset": 0,
				"slot": "1",
				"type": "t_mapping(t_address,t_mapping(t_address,t_bool))"
			},
			{
				"astId": 7153,
				"contract": "contracts/collectible/ForbitswapNFTSAssetShared.sol:ForbitswapNFTSAssetShared",
				"label": "_uri",
				"offset": 0,
				"slot": "2",
				"type": "t_string_storage"
			},
			{
				"astId": 2734,
				"contract": "contracts/collectible/ForbitswapNFTSAssetShared.sol:ForbitswapNFTSAssetShared",
				"label": "inited",
				"offset": 0,
				"slot": "3",
				"type": "t_bool"
			},
			{
				"astId": 2642,
				"contract": "contracts/collectible/ForbitswapNFTSAssetShared.sol:ForbitswapNFTSAssetShared",
				"label": "domainSeperator",
				"offset": 0,
				"slot": "4",
				"type": "t_bytes32"
			},
			{
				"astId": 2781,
				"contract": "contracts/collectible/ForbitswapNFTSAssetShared.sol:ForbitswapNFTSAssetShared",
				"label": "nonces",
				"offset": 0,
				"slot": "5",
				"type": "t_mapping(t_address,t_uint256)"
			},
			{
				"astId": 7,
				"contract": "contracts/collectible/ForbitswapNFTSAssetShared.sol:ForbitswapNFTSAssetShared",
				"label": "_owner",
				"offset": 0,
				"slot": "6",
				"type": "t_address"
			},
			{
				"astId": 9009,
				"contract": "contracts/collectible/ForbitswapNFTSAssetShared.sol:ForbitswapNFTSAssetShared",
				"label": "_paused",
				"offset": 20,
				"slot": "6",
				"type": "t_bool"
			},
			{
				"astId": 134,
				"contract": "contracts/collectible/ForbitswapNFTSAssetShared.sol:ForbitswapNFTSAssetShared",
				"label": "proxyRegistryAddress",
				"offset": 0,
				"slot": "7",
				"type": "t_address"
			},
			{
				"astId": 136,
				"contract": "contracts/collectible/ForbitswapNFTSAssetShared.sol:ForbitswapNFTSAssetShared",
				"label": "name",
				"offset": 0,
				"slot": "8",
				"type": "t_string_storage"
			},
			{
				"astId": 138,
				"contract": "contracts/collectible/ForbitswapNFTSAssetShared.sol:ForbitswapNFTSAssetShared",
				"label": "symbol",
				"offset": 0,
				"slot": "9",
				"type": "t_string_storage"
			},
			{
				"astId": 144,
				"contract": "contracts/collectible/ForbitswapNFTSAssetShared.sol:ForbitswapNFTSAssetShared",
				"label": "balances",
				"offset": 0,
				"slot": "10",
				"type": "t_mapping(t_uint256,t_mapping(t_address,t_uint256))"
			},
			{
				"astId": 148,
				"contract": "contracts/collectible/ForbitswapNFTSAssetShared.sol:ForbitswapNFTSAssetShared",
				"label": "_supply",
				"offset": 0,
				"slot": "11",
				"type": "t_mapping(t_uint256,t_uint256)"
			},
			{
				"astId": 1341,
				"contract": "contracts/collectible/ForbitswapNFTSAssetShared.sol:ForbitswapNFTSAssetShared",
				"label": "templateURI",
				"offset": 0,
				"slot": "12",
				"type": "t_string_storage"
			},
			{
				"astId": 1345,
				"contract": "contracts/collectible/ForbitswapNFTSAssetShared.sol:ForbitswapNFTSAssetShared",
				"label": "_tokenURI",
				"offset": 0,
				"slot": "13",
				"type": "t_mapping(t_uint256,t_string_storage)"
			},
			{
				"astId": 1349,
				"contract": "contracts/collectible/ForbitswapNFTSAssetShared.sol:ForbitswapNFTSAssetShared",
				"label": "_isPermanentURI",
				"offset": 0,
				"slot": "14",
				"type": "t_mapping(t_uint256,t_bool)"
			},
			{
				"astId": 9098,
				"contract": "contracts/collectible/ForbitswapNFTSAssetShared.sol:ForbitswapNFTSAssetShared",
				"label": "_status",
				"offset": 0,
				"slot": "15",
				"type": "t_uint256"
			},
			{
				"astId": 1961,
				"contract": "contracts/collectible/ForbitswapNFTSAssetShared.sol:ForbitswapNFTSAssetShared",
				"label": "migrationTarget",
				"offset": 0,
				"slot": "16",
				"type": "t_contract(ForbitswapNFTSAssetShared)2492"
			},
			{
				"astId": 1965,
				"contract": "contracts/collectible/ForbitswapNFTSAssetShared.sol:ForbitswapNFTSAssetShared",
				"label": "sharedProxyAddresses",
				"offset": 0,
				"slot": "17",
				"type": "t_mapping(t_address,t_bool)"
			},
			{
				"astId": 1974,
				"contract": "contracts/collectible/ForbitswapNFTSAssetShared.sol:ForbitswapNFTSAssetShared",
				"label": "_creatorOverride",
				"offset": 0,
				"slot": "18",
				"type": "t_mapping(t_uint256,t_address)"
			}
		],
		"types": {
			"t_address": {
				"encoding": "inplace",
				"label": "address",
				"numberOfBytes": "20"
			},
			"t_bool": {
				"encoding": "inplace",
				"label": "bool",
				"numberOfBytes": "1"
			},
			"t_bytes32": {
				"encoding": "inplace",
				"label": "bytes32",
				"numberOfBytes": "32"
			},
			"t_contract(ForbitswapNFTSAssetShared)2492": {
				"encoding": "inplace",
				"label": "contract ForbitswapNFTSAssetShared",
				"numberOfBytes": "20"
			},
			"t_mapping(t_address,t_bool)": {
				"encoding": "mapping",
				"key": "t_address",
				"label": "mapping(address => bool)",
				"numberOfBytes": "32",
				"value": "t_bool"
			},
			"t_mapping(t_address,t_mapping(t_address,t_bool))": {
				"encoding": "mapping",
				"key": "t_address",
				"label": "mapping(address => mapping(address => bool))",
				"numberOfBytes": "32",
				"value": "t_mapping(t_address,t_bool)"
			},
			"t_mapping(t_address,t_uint256)": {
				"encoding": "mapping",
				"key": "t_address",
				"label": "mapping(address => uint256)",
				"numberOfBytes": "32",
				"value": "t_uint256"
			},
			"t_mapping(t_uint256,t_address)": {
				"encoding": "mapping",
				"key": "t_uint256",
				"label": "mapping(uint256 => address)",
				"numberOfBytes": "32",
				"value": "t_address"
			},
			"t_mapping(t_uint256,t_bool)": {
				"encoding": "mapping",
				"key": "t_uint256",
				"label": "mapping(uint256 => bool)",
				"numberOfBytes": "32",
				"value": "t_bool"
			},
			"t_mapping(t_uint256,t_mapping(t_address,t_uint256))": {
				"encoding": "mapping",
				"key": "t_uint256",
				"label": "mapping(uint256 => mapping(address => uint256))",
				"numberOfBytes": "32",
				"value": "t_mapping(t_address,t_uint256)"
			},
			"t_mapping(t_uint256,t_string_storage)": {
				"encoding": "mapping",
				"key": "t_uint256",
				"label": "mapping(uint256 => string)",
				"numberOfBytes": "32",
				"value": "t_string_storage"
			},
			"t_mapping(t_uint256,t_uint256)": {
				"encoding": "mapping",
				"key": "t_uint256",
				"label": "mapping(uint256 => uint256)",
				"numberOfBytes": "32",
				"value": "t_uint256"
			},
			"t_string_storage": {
				"encoding": "bytes",
				"label": "string",
				"numberOfBytes": "32"
			},
			"t_uint256": {
				"encoding": "inplace",
				"label": "uint256",
				"numberOfBytes": "32"
			}
		}
	}
}