{
	"address": "0x1Bf6DDDf3Cb8e31dae750Dfa997bff11bD2879f9",
	"abi": [
		{
			"inputs": [
				{
					"internalType": "contract ProxyRegistry",
					"name": "registryAddress",
					"type": "address"
				},
				{
					"internalType": "contract TokenTransferProxy",
					"name": "tokenTransferProxyAddress",
					"type": "address"
				},
				{
					"internalType": "contract IERC20",
					"name": "tokenAddress",
					"type": "address"
				},
				{
					"internalType": "address",
					"name": "protocolFeeAddress",
					"type": "address"
				}
			],
			"stateMutability": "nonpayable",
			"type": "constructor"
		},
		{
			"anonymous": false,
			"inputs": [
				{
					"indexed": true,
					"internalType": "bytes32",
					"name": "hash",
					"type": "bytes32"
				},
				{
					"indexed": false,
					"internalType": "address",
					"name": "exchange",
					"type": "address"
				},
				{
					"indexed": true,
					"internalType": "address",
					"name": "maker",
					"type": "address"
				},
				{
					"indexed": false,
					"internalType": "address",
					"name": "taker",
					"type": "address"
				},
				{
					"indexed": false,
					"internalType": "uint256",
					"name": "makerRelayerFee",
					"type": "uint256"
				},
				{
					"indexed": false,
					"internalType": "uint256",
					"name": "takerRelayerFee",
					"type": "uint256"
				},
				{
					"indexed": false,
					"internalType": "uint256",
					"name": "makerProtocolFee",
					"type": "uint256"
				},
				{
					"indexed": false,
					"internalType": "uint256",
					"name": "takerProtocolFee",
					"type": "uint256"
				},
				{
					"indexed": true,
					"internalType": "address",
					"name": "feeRecipient",
					"type": "address"
				},
				{
					"indexed": false,
					"internalType": "enum Market.FeeMethod",
					"name": "feeMethod",
					"type": "uint8"
				},
				{
					"indexed": false,
					"internalType": "enum Market.Side",
					"name": "side",
					"type": "uint8"
				},
				{
					"indexed": false,
					"internalType": "enum Market.SaleKind",
					"name": "saleKind",
					"type": "uint8"
				},
				{
					"indexed": false,
					"internalType": "address",
					"name": "target",
					"type": "address"
				}
			],
			"name": "OrderApprovedPartOne",
			"type": "event"
		},
		{
			"anonymous": false,
			"inputs": [
				{
					"indexed": true,
					"internalType": "bytes32",
					"name": "hash",
					"type": "bytes32"
				},
				{
					"indexed": false,
					"internalType": "enum Market.HowToCall",
					"name": "howToCall",
					"type": "uint8"
				},
				{
					"indexed": false,
					"internalType": "bytes",
					"name": "callData",
					"type": "bytes"
				},
				{
					"indexed": false,
					"internalType": "bytes",
					"name": "replacementPattern",
					"type": "bytes"
				},
				{
					"indexed": false,
					"internalType": "address",
					"name": "staticTarget",
					"type": "address"
				},
				{
					"indexed": false,
					"internalType": "bytes",
					"name": "staticExtradata",
					"type": "bytes"
				},
				{
					"indexed": false,
					"internalType": "address",
					"name": "paymentToken",
					"type": "address"
				},
				{
					"indexed": false,
					"internalType": "uint256",
					"name": "basePrice",
					"type": "uint256"
				},
				{
					"indexed": false,
					"internalType": "uint256",
					"name": "extra",
					"type": "uint256"
				},
				{
					"indexed": false,
					"internalType": "uint256",
					"name": "listingTime",
					"type": "uint256"
				},
				{
					"indexed": false,
					"internalType": "uint256",
					"name": "expirationTime",
					"type": "uint256"
				},
				{
					"indexed": false,
					"internalType": "uint256",
					"name": "salt",
					"type": "uint256"
				},
				{
					"indexed": false,
					"internalType": "bool",
					"name": "orderbookInclusionDesired",
					"type": "bool"
				}
			],
			"name": "OrderApprovedPartTwo",
			"type": "event"
		},
		{
			"anonymous": false,
			"inputs": [
				{
					"indexed": true,
					"internalType": "bytes32",
					"name": "hash",
					"type": "bytes32"
				}
			],
			"name": "OrderCancelled",
			"type": "event"
		},
		{
			"anonymous": false,
			"inputs": [
				{
					"indexed": false,
					"internalType": "bytes32",
					"name": "buyHash",
					"type": "bytes32"
				},
				{
					"indexed": false,
					"internalType": "bytes32",
					"name": "sellHash",
					"type": "bytes32"
				},
				{
					"indexed": true,
					"internalType": "address",
					"name": "maker",
					"type": "address"
				},
				{
					"indexed": true,
					"internalType": "address",
					"name": "taker",
					"type": "address"
				},
				{
					"indexed": false,
					"internalType": "uint256",
					"name": "price",
					"type": "uint256"
				},
				{
					"indexed": true,
					"internalType": "bytes32",
					"name": "metadata",
					"type": "bytes32"
				}
			],
			"name": "OrdersMatched",
			"type": "event"
		},
		{
			"anonymous": false,
			"inputs": [
				{
					"indexed": true,
					"internalType": "address",
					"name": "previousOwner",
					"type": "address"
				},
				{
					"indexed": true,
					"internalType": "address",
					"name": "newOwner",
					"type": "address"
				}
			],
			"name": "OwnershipTransferred",
			"type": "event"
		},
		{
			"inputs": [],
			"name": "INVERSE_BASIS_POINT",
			"outputs": [
				{
					"internalType": "uint256",
					"name": "",
					"type": "uint256"
				}
			],
			"stateMutability": "view",
			"type": "function"
		},
		{
			"inputs": [
				{
					"internalType": "address[7]",
					"name": "addrs",
					"type": "address[7]"
				},
				{
					"internalType": "uint256[9]",
					"name": "uints",
					"type": "uint256[9]"
				},
				{
					"internalType": "enum Market.FeeMethod",
					"name": "feeMethod",
					"type": "uint8"
				},
				{
					"internalType": "enum Market.Side",
					"name": "side",
					"type": "uint8"
				},
				{
					"internalType": "enum Market.SaleKind",
					"name": "saleKind",
					"type": "uint8"
				},
				{
					"internalType": "enum Market.HowToCall",
					"name": "howToCall",
					"type": "uint8"
				},
				{
					"internalType": "bytes",
					"name": "callData",
					"type": "bytes"
				},
				{
					"internalType": "bytes",
					"name": "replacementPattern",
					"type": "bytes"
				},
				{
					"internalType": "bytes",
					"name": "staticExtradata",
					"type": "bytes"
				},
				{
					"internalType": "bool",
					"name": "orderbookInclusionDesired",
					"type": "bool"
				}
			],
			"name": "approveOrder_",
			"outputs": [],
			"stateMutability": "nonpayable",
			"type": "function"
		},
		{
			"inputs": [
				{
					"internalType": "bytes32",
					"name": "",
					"type": "bytes32"
				}
			],
			"name": "approvedOrders",
			"outputs": [
				{
					"internalType": "bool",
					"name": "",
					"type": "bool"
				}
			],
			"stateMutability": "view",
			"type": "function"
		},
		{
			"inputs": [
				{
					"internalType": "address[14]",
					"name": "addrs",
					"type": "address[14]"
				},
				{
					"internalType": "uint256[18]",
					"name": "uints",
					"type": "uint256[18]"
				},
				{
					"internalType": "uint8[8]",
					"name": "feeMethodsSidesKindsHowToCalls",
					"type": "uint8[8]"
				},
				{
					"internalType": "bytes",
					"name": "calldataBuy",
					"type": "bytes"
				},
				{
					"internalType": "bytes",
					"name": "calldataSell",
					"type": "bytes"
				},
				{
					"internalType": "bytes",
					"name": "replacementPatternBuy",
					"type": "bytes"
				},
				{
					"internalType": "bytes",
					"name": "replacementPatternSell",
					"type": "bytes"
				},
				{
					"internalType": "bytes",
					"name": "staticExtradataBuy",
					"type": "bytes"
				},
				{
					"internalType": "bytes",
					"name": "staticExtradataSell",
					"type": "bytes"
				},
				{
					"internalType": "uint8[2]",
					"name": "vs",
					"type": "uint8[2]"
				},
				{
					"internalType": "bytes32[5]",
					"name": "rssMetadata",
					"type": "bytes32[5]"
				}
			],
			"name": "atomicMatch_",
			"outputs": [],
			"stateMutability": "payable",
			"type": "function"
		},
		{
			"inputs": [
				{
					"internalType": "address[7]",
					"name": "addrs",
					"type": "address[7]"
				},
				{
					"internalType": "uint256[9]",
					"name": "uints",
					"type": "uint256[9]"
				},
				{
					"internalType": "enum Market.FeeMethod",
					"name": "feeMethod",
					"type": "uint8"
				},
				{
					"internalType": "enum Market.Side",
					"name": "side",
					"type": "uint8"
				},
				{
					"internalType": "enum Market.SaleKind",
					"name": "saleKind",
					"type": "uint8"
				},
				{
					"internalType": "enum Market.HowToCall",
					"name": "howToCall",
					"type": "uint8"
				},
				{
					"internalType": "bytes",
					"name": "callData",
					"type": "bytes"
				},
				{
					"internalType": "bytes",
					"name": "replacementPattern",
					"type": "bytes"
				},
				{
					"internalType": "bytes",
					"name": "staticExtradata",
					"type": "bytes"
				}
			],
			"name": "calculateCurrentPrice_",
			"outputs": [
				{
					"internalType": "uint256",
					"name": "",
					"type": "uint256"
				}
			],
			"stateMutability": "view",
			"type": "function"
		},
		{
			"inputs": [
				{
					"internalType": "enum Market.Side",
					"name": "side",
					"type": "uint8"
				},
				{
					"internalType": "enum Market.SaleKind",
					"name": "saleKind",
					"type": "uint8"
				},
				{
					"internalType": "uint256",
					"name": "basePrice",
					"type": "uint256"
				},
				{
					"internalType": "uint256",
					"name": "extra",
					"type": "uint256"
				},
				{
					"internalType": "uint256",
					"name": "listingTime",
					"type": "uint256"
				},
				{
					"internalType": "uint256",
					"name": "expirationTime",
					"type": "uint256"
				}
			],
			"name": "calculateFinalPrice",
			"outputs": [
				{
					"internalType": "uint256",
					"name": "",
					"type": "uint256"
				}
			],
			"stateMutability": "view",
			"type": "function"
		},
		{
			"inputs": [
				{
					"internalType": "address[14]",
					"name": "addrs",
					"type": "address[14]"
				},
				{
					"internalType": "uint256[18]",
					"name": "uints",
					"type": "uint256[18]"
				},
				{
					"internalType": "uint8[8]",
					"name": "feeMethodsSidesKindsHowToCalls",
					"type": "uint8[8]"
				},
				{
					"internalType": "bytes",
					"name": "calldataBuy",
					"type": "bytes"
				},
				{
					"internalType": "bytes",
					"name": "calldataSell",
					"type": "bytes"
				},
				{
					"internalType": "bytes",
					"name": "replacementPatternBuy",
					"type": "bytes"
				},
				{
					"internalType": "bytes",
					"name": "replacementPatternSell",
					"type": "bytes"
				},
				{
					"internalType": "bytes",
					"name": "staticExtradataBuy",
					"type": "bytes"
				},
				{
					"internalType": "bytes",
					"name": "staticExtradataSell",
					"type": "bytes"
				}
			],
			"name": "calculateMatchPrice_",
			"outputs": [
				{
					"internalType": "uint256",
					"name": "",
					"type": "uint256"
				}
			],
			"stateMutability": "view",
			"type": "function"
		},
		{
			"inputs": [
				{
					"internalType": "address[7]",
					"name": "addrs",
					"type": "address[7]"
				},
				{
					"internalType": "uint256[9]",
					"name": "uints",
					"type": "uint256[9]"
				},
				{
					"internalType": "enum Market.FeeMethod",
					"name": "feeMethod",
					"type": "uint8"
				},
				{
					"internalType": "enum Market.Side",
					"name": "side",
					"type": "uint8"
				},
				{
					"internalType": "enum Market.SaleKind",
					"name": "saleKind",
					"type": "uint8"
				},
				{
					"internalType": "enum Market.HowToCall",
					"name": "howToCall",
					"type": "uint8"
				},
				{
					"internalType": "bytes",
					"name": "callData",
					"type": "bytes"
				},
				{
					"internalType": "bytes",
					"name": "replacementPattern",
					"type": "bytes"
				},
				{
					"internalType": "bytes",
					"name": "staticExtradata",
					"type": "bytes"
				},
				{
					"internalType": "uint8",
					"name": "v",
					"type": "uint8"
				},
				{
					"internalType": "bytes32[2]",
					"name": "rs",
					"type": "bytes32[2]"
				}
			],
			"name": "cancelOrder_",
			"outputs": [],
			"stateMutability": "nonpayable",
			"type": "function"
		},
		{
			"inputs": [
				{
					"internalType": "bytes32",
					"name": "",
					"type": "bytes32"
				}
			],
			"name": "cancelledOrFinalized",
			"outputs": [
				{
					"internalType": "bool",
					"name": "",
					"type": "bool"
				}
			],
			"stateMutability": "view",
			"type": "function"
		},
		{
			"inputs": [],
			"name": "exchangeToken",
			"outputs": [
				{
					"internalType": "contract IERC20",
					"name": "",
					"type": "address"
				}
			],
			"stateMutability": "view",
			"type": "function"
		},
		{
			"inputs": [
				{
					"internalType": "bytes",
					"name": "array",
					"type": "bytes"
				},
				{
					"internalType": "bytes",
					"name": "desired",
					"type": "bytes"
				},
				{
					"internalType": "bytes",
					"name": "mask",
					"type": "bytes"
				}
			],
			"name": "guardedArrayReplace",
			"outputs": [
				{
					"internalType": "bytes",
					"name": "",
					"type": "bytes"
				}
			],
			"stateMutability": "pure",
			"type": "function"
		},
		{
			"inputs": [
				{
					"internalType": "address[7]",
					"name": "addrs",
					"type": "address[7]"
				},
				{
					"internalType": "uint256[9]",
					"name": "uints",
					"type": "uint256[9]"
				},
				{
					"internalType": "enum Market.FeeMethod",
					"name": "feeMethod",
					"type": "uint8"
				},
				{
					"internalType": "enum Market.Side",
					"name": "side",
					"type": "uint8"
				},
				{
					"internalType": "enum Market.SaleKind",
					"name": "saleKind",
					"type": "uint8"
				},
				{
					"internalType": "enum Market.HowToCall",
					"name": "howToCall",
					"type": "uint8"
				},
				{
					"internalType": "bytes",
					"name": "callData",
					"type": "bytes"
				},
				{
					"internalType": "bytes",
					"name": "replacementPattern",
					"type": "bytes"
				},
				{
					"internalType": "bytes",
					"name": "staticExtradata",
					"type": "bytes"
				}
			],
			"name": "hashToSign_",
			"outputs": [
				{
					"internalType": "bytes32",
					"name": "",
					"type": "bytes32"
				}
			],
			"stateMutability": "pure",
			"type": "function"
		},
		{
			"inputs": [],
			"name": "minimumMakerProtocolFee",
			"outputs": [
				{
					"internalType": "uint256",
					"name": "",
					"type": "uint256"
				}
			],
			"stateMutability": "view",
			"type": "function"
		},
		{
			"inputs": [],
			"name": "minimumTakerProtocolFee",
			"outputs": [
				{
					"internalType": "uint256",
					"name": "",
					"type": "uint256"
				}
			],
			"stateMutability": "view",
			"type": "function"
		},
		{
			"inputs": [],
			"name": "name",
			"outputs": [
				{
					"internalType": "string",
					"name": "",
					"type": "string"
				}
			],
			"stateMutability": "view",
			"type": "function"
		},
		{
			"inputs": [
				{
					"internalType": "bytes",
					"name": "buyCalldata",
					"type": "bytes"
				},
				{
					"internalType": "bytes",
					"name": "buyReplacementPattern",
					"type": "bytes"
				},
				{
					"internalType": "bytes",
					"name": "sellCalldata",
					"type": "bytes"
				},
				{
					"internalType": "bytes",
					"name": "sellReplacementPattern",
					"type": "bytes"
				}
			],
			"name": "orderCalldataCanMatch",
			"outputs": [
				{
					"internalType": "bool",
					"name": "",
					"type": "bool"
				}
			],
			"stateMutability": "pure",
			"type": "function"
		},
		{
			"inputs": [
				{
					"internalType": "address[14]",
					"name": "addrs",
					"type": "address[14]"
				},
				{
					"internalType": "uint256[18]",
					"name": "uints",
					"type": "uint256[18]"
				},
				{
					"internalType": "uint8[8]",
					"name": "feeMethodsSidesKindsHowToCalls",
					"type": "uint8[8]"
				},
				{
					"internalType": "bytes",
					"name": "calldataBuy",
					"type": "bytes"
				},
				{
					"internalType": "bytes",
					"name": "calldataSell",
					"type": "bytes"
				},
				{
					"internalType": "bytes",
					"name": "replacementPatternBuy",
					"type": "bytes"
				},
				{
					"internalType": "bytes",
					"name": "replacementPatternSell",
					"type": "bytes"
				},
				{
					"internalType": "bytes",
					"name": "staticExtradataBuy",
					"type": "bytes"
				},
				{
					"internalType": "bytes",
					"name": "staticExtradataSell",
					"type": "bytes"
				}
			],
			"name": "ordersCanMatch_",
			"outputs": [
				{
					"internalType": "bool",
					"name": "",
					"type": "bool"
				}
			],
			"stateMutability": "view",
			"type": "function"
		},
		{
			"inputs": [],
			"name": "owner",
			"outputs": [
				{
					"internalType": "address",
					"name": "",
					"type": "address"
				}
			],
			"stateMutability": "view",
			"type": "function"
		},
		{
			"inputs": [],
			"name": "protocolFeeRecipient",
			"outputs": [
				{
					"internalType": "address",
					"name": "",
					"type": "address"
				}
			],
			"stateMutability": "view",
			"type": "function"
		},
		{
			"inputs": [],
			"name": "registry",
			"outputs": [
				{
					"internalType": "contract ProxyRegistry",
					"name": "",
					"type": "address"
				}
			],
			"stateMutability": "view",
			"type": "function"
		},
		{
			"inputs": [],
			"name": "renounceOwnership",
			"outputs": [],
			"stateMutability": "nonpayable",
			"type": "function"
		},
		{
			"inputs": [
				{
					"internalType": "address",
					"name": "target",
					"type": "address"
				},
				{
					"internalType": "bytes",
					"name": "callData",
					"type": "bytes"
				},
				{
					"internalType": "bytes",
					"name": "extradata",
					"type": "bytes"
				}
			],
			"name": "staticCall",
			"outputs": [
				{
					"internalType": "bool",
					"name": "result",
					"type": "bool"
				}
			],
			"stateMutability": "view",
			"type": "function"
		},
		{
			"inputs": [],
			"name": "tokenTransferProxy",
			"outputs": [
				{
					"internalType": "contract TokenTransferProxy",
					"name": "",
					"type": "address"
				}
			],
			"stateMutability": "view",
			"type": "function"
		},
		{
			"inputs": [
				{
					"internalType": "address",
					"name": "newOwner",
					"type": "address"
				}
			],
			"name": "transferOwnership",
			"outputs": [],
			"stateMutability": "nonpayable",
			"type": "function"
		},
		{
			"inputs": [
				{
					"internalType": "address[7]",
					"name": "addrs",
					"type": "address[7]"
				},
				{
					"internalType": "uint256[9]",
					"name": "uints",
					"type": "uint256[9]"
				},
				{
					"internalType": "enum Market.FeeMethod",
					"name": "feeMethod",
					"type": "uint8"
				},
				{
					"internalType": "enum Market.Side",
					"name": "side",
					"type": "uint8"
				},
				{
					"internalType": "enum Market.SaleKind",
					"name": "saleKind",
					"type": "uint8"
				},
				{
					"internalType": "enum Market.HowToCall",
					"name": "howToCall",
					"type": "uint8"
				},
				{
					"internalType": "bytes",
					"name": "callData",
					"type": "bytes"
				},
				{
					"internalType": "bytes",
					"name": "replacementPattern",
					"type": "bytes"
				},
				{
					"internalType": "bytes",
					"name": "staticExtradata",
					"type": "bytes"
				}
			],
			"name": "validateOrderParameters_",
			"outputs": [
				{
					"internalType": "bool",
					"name": "",
					"type": "bool"
				}
			],
			"stateMutability": "view",
			"type": "function"
		},
		{
			"inputs": [
				{
					"internalType": "address[7]",
					"name": "addrs",
					"type": "address[7]"
				},
				{
					"internalType": "uint256[9]",
					"name": "uints",
					"type": "uint256[9]"
				},
				{
					"internalType": "enum Market.FeeMethod",
					"name": "feeMethod",
					"type": "uint8"
				},
				{
					"internalType": "enum Market.Side",
					"name": "side",
					"type": "uint8"
				},
				{
					"internalType": "enum Market.SaleKind",
					"name": "saleKind",
					"type": "uint8"
				},
				{
					"internalType": "enum Market.HowToCall",
					"name": "howToCall",
					"type": "uint8"
				},
				{
					"internalType": "bytes",
					"name": "callData",
					"type": "bytes"
				},
				{
					"internalType": "bytes",
					"name": "replacementPattern",
					"type": "bytes"
				},
				{
					"internalType": "bytes",
					"name": "staticExtradata",
					"type": "bytes"
				},
				{
					"internalType": "uint8",
					"name": "v",
					"type": "uint8"
				},
				{
					"internalType": "bytes32[2]",
					"name": "rs",
					"type": "bytes32[2]"
				}
			],
			"name": "validateOrder_",
			"outputs": [
				{
					"internalType": "bool",
					"name": "",
					"type": "bool"
				}
			],
			"stateMutability": "view",
			"type": "function"
		}
	],
	"transactionHash": "0x3482c3a70415b36c7a13c2fb0c2c15cccb12a8bb272ad21ea014b54eebaeb7df",
	"args": [
		"0x14aFCbb771B02743234aF08e7DDd8647f42A5b58",
		"0x15788dD06A9b08c09aF9d92cd6D53b1f0256C322",
		"0x5b93f7d63ce480013272b0a0090ab9ff3614c455",
		"0x00B91B2F8aFE87FCDc2b3fFA9ee2278cd1E4DDf8"
	],
	"solcInputHash": "98c15b4f3559a23f2599202e42791894",
	"bytecode": "0x6080604052600060075560006008553480156200001b57600080fd5b5060405162006157380380620061578339810160408190526200003e9162000101565b60016000556200005762000051620000ab565b620000af565b600380546001600160a01b039586166001600160a01b031991821617909155600480549486169482169490941790935560028054928516928416929092179091556009805491909316911617905562000181565b3390565b600180546001600160a01b038381166001600160a01b0319831681179093556040519116919082907f8be0079c531659141344cd1fd0a4f28419497f9722a3daafe3b4186f6b6457e090600090a35050565b6000806000806080858703121562000117578384fd5b8451620001248162000168565b6020860151909450620001378162000168565b60408601519093506200014a8162000168565b60608601519092506200015d8162000168565b939692955090935050565b6001600160a01b03811681146200017e57600080fd5b50565b615fc680620001916000396000f3fe6080604052600436106101815760003560e01c80637b103999116100d1578063a25eb5d91161008a578063cae6047f11610064578063cae6047f14610415578063d537e1311461042a578063e57d4adb1461044a578063f2fde38b1461046a57610181565b8063a25eb5d9146103cd578063ab834bab146103e2578063ca595b9a146103f557610181565b80637b1039991461032e5780637ccefc52146103435780637d766981146103585780638076f005146103785780638911ebea146103985780638da5cb5b146103b857610181565b80633f67ee0d1161013e57806364df049e1161011857806364df049e146102c4578063715018a6146102d957806372593b4c146102ee578063796668681461030e57610181565b80633f67ee0d14610264578063562b2ebc1461028457806363d36c0b146102a457610181565b806306fdde03146101865780630eefdbad146101b157806310796a47146101d3578063239e83df1461020057806328a8ee681461022057806329a03acf14610242575b600080fd5b34801561019257600080fd5b5061019b61048a565b6040516101a89190615ce3565b60405180910390f35b3480156101bd57600080fd5b506101c66104c3565b6040516101a89190615bae565b3480156101df57600080fd5b506101f36101ee3660046153b3565b6104d2565b6040516101a89190615c9b565b34801561020c57600080fd5b5061019b61021b366004615a19565b61056a565b34801561022c57600080fd5b5061023561057f565b6040516101a89190615ca6565b34801561024e57600080fd5b5061026261025d3660046158a1565b610585565b005b34801561027057600080fd5b5061023561027f3660046156ae565b610979565b34801561029057600080fd5b506101f361029f366004615a64565b610d08565b3480156102b057600080fd5b506102356102bf366004615b0b565b610d42565b3480156102d057600080fd5b506101c6610d5f565b3480156102e557600080fd5b50610262610d6e565b3480156102fa57600080fd5b506101f3610309366004615425565b610dc2565b34801561031a57600080fd5b506102626103293660046157a4565b6115c7565b34801561033a57600080fd5b506101c6611958565b34801561034f57600080fd5b50610235611967565b34801561036457600080fd5b506102356103733660046156ae565b61196d565b34801561038457600080fd5b506101f36103933660046159e9565b611ced565b3480156103a457600080fd5b506101f36103b33660046158a1565b611d02565b3480156103c457600080fd5b506101c661212b565b3480156103d957600080fd5b506101c661213a565b6102626103f0366004615550565b612149565b34801561040157600080fd5b506101f36104103660046156ae565b612a1a565b34801561042157600080fd5b50610235612d9e565b34801561043657600080fd5b50610235610445366004615425565b612da4565b34801561045657600080fd5b506101f36104653660046159e9565b613599565b34801561047657600080fd5b5061026261048536600461537b565b6135ae565b6040518060400160405280601881526020017f466f7262697473776170204e4654532045786368616e6765000000000000000081525081565b6004546001600160a01b031681565b600080825184516104e39190615e8d565b6001600160401b0381111561050857634e487b7160e01b600052604160045260246000fd5b6040519080825280601f01601f191660200182016040528015610532576020820181803683370190505b50905060208101610543818561361f565b905061054f818661361f565b506000604051835160208501895afa925050505b9392505050565b6060610577848484613662565b509192915050565b60085481565b61096b604051806102e001604052808e6000600781106105b557634e487b7160e01b600052603260045260246000fd5b60200201516001600160a01b031681526020018e6001600781106105e957634e487b7160e01b600052603260045260246000fd5b60200201516001600160a01b031681526020018e60026007811061061d57634e487b7160e01b600052603260045260246000fd5b60200201516001600160a01b031681526020018d60006009811061065157634e487b7160e01b600052603260045260246000fd5b602002015181526020018d60016009811061067c57634e487b7160e01b600052603260045260246000fd5b602002015181526020018d6002600981106106a757634e487b7160e01b600052603260045260246000fd5b602002015181526020018d6003600981106106d257634e487b7160e01b600052603260045260246000fd5b602002015181526020018e6003600781106106fd57634e487b7160e01b600052603260045260246000fd5b60200201516001600160a01b031681526020018c600181111561073057634e487b7160e01b600052602160045260246000fd5b81526020018b600181111561075557634e487b7160e01b600052602160045260246000fd5b81526020018a600181111561077a57634e487b7160e01b600052602160045260246000fd5b815260808f01516001600160a01b031660208201526040018960018111156107b257634e487b7160e01b600052602160045260246000fd5b815260200188888080601f0160208091040260200160405190810160405280939291908181526020018383808284376000920191909152505050908252506020810187905260a08f01516001600160a01b03166040820152606081018690526080018e600660200201516001600160a01b031681526020018d60046009811061084b57634e487b7160e01b600052603260045260246000fd5b602002015181526020018d60056009811061087657634e487b7160e01b600052603260045260246000fd5b602002015181526020018d6006600981106108a157634e487b7160e01b600052603260045260246000fd5b602002015181526020018d6007600981106108cc57634e487b7160e01b600052603260045260246000fd5b602002015181526020018d6008600981106108f757634e487b7160e01b600052603260045260246000fd5b602002015181525060405180606001604052808560ff1681526020018460006002811061093457634e487b7160e01b600052603260045260246000fd5b602002015181526020018460016002811061095f57634e487b7160e01b600052603260045260246000fd5b60200201519052613842565b505050505050505050505050565b6000610cf9604051806102e001604052808d6000600781106109ab57634e487b7160e01b600052603260045260246000fd5b60200201516001600160a01b031681526020018d6001600781106109df57634e487b7160e01b600052603260045260246000fd5b60200201516001600160a01b031681526020018d600260078110610a1357634e487b7160e01b600052603260045260246000fd5b60200201516001600160a01b031681526020018c600060098110610a4757634e487b7160e01b600052603260045260246000fd5b602002015181526020018c600160098110610a7257634e487b7160e01b600052603260045260246000fd5b602002015181526020018c600260098110610a9d57634e487b7160e01b600052603260045260246000fd5b602002015181526020018c600360098110610ac857634e487b7160e01b600052603260045260246000fd5b602002015181526020018d600360078110610af357634e487b7160e01b600052603260045260246000fd5b60200201516001600160a01b031681526020018b6001811115610b2657634e487b7160e01b600052602160045260246000fd5b81526020018a6001811115610b4b57634e487b7160e01b600052602160045260246000fd5b8152602001896001811115610b7057634e487b7160e01b600052602160045260246000fd5b815260808e01516001600160a01b03166020820152604001886001811115610ba857634e487b7160e01b600052602160045260246000fd5b815260200187878080601f0160208091040260200160405190810160405280939291908181526020018383808284376000920191909152505050908252506020810186905260a08e01516001600160a01b03166040820152606081018590526080018d600660200201516001600160a01b031681526020018c600460098110610c4157634e487b7160e01b600052603260045260246000fd5b602002015181526020018c600560098110610c6c57634e487b7160e01b600052603260045260246000fd5b602002015181526020018c600660098110610c9757634e487b7160e01b600052603260045260246000fd5b602002015181526020018c600760098110610cc257634e487b7160e01b600052603260045260246000fd5b602002015181526020018c600860098110610ced57634e487b7160e01b600052603260045260246000fd5b602002015190526138be565b9b9a5050505050505050505050565b825160009015610d1d57610d1d858486613662565b815115610d2f57610d2f838684613662565b610d3985846138f4565b95945050505050565b6000610d52878787878787613958565b90505b9695505050505050565b6009546001600160a01b031681565b610d76613a1d565b6001600160a01b0316610d8761212b565b6001600160a01b031614610db65760405162461bcd60e51b8152600401610dad90615dd8565b60405180910390fd5b610dc06000613a21565b565b600080604051806102e001604052808c6000600e8110610df257634e487b7160e01b600052603260045260246000fd5b60200201516001600160a01b031681526020018c6001600e8110610e2657634e487b7160e01b600052603260045260246000fd5b60200201516001600160a01b031681526020018c6002600e8110610e5a57634e487b7160e01b600052603260045260246000fd5b60200201516001600160a01b031681526020018b600060128110610e8e57634e487b7160e01b600052603260045260246000fd5b602002015181526020018b600160128110610eb957634e487b7160e01b600052603260045260246000fd5b602002015181526020018b600260128110610ee457634e487b7160e01b600052603260045260246000fd5b602002015181526020018b600360128110610f0f57634e487b7160e01b600052603260045260246000fd5b602002015181526020018c6003600e8110610f3a57634e487b7160e01b600052603260045260246000fd5b60200201516001600160a01b031681526020018a600060088110610f6e57634e487b7160e01b600052603260045260246000fd5b602002015160ff166001811115610f9557634e487b7160e01b600052602160045260246000fd5b6001811115610fb457634e487b7160e01b600052602160045260246000fd5b81526020018a6001602002015160ff166001811115610fe357634e487b7160e01b600052602160045260246000fd5b600181111561100257634e487b7160e01b600052602160045260246000fd5b81526020018a6002602002015160ff16600181111561103157634e487b7160e01b600052602160045260246000fd5b600181111561105057634e487b7160e01b600052602160045260246000fd5b815260808d01516001600160a01b031660208201526040018a6003602002015160ff16600181111561109257634e487b7160e01b600052602160045260246000fd5b60018111156110b157634e487b7160e01b600052602160045260246000fd5b8152602081018a90526040810188905260a0808e01516001600160a01b0316606083015260808201879052018c600660200201516001600160a01b031681526020018b60046012811061111457634e487b7160e01b600052603260045260246000fd5b602002015181526020018b60056012811061113f57634e487b7160e01b600052603260045260246000fd5b602002015181526020018b60066012811061116a57634e487b7160e01b600052603260045260246000fd5b602002015181526020018b60076012811061119557634e487b7160e01b600052603260045260246000fd5b602002015181526020018b6008601281106111c057634e487b7160e01b600052603260045260246000fd5b602002015181525090506000604051806102e001604052808d6007600e81106111f957634e487b7160e01b600052603260045260246000fd5b60200201516001600160a01b031681526020018d6008600e811061122d57634e487b7160e01b600052603260045260246000fd5b60200201516001600160a01b031681526020018d6009600e811061126157634e487b7160e01b600052603260045260246000fd5b60200201516001600160a01b031681526020018c60096012811061129557634e487b7160e01b600052603260045260246000fd5b602002015181526020018c600a601281106112c057634e487b7160e01b600052603260045260246000fd5b602002015181526020018c600b601281106112eb57634e487b7160e01b600052603260045260246000fd5b602002015181526020018c600c6012811061131657634e487b7160e01b600052603260045260246000fd5b602002015181526020018d600a600e811061134157634e487b7160e01b600052603260045260246000fd5b60200201516001600160a01b031681526020018b60046008811061137557634e487b7160e01b600052603260045260246000fd5b602002015160ff16600181111561139c57634e487b7160e01b600052602160045260246000fd5b60018111156113bb57634e487b7160e01b600052602160045260246000fd5b81526020018b6005602002015160ff1660018111156113ea57634e487b7160e01b600052602160045260246000fd5b600181111561140957634e487b7160e01b600052602160045260246000fd5b81526020018b6006602002015160ff16600181111561143857634e487b7160e01b600052602160045260246000fd5b600181111561145757634e487b7160e01b600052602160045260246000fd5b81526101608e01516001600160a01b031660208201526040018b6007602002015160ff16600181111561149a57634e487b7160e01b600052602160045260246000fd5b60018111156114b957634e487b7160e01b600052602160045260246000fd5b8152602081018a9052604081018890526101808e01516001600160a01b039081166060830152608082018790526101a08f01511660a082015260c0018c600d602002015181526020018c600e6012811061152357634e487b7160e01b600052603260045260246000fd5b602002015181526020018c600f6012811061154e57634e487b7160e01b600052603260045260246000fd5b602002015181526020018c60106012811061157957634e487b7160e01b600052603260045260246000fd5b602002015181526020018c6011601281106115a457634e487b7160e01b600052603260045260246000fd5b6020020151905290506115b78282613a73565b9c9b505050505050505050505050565b6000604051806102e001604052808d6000600781106115f657634e487b7160e01b600052603260045260246000fd5b60200201516001600160a01b031681526020018d60016007811061162a57634e487b7160e01b600052603260045260246000fd5b60200201516001600160a01b031681526020018d60026007811061165e57634e487b7160e01b600052603260045260246000fd5b60200201516001600160a01b031681526020018c60006009811061169257634e487b7160e01b600052603260045260246000fd5b602002015181526020018c6001600981106116bd57634e487b7160e01b600052603260045260246000fd5b602002015181526020018c6002600981106116e857634e487b7160e01b600052603260045260246000fd5b602002015181526020018c60036009811061171357634e487b7160e01b600052603260045260246000fd5b602002015181526020018d60036007811061173e57634e487b7160e01b600052603260045260246000fd5b60200201516001600160a01b031681526020018b600181111561177157634e487b7160e01b600052602160045260246000fd5b81526020018a600181111561179657634e487b7160e01b600052602160045260246000fd5b81526020018960018111156117bb57634e487b7160e01b600052602160045260246000fd5b815260808e01516001600160a01b031660208201526040018860018111156117f357634e487b7160e01b600052602160045260246000fd5b815260200187878080601f0160208091040260200160405190810160405280939291908181526020018383808284376000920191909152505050908252506020810186905260a08e01516001600160a01b03166040820152606081018590526080018d600660200201516001600160a01b031681526020018c60046009811061188c57634e487b7160e01b600052603260045260246000fd5b602002015181526020018c6005600981106118b757634e487b7160e01b600052603260045260246000fd5b602002015181526020018c6006600981106118e257634e487b7160e01b600052603260045260246000fd5b602002015181526020018c60076009811061190d57634e487b7160e01b600052603260045260246000fd5b602002015181526020018c60086009811061193857634e487b7160e01b600052603260045260246000fd5b60200201519052905061096b8183613cc5565b5050505050505050505050565b6003546001600160a01b031681565b60075481565b6000610cf9604051806102e001604052808d60006007811061199f57634e487b7160e01b600052603260045260246000fd5b60200201516001600160a01b031681526020018d6001600781106119d357634e487b7160e01b600052603260045260246000fd5b60200201516001600160a01b031681526020018d600260078110611a0757634e487b7160e01b600052603260045260246000fd5b60200201516001600160a01b031681526020018c600060098110611a3b57634e487b7160e01b600052603260045260246000fd5b602002015181526020018c600160098110611a6657634e487b7160e01b600052603260045260246000fd5b602002015181526020018c600260098110611a9157634e487b7160e01b600052603260045260246000fd5b602002015181526020018c600360098110611abc57634e487b7160e01b600052603260045260246000fd5b602002015181526020018d600360078110611ae757634e487b7160e01b600052603260045260246000fd5b60200201516001600160a01b031681526020018b6001811115611b1a57634e487b7160e01b600052602160045260246000fd5b81526020018a6001811115611b3f57634e487b7160e01b600052602160045260246000fd5b8152602001896001811115611b6457634e487b7160e01b600052602160045260246000fd5b815260808e01516001600160a01b03166020820152604001886001811115611b9c57634e487b7160e01b600052602160045260246000fd5b815260200187878080601f0160208091040260200160405190810160405280939291908181526020018383808284376000920191909152505050908252506020810186905260a08e01516001600160a01b03166040820152606081018590526080018d600660200201516001600160a01b031681526020018c600460098110611c3557634e487b7160e01b600052603260045260246000fd5b602002015181526020018c600560098110611c6057634e487b7160e01b600052603260045260246000fd5b602002015181526020018c600660098110611c8b57634e487b7160e01b600052603260045260246000fd5b602002015181526020018c600760098110611cb657634e487b7160e01b600052603260045260246000fd5b602002015181526020018c600860098110611ce157634e487b7160e01b600052603260045260246000fd5b60200201519052613e60565b60056020526000908152604090205460ff1681565b600080604051806102e001604052808f600060078110611d3257634e487b7160e01b600052603260045260246000fd5b60200201516001600160a01b031681526020018f600160078110611d6657634e487b7160e01b600052603260045260246000fd5b60200201516001600160a01b031681526020018f600260078110611d9a57634e487b7160e01b600052603260045260246000fd5b60200201516001600160a01b031681526020018e600060098110611dce57634e487b7160e01b600052603260045260246000fd5b602002015181526020018e600160098110611df957634e487b7160e01b600052603260045260246000fd5b602002015181526020018e600260098110611e2457634e487b7160e01b600052603260045260246000fd5b602002015181526020018e600360098110611e4f57634e487b7160e01b600052603260045260246000fd5b602002015181526020018f600360078110611e7a57634e487b7160e01b600052603260045260246000fd5b60200201516001600160a01b031681526020018d6001811115611ead57634e487b7160e01b600052602160045260246000fd5b81526020018c6001811115611ed257634e487b7160e01b600052602160045260246000fd5b81526020018b6001811115611ef757634e487b7160e01b600052602160045260246000fd5b81526020018f600460200201516001600160a01b031681526020018a6001811115611f3257634e487b7160e01b600052602160045260246000fd5b815260200189898080601f016020809104026020016040519081016040528093929190818152602001838380828437600092019190915250505090825250602081018890526040018f600560200201516001600160a01b031681526020018681526020018f600660078110611fb757634e487b7160e01b600052603260045260246000fd5b60200201516001600160a01b031681526020018e600460098110611feb57634e487b7160e01b600052603260045260246000fd5b602002015181526020018e60056009811061201657634e487b7160e01b600052603260045260246000fd5b602002015181526020018e60066009811061204157634e487b7160e01b600052603260045260246000fd5b602002015181526020018e60076009811061206c57634e487b7160e01b600052603260045260246000fd5b602002015181526020018e60086009811061209757634e487b7160e01b600052603260045260246000fd5b6020020151905290506121196120ac82613e60565b8260405180606001604052808860ff168152602001876000600281106120e257634e487b7160e01b600052603260045260246000fd5b602002015181526020018760016002811061210d57634e487b7160e01b600052603260045260246000fd5b60200201519052613ef1565b9e9d5050505050505050505050505050565b6001546001600160a01b031690565b6002546001600160a01b031681565b61194b604051806102e001604052808d6000600e811061217957634e487b7160e01b600052603260045260246000fd5b60200201516001600160a01b031681526020018d6001600e81106121ad57634e487b7160e01b600052603260045260246000fd5b60200201516001600160a01b031681526020018d6002600e81106121e157634e487b7160e01b600052603260045260246000fd5b60200201516001600160a01b031681526020018c60006012811061221557634e487b7160e01b600052603260045260246000fd5b602002015181526020018c60016012811061224057634e487b7160e01b600052603260045260246000fd5b602002015181526020018c60026012811061226b57634e487b7160e01b600052603260045260246000fd5b602002015181526020018c60036012811061229657634e487b7160e01b600052603260045260246000fd5b602002015181526020018d6003600e81106122c157634e487b7160e01b600052603260045260246000fd5b60200201516001600160a01b031681526020018b6000600881106122f557634e487b7160e01b600052603260045260246000fd5b602002015160ff16600181111561231c57634e487b7160e01b600052602160045260246000fd5b600181111561233b57634e487b7160e01b600052602160045260246000fd5b81526020018b6001602002015160ff16600181111561236a57634e487b7160e01b600052602160045260246000fd5b600181111561238957634e487b7160e01b600052602160045260246000fd5b81526020018b6002602002015160ff1660018111156123b857634e487b7160e01b600052602160045260246000fd5b60018111156123d757634e487b7160e01b600052602160045260246000fd5b815260808e01516001600160a01b031660208201526040018b6003602002015160ff16600181111561241957634e487b7160e01b600052602160045260246000fd5b600181111561243857634e487b7160e01b600052602160045260246000fd5b8152602081018b90526040810189905260a0808f01516001600160a01b0316606083015260808201889052018d600660200201516001600160a01b031681526020018c60046012811061249b57634e487b7160e01b600052603260045260246000fd5b602002015181526020018c6005601281106124c657634e487b7160e01b600052603260045260246000fd5b602002015181526020018c6006601281106124f157634e487b7160e01b600052603260045260246000fd5b602002015181526020018c60076012811061251c57634e487b7160e01b600052603260045260246000fd5b602002015181526020018c60086012811061254757634e487b7160e01b600052603260045260246000fd5b6020908102919091015190915260408051606081018252865160ff168152855192810192909252810184600160200201519052604080516102e08101909152808f600760200201516001600160a01b031681526020018f6008600e81106125be57634e487b7160e01b600052603260045260246000fd5b60200201516001600160a01b031681526020018f6009600e81106125f257634e487b7160e01b600052603260045260246000fd5b60200201516001600160a01b031681526020018e60096012811061262657634e487b7160e01b600052603260045260246000fd5b602002015181526020018e600a6012811061265157634e487b7160e01b600052603260045260246000fd5b602002015181526020018e600b6012811061267c57634e487b7160e01b600052603260045260246000fd5b602002015181526020018e600c601281106126a757634e487b7160e01b600052603260045260246000fd5b602002015181526020018f600a600e81106126d257634e487b7160e01b600052603260045260246000fd5b60200201516001600160a01b031681526020018d60046008811061270657634e487b7160e01b600052603260045260246000fd5b602002015160ff16600181111561272d57634e487b7160e01b600052602160045260246000fd5b600181111561274c57634e487b7160e01b600052602160045260246000fd5b81526020018d6005602002015160ff16600181111561277b57634e487b7160e01b600052602160045260246000fd5b600181111561279a57634e487b7160e01b600052602160045260246000fd5b81526020018d6006602002015160ff1660018111156127c957634e487b7160e01b600052602160045260246000fd5b60018111156127e857634e487b7160e01b600052602160045260246000fd5b81526020018f600b60200201516001600160a01b031681526020018d60076008811061282457634e487b7160e01b600052603260045260246000fd5b602002015160ff16600181111561284b57634e487b7160e01b600052602160045260246000fd5b600181111561286a57634e487b7160e01b600052602160045260246000fd5b8152602081018c9052604081018a90526060018f600c60200201516001600160a01b031681526020018781526020018f600d600e81106128ba57634e487b7160e01b600052603260045260246000fd5b60200201516001600160a01b031681526020018e600d601281106128ee57634e487b7160e01b600052603260045260246000fd5b602002015181526020018e600e6012811061291957634e487b7160e01b600052603260045260246000fd5b602002015181526020018e600f6012811061294457634e487b7160e01b600052603260045260246000fd5b602002015181526020018e60106012811061296f57634e487b7160e01b600052603260045260246000fd5b602002015181526020018e60116012811061299a57634e487b7160e01b600052603260045260246000fd5b60200201519052604080516060810190915280876001602002015160ff168152602001866002600581106129de57634e487b7160e01b600052603260045260246000fd5b6020020151815260200186600360058110612a0957634e487b7160e01b600052603260045260246000fd5b60200201519052608086015161400c565b600080604051806102e001604052808d600060078110612a4a57634e487b7160e01b600052603260045260246000fd5b60200201516001600160a01b031681526020018d600160078110612a7e57634e487b7160e01b600052603260045260246000fd5b60200201516001600160a01b031681526020018d600260078110612ab257634e487b7160e01b600052603260045260246000fd5b60200201516001600160a01b031681526020018c600060098110612ae657634e487b7160e01b600052603260045260246000fd5b602002015181526020018c600160098110612b1157634e487b7160e01b600052603260045260246000fd5b602002015181526020018c600260098110612b3c57634e487b7160e01b600052603260045260246000fd5b602002015181526020018c600360098110612b6757634e487b7160e01b600052603260045260246000fd5b602002015181526020018d600360078110612b9257634e487b7160e01b600052603260045260246000fd5b60200201516001600160a01b031681526020018b6001811115612bc557634e487b7160e01b600052602160045260246000fd5b81526020018a6001811115612bea57634e487b7160e01b600052602160045260246000fd5b8152602001896001811115612c0f57634e487b7160e01b600052602160045260246000fd5b815260808e01516001600160a01b03166020820152604001886001811115612c4757634e487b7160e01b600052602160045260246000fd5b815260200187878080601f0160208091040260200160405190810160405280939291908181526020018383808284376000920191909152505050908252506020810186905260a08e01516001600160a01b03166040820152606081018590526080018d600660200201516001600160a01b031681526020018c600460098110612ce057634e487b7160e01b600052603260045260246000fd5b602002015181526020018c600560098110612d0b57634e487b7160e01b600052603260045260246000fd5b602002015181526020018c600660098110612d3657634e487b7160e01b600052603260045260246000fd5b602002015181526020018c600760098110612d6157634e487b7160e01b600052603260045260246000fd5b602002015181526020018c600860098110612d8c57634e487b7160e01b600052603260045260246000fd5b6020020151905290506115b78161453b565b61271081565b600080604051806102e001604052808c6000600e8110612dd457634e487b7160e01b600052603260045260246000fd5b60200201516001600160a01b031681526020018c6001600e8110612e0857634e487b7160e01b600052603260045260246000fd5b60200201516001600160a01b031681526020018c6002600e8110612e3c57634e487b7160e01b600052603260045260246000fd5b60200201516001600160a01b031681526020018b600060128110612e7057634e487b7160e01b600052603260045260246000fd5b602002015181526020018b600160128110612e9b57634e487b7160e01b600052603260045260246000fd5b602002015181526020018b600260128110612ec657634e487b7160e01b600052603260045260246000fd5b602002015181526020018b600360128110612ef157634e487b7160e01b600052603260045260246000fd5b602002015181526020018c6003600e8110612f1c57634e487b7160e01b600052603260045260246000fd5b60200201516001600160a01b031681526020018a600060088110612f5057634e487b7160e01b600052603260045260246000fd5b602002015160ff166001811115612f7757634e487b7160e01b600052602160045260246000fd5b6001811115612f9657634e487b7160e01b600052602160045260246000fd5b81526020018a6001602002015160ff166001811115612fc557634e487b7160e01b600052602160045260246000fd5b6001811115612fe457634e487b7160e01b600052602160045260246000fd5b81526020018a6002602002015160ff16600181111561301357634e487b7160e01b600052602160045260246000fd5b600181111561303257634e487b7160e01b600052602160045260246000fd5b815260808d01516001600160a01b031660208201526040018a6003602002015160ff16600181111561307457634e487b7160e01b600052602160045260246000fd5b600181111561309357634e487b7160e01b600052602160045260246000fd5b8152602081018a90526040810188905260a0808e01516001600160a01b0316606083015260808201879052018c600660200201516001600160a01b031681526020018b6004601281106130f657634e487b7160e01b600052603260045260246000fd5b602002015181526020018b60056012811061312157634e487b7160e01b600052603260045260246000fd5b602002015181526020018b60066012811061314c57634e487b7160e01b600052603260045260246000fd5b602002015181526020018b60076012811061317757634e487b7160e01b600052603260045260246000fd5b602002015181526020018b6008601281106131a257634e487b7160e01b600052603260045260246000fd5b602002015181525090506000604051806102e001604052808d6007600e81106131db57634e487b7160e01b600052603260045260246000fd5b60200201516001600160a01b031681526020018d6008600e811061320f57634e487b7160e01b600052603260045260246000fd5b60200201516001600160a01b031681526020018d6009600e811061324357634e487b7160e01b600052603260045260246000fd5b60200201516001600160a01b031681526020018c60096012811061327757634e487b7160e01b600052603260045260246000fd5b602002015181526020018c600a601281106132a257634e487b7160e01b600052603260045260246000fd5b602002015181526020018c600b601281106132cd57634e487b7160e01b600052603260045260246000fd5b602002015181526020018c600c601281106132f857634e487b7160e01b600052603260045260246000fd5b602002015181526020018d600a600e811061332357634e487b7160e01b600052603260045260246000fd5b60200201516001600160a01b031681526020018b60046008811061335757634e487b7160e01b600052603260045260246000fd5b602002015160ff16600181111561337e57634e487b7160e01b600052602160045260246000fd5b600181111561339d57634e487b7160e01b600052602160045260246000fd5b81526020018b6005602002015160ff1660018111156133cc57634e487b7160e01b600052602160045260246000fd5b60018111156133eb57634e487b7160e01b600052602160045260246000fd5b81526020018b6006602002015160ff16600181111561341a57634e487b7160e01b600052602160045260246000fd5b600181111561343957634e487b7160e01b600052602160045260246000fd5b81526101608e01516001600160a01b031660208201526040018b6007602002015160ff16600181111561347c57634e487b7160e01b600052602160045260246000fd5b600181111561349b57634e487b7160e01b600052602160045260246000fd5b8152602081018a9052604081018890526101808e01516001600160a01b039081166060830152608082018790526101a08f01511660a082015260c0018c600d602002015181526020018c600e6012811061350557634e487b7160e01b600052603260045260246000fd5b602002015181526020018c600f6012811061353057634e487b7160e01b600052603260045260246000fd5b602002015181526020018c60106012811061355b57634e487b7160e01b600052603260045260246000fd5b602002015181526020018c60116012811061358657634e487b7160e01b600052603260045260246000fd5b6020020151905290506115b782826145d4565b60066020526000908152604090205460ff1681565b6135b6613a1d565b6001600160a01b03166135c761212b565b6001600160a01b0316146135ed5760405162461bcd60e51b8152600401610dad90615dd8565b6001600160a01b0381166136135760405162461bcd60e51b8152600401610dad90615d92565b61361c81613a21565b50565b80516000901561365b57815180602001830160208401855b60018383101415613652578151815260209182019101613637565b50505092909201915b5090919050565b815183511461367057600080fd5b805183511461367e57600080fd5b60006020845161368e9190615ea5565b9050600061369d826020615ec5565b9050816136ab602083615ea5565b146136c657634e487b7160e01b600052600160045260246000fd5b60005b82811015613703578060010160200280850151818701518116828901518219161782890152505080806136fb90615efb565b9150506136c9565b8215613730578290508060010160200280850151818701518116828901518219161782890152505061383a565b50805b855181101561383a5784818151811061375c57634e487b7160e01b600052603260045260246000fd5b602001015160f81c60f81b84828151811061378757634e487b7160e01b600052603260045260246000fd5b602001015160f81c60f81b168682815181106137b357634e487b7160e01b600052603260045260246000fd5b602001015160f81c60f81b8583815181106137de57634e487b7160e01b600052603260045260246000fd5b602001015160f81c60f81b60ff60f81b18161786828151811061381157634e487b7160e01b600052603260045260246000fd5b60200101906001600160f81b031916908160001a9053508061383281615efb565b915050613733565b505050505050565b600061384e8383614662565b905082602001516001600160a01b0316613866613a1d565b6001600160a01b03161461387957600080fd5b600081815260056020526040808220805460ff191660011790555182917f5152abf959f6564662358c2e52b702259b78bac5ee7842a0f01937e670efcc7d91a2505050565b60006138ec826101200151836101400151846102400151856102600151866102800151876102a00151613958565b90505b919050565b815181516000916001918114808314613910576000925061394e565b600160208701838101602088015b60028483851001141561394957805183511461393d5760009650600093505b6020928301920161391e565b505050505b5090949350505050565b60008086600181111561397b57634e487b7160e01b600052602160045260246000fd5b1415613988575083610d55565b60018660018111156139aa57634e487b7160e01b600052602160045260246000fd5b1415610d555760006139d76139c8866139c34288614684565b614690565b6139d28587614684565b61469c565b905060018860018111156139fb57634e487b7160e01b600052602160045260246000fd5b1415613a1357613a0b8682614684565b915050610d55565b613a0b86826146a8565b3390565b600180546001600160a01b038381166001600160a01b0319831681179093556040519116919082907f8be0079c531659141344cd1fd0a4f28419497f9722a3daafe3b4186f6b6457e090600090a35050565b6000808361012001516001811115613a9b57634e487b7160e01b600052602160045260246000fd5b148015613acc575060018261012001516001811115613aca57634e487b7160e01b600052602160045260246000fd5b145b8015613b1f57508161010001516001811115613af857634e487b7160e01b600052602160045260246000fd5b8361010001516001811115613b1d57634e487b7160e01b600052602160045260246000fd5b145b8015613b4657508161022001516001600160a01b03168361022001516001600160a01b0316145b8015613b80575060408201516001600160a01b03161580613b80575082602001516001600160a01b031682604001516001600160a01b0316145b8015613bba575060408301516001600160a01b03161580613bba575081602001516001600160a01b031683604001516001600160a01b0316145b8015613c15575060e08201516001600160a01b0316158015613be8575060e08301516001600160a01b031615155b80613c15575060e08201516001600160a01b031615801590613c15575060e08301516001600160a01b0316155b8015613c3c57508161016001516001600160a01b03168361016001516001600160a01b0316145b8015613c8f57508161018001516001811115613c6857634e487b7160e01b600052602160045260246000fd5b8361018001516001811115613c8d57634e487b7160e01b600052602160045260246000fd5b145b8015613caa5750613caa836102800151846102a001516146b4565b80156105635750610563826102800151836102a001516146b4565b81602001516001600160a01b0316613cdb613a1d565b6001600160a01b031614613cee57600080fd5b6000613cf983613e60565b60008181526006602052604090205490915060ff1615613d1857600080fd5b60016006600083815260200190815260200160002060006101000a81548160ff0219169083151502179055508260e001516001600160a01b031683602001516001600160a01b0316827f90c7f9f5b58c15f0f635bfb99f55d3d78fdbef3559e7d8abf5c81052a527662286600001518760400151886060015189608001518a60a001518b60c001518c61010001518d61012001518e61014001518f6101600151604051613dce9a99989796959493929190615bec565b60405180910390a4807fe55393c778364e440d958b39ac1debd99dcfae3775a8a04d1e79124adf6a2d08846101800151856101a00151866101c00151876101e001518861020001518961022001518a61024001518b61026001518c61028001518d6102a001518e6102c001518e604051613e539c9b9a99989796959493929190615cf6565b60405180910390a2505050565b6000735644E2feD299C6Caa1a6d90e8b57b58cC7aA1a0263918a15cf613e85846146d0565b6040518263ffffffff1660e01b8152600401613ea19190615ca6565b60206040518083038186803b158015613eb957600080fd5b505af4158015613ecd573d6000803e3d6000fd5b505050506040513d601f19601f820116820180604052508101906138ec9190615a01565b6000613efc8361453b565b613f0857506000610563565b60008481526005602052604090205460ff1615613f2757506000610563565b60008481526006602052604090205460ff1615613f4657506001610563565b6020808401518351918401516040808601519051630c2bf17b60e41b81526001600160a01b0390931693735644E2feD299C6Caa1a6d90e8b57b58cC7aA1a029363c2bf17b093613f9b938b9392600401615cc5565b60206040518083038186803b158015613fb357600080fd5b505af4158015613fc7573d6000803e3d6000fd5b505050506040513d601f19601f82011682018060405250810190613feb9190615397565b6001600160a01b0316141561400257506001610563565b5060009392505050565b6002600054141561402f5760405162461bcd60e51b8152600401610dad90615e0d565b6002600090815561403e613a1d565b6001600160a01b031686602001516001600160a01b03161415614072576140648661453b565b61406d57600080fd5b61407f565b61407c8686614662565b90505b6000614089613a1d565b6001600160a01b031685602001516001600160a01b031614156140bd576140af8561453b565b6140b857600080fd5b6140ca565b6140c78585614662565b90505b6140d48786613a73565b6140dd57600080fd5b610160850151803b90816140f057600080fd5b6101c0890151511561411657614116896101a00151886101a001518b6101c00151613662565b6101c0870151511561413c5761413c876101a001518a6101a00151896101c00151613662565b614150896101a00151886101a001516138f4565b61415957600080fd5b600354602088015160405163c455279160e01b81526000926001600160a01b03169163c45527919161418e9190600401615bae565b60206040518083038186803b1580156141a657600080fd5b505afa1580156141ba573d6000803e3d6000fd5b505050506040513d601f19601f820116820180604052508101906141de9190615397565b90506001600160a01b0381166141f357600080fd5b600360009054906101000a90046001600160a01b03166001600160a01b03166397204d8e6040518163ffffffff1660e01b815260040160206040518083038186803b15801561424157600080fd5b505afa158015614255573d6000803e3d6000fd5b505050506040513d601f19601f820116820180604052508101906142799190615397565b6001600160a01b0316816001600160a01b0316635c60da1b6040518163ffffffff1660e01b815260040160206040518083038186803b1580156142bb57600080fd5b505afa1580156142cf573d6000803e3d6000fd5b505050506040513d601f19601f820116820180604052508101906142f39190615397565b6001600160a01b03161461430657600080fd5b60208a015181906001600160a01b031661431e613a1d565b6001600160a01b031614614346576000868152600560205260409020805460ff191660011790555b88602001516001600160a01b031661435c613a1d565b6001600160a01b031614614384576000858152600560205260409020805460ff191660011790555b60006143908c8b61492e565b9050816001600160a01b0316631b0f7ba98b61016001518c61018001518d6101a001516040518463ffffffff1660e01b81526004016143d193929190615c6a565b602060405180830381600087803b1580156143eb57600080fd5b505af11580156143ff573d6000803e3d6000fd5b505050506040513d601f19601f8201168201806040525081019061442391906159cd565b61442c57600080fd5b6101e08c01516001600160a01b0316156144635761445a8c6101e001518b6101a001518e61020001516104d2565b61446357600080fd5b6101e08a01516001600160a01b03161561449a576144918a6101e001518b6101a001518c61020001516104d2565b61449a57600080fd5b60e08a015188906001600160a01b03166144b8578a602001516144be565b8c602001515b60e08c01516001600160a01b0391821691166144de578d602001516144e4565b8b602001515b6001600160a01b03167fc4109843e0b7d514e4c093114b863f8e7d8d9a458c372cd51bfe526b588006c98a8a8660405161452093929190615caf565b60405180910390a45050600160005550505050505050505050565b80516000906001600160a01b03163014614557575060006138ef565b61456b826101400151836102a00151614f1b565b614577575060006138ef565b6001826101000151600181111561459e57634e487b7160e01b600052602160045260246000fd5b1480156145bf57506007548260a0015110806145bf57506008548260c00151105b156145cc575060006138ef565b506001919050565b600080614603836101200151846101400151856102400151866102600151876102800151886102a00151613958565b905060006146338561012001518661014001518761024001518861026001518961028001518a6102a00151613958565b90508181101561464257600080fd5b60e08401516001600160a01b031661465a5780610d39565b509392505050565b60008061466e84613e60565b905061467b818585613ef1565b61056357600080fd5b60006105638284615ee4565b60006105638284615ec5565b60006105638284615ea5565b60006105638284615e8d565b6000428310801561056357508115806105635750504210919050565b6000806146dc83614f4d565b90506000816001600160401b0381111561470657634e487b7160e01b600052604160045260246000fd5b6040519080825280601f01601f191660200182016040528015614730576020820181803683370190505b5084519091506020820190614746908290614f85565b9050614756818660200151614f85565b9050614766818660400151614f85565b9050614776818660600151614f9f565b9050614786818660800151614f9f565b9050614796818660a00151614f9f565b90506147a6818660c00151614f9f565b90506147b6818660e00151614f85565b90506147e68186610100015160018111156147e157634e487b7160e01b600052602160045260246000fd5b614fa7565b90506148118186610120015160018111156147e157634e487b7160e01b600052602160045260246000fd5b905061483c8186610140015160018111156147e157634e487b7160e01b600052602160045260246000fd5b905061484d81866101600151614f85565b90506148788186610180015160018111156147e157634e487b7160e01b600052602160045260246000fd5b905061488981866101a0015161361f565b905061489a81866101c0015161361f565b90506148ab81866101e00151614f85565b90506148bc8186610200015161361f565b90506148cd81866102200151614f85565b90506148de81866102400151614f9f565b90506148ef81866102600151614f9f565b905061490081866102800151614f9f565b905061491181866102a00151614f9f565b905061492281866102c00151614f9f565b50506020012092915050565b6102208101516000906001600160a01b03161561495057341561495057600080fd5b600061495c84846145d4565b905060008111801561497b57506102208301516001600160a01b031615155b15614999576149998361022001518560200151856020015184614fb4565b60e0830151819081906001600160a01b031615614cd7578560800151856080015111156149c557600080fd5b600185610100015160018111156149ec57634e487b7160e01b600052602160045260246000fd5b1415614c90578560c001518560c001511115614a0757600080fd5b606085015115614aaa576000614a2c614a24876060015186614690565b61271061469c565b6102208701519091506001600160a01b0316614a8f57614a4c8382614684565b60e08701516040519194506001600160a01b03169082156108fc029083906000818181858888f19350505050158015614a89573d6000803e3d6000fd5b50614aa8565b614aa886610220015187602001518860e0015184614fb4565b505b608085015115614b45576000614ac7614a24876080015186614690565b6102208701519091506001600160a01b0316614b2a57614ae782826146a8565b60e08701516040519193506001600160a01b03169082156108fc029083906000818181858888f19350505050158015614b24573d6000803e3d6000fd5b50614b43565b614b4386610220015188602001518860e0015184614fb4565b505b60a085015115614be8576000614b62614a248760a0015186614690565b6102208701519091506001600160a01b0316614bc357614b828382614684565b6009546040519194506001600160a01b03169082156108fc029083906000818181858888f19350505050158015614bbd573d6000803e3d6000fd5b50614be6565b6102208601516020870151600954614be69291906001600160a01b031684614fb4565b505b60c085015115614c8b576000614c05614a248760c0015186614690565b6102208701519091506001600160a01b0316614c6657614c2582826146a8565b6009546040519193506001600160a01b03169082156108fc029083906000818181858888f19350505050158015614c60573d6000803e3d6000fd5b50614c89565b6102208601516020880151600954614c899291906001600160a01b031684614fb4565b505b614cd2565b606085015115614cb157614cb185602001518660e001518760600151615050565b608085015115614cd257614cd286602001518660e001518760800151615050565b614e5f565b846080015186608001511115614cec57600080fd5b60018561010001516001811115614d1357634e487b7160e01b600052602160045260246000fd5b1415614e1d576102208501516001600160a01b0316614d3157600080fd5b8460c001518660c001511115614d4657600080fd5b606086015115614d7957614d7985610220015187602001518860e00151614d74614a248b6060015189614690565b614fb4565b608086015115614da757614da785610220015186602001518860e00151614d74614a248b6080015189614690565b60a086015115614de257610220850151602087015160095460a0890151614de29392916001600160a01b031690614d7490614a249089614690565b60c086015115614cd257610220850151602086015160095460c0890151614cd29392916001600160a01b031690614d7490614a249089614690565b606086015115614e3e57614e3e86602001518760e001518860600151615050565b608086015115614e5f57614e5f85602001518760e001518860800151615050565b6102208501516001600160a01b031661394e5780341015614e7f57600080fd5b84602001516001600160a01b03166108fc839081150290604051600060405180830381858888f19350505050158015614ebc573d6000803e3d6000fd5b506000614ec93483614684565b90508015614f105786602001516001600160a01b03166108fc829081150290604051600060405180830381858888f19350505050158015614f0e573d6000803e3d6000fd5b505b505090949350505050565b600080836001811115614f3e57634e487b7160e01b600052602160045260246000fd5b14806105635750501515919050565b600081610200015151826101c0015151836101a00151516101b0614f719190615e8d565b614f7b9190615e8d565b6138ec9190615e8d565b60601b6bffffffffffffffffffffffff1916815260140190565b815260200190565b6000818353505060010190565b801561504a5760048054604051630aed65f560e11b81526001600160a01b03909116916315dacbea91614fef91889188918891889101615bc2565b602060405180830381600087803b15801561500957600080fd5b505af115801561501d573d6000803e3d6000fd5b505050506040513d601f19601f8201168201806040525081019061504191906159cd565b61504a57600080fd5b50505050565b600254615068906001600160a01b0316848484614fb4565b505050565b600061508061507b84615e6d565b615e44565b905080826020868187028601111561509757600080fd5b60005b868110156150b65782358452928101929181019160010161509a565b505050509392505050565b60006150cf61507b84615e6d565b90508082602086818702860111156150e657600080fd5b60005b868110156150b6576150fa8361536a565b845292810192918101916001016150e9565b600082601f83011261511c578081fd5b6040516101c08082018281106001600160401b038211171561514057615140615f2c565b6040528184828101871015615153578485fd5b8492505b600e83101561518057803561516b81615f60565b82526001929092019160209182019101615157565b509195945050505050565b600082601f83011261519b578081fd5b60405160e081018181106001600160401b03821117156151bd576151bd615f2c565b604052808360e081018610156151d1578384fd5b835b60078110156151805781356151e781615f60565b835260209283019291909101906001016151d3565b600082601f83011261520c578081fd5b6105638360028461506d565b600082601f830112615228578081fd5b6105638360058461506d565b600082601f830112615244578081fd5b6105638360128461506d565b600082601f830112615260578081fd5b6105638360098461506d565b600082601f83011261527c578081fd5b610563836002846150c1565b600082601f830112615298578081fd5b610563836008846150c1565b80356138ef81615f75565b60008083601f8401126152c0578182fd5b5081356001600160401b038111156152d6578182fd5b6020830191508360208285010111156152ee57600080fd5b9250929050565b600082601f830112615305578081fd5b81356001600160401b0381111561531e5761531e615f2c565b615331601f8201601f1916602001615e44565b818152846020838601011115615345578283fd5b816020850160208301379081016020019190915292915050565b80356138ef81615f83565b803560ff811681146138ef57600080fd5b60006020828403121561538c578081fd5b813561056381615f60565b6000602082840312156153a8578081fd5b815161056381615f60565b6000806000606084860312156153c7578182fd5b83356153d281615f60565b925060208401356001600160401b03808211156153ed578384fd5b6153f9878388016152f5565b9350604086013591508082111561540e578283fd5b5061541b868287016152f5565b9150509250925092565b60008060008060008060008060006105c08a8c031215615443578687fd5b61544d8b8b61510c565b985061545d8b6101c08c01615234565b975061546d8b6104008c01615288565b96506105008a01356001600160401b0380821115615489578687fd5b6154958d838e016152f5565b97506105208c01359150808211156154ab578687fd5b6154b78d838e016152f5565b96506105408c01359150808211156154cd578586fd5b6154d98d838e016152f5565b95506105608c01359150808211156154ef578485fd5b6154fb8d838e016152f5565b94506105808c0135915080821115615511578384fd5b61551d8d838e016152f5565b93506105a08c0135915080821115615533578283fd5b506155408c828d016152f5565b9150509295985092959850929598565b60008060008060008060008060008060006106a08c8e031215615571578485fd5b61557b8d8d61510c565b9a5061558b8d6101c08e01615234565b995061559b8d6104008e01615288565b98506001600160401b03806105008e013511156155b6578586fd5b6155c78e6105008f01358f016152f5565b9850806105208e013511156155da578586fd5b6155eb8e6105208f01358f016152f5565b9750806105408e013511156155fe578586fd5b61560f8e6105408f01358f016152f5565b9650806105608e01351115615622578586fd5b6156338e6105608f01358f016152f5565b9550806105808e01351115615646578283fd5b6156578e6105808f01358f016152f5565b9450806105a08e0135111561566a578283fd5b5061567c8d6105a08e01358e016152f5565b925061568c8d6105c08e0161526c565b915061569c8d6106008e01615218565b90509295989b509295989b9093969950565b6000806000806000806000806000806102e08b8d0312156156cd578384fd5b6156d78c8c61518b565b99506156e68c60e08d01615250565b98506156f56102008c0161535f565b97506157046102208c0161535f565b96506157136102408c0161535f565b95506157226102608c0161535f565b94506102808b01356001600160401b038082111561573e578586fd5b61574a8e838f016152af565b90965094506102a08d0135915080821115615763578384fd5b61576f8e838f016152f5565b93506102c08d0135915080821115615785578283fd5b506157928d828e016152f5565b9150509295989b9194979a5092959850565b60008060008060008060008060008060006103008c8e0312156157c5578485fd5b6157cf8d8d61518b565b9a506157de8d60e08e01615250565b99506157ed6102008d0161535f565b98506157fc6102208d0161535f565b975061580b6102408d0161535f565b965061581a6102608d0161535f565b95506001600160401b03806102808e01351115615835578586fd5b6158468e6102808f01358f016152af565b90965094506102a08d013581101561585c578182fd5b61586d8e6102a08f01358f016152f5565b9350806102c08e01351115615880578182fd5b506158928d6102c08e01358e016152f5565b915061569c6102e08d016152a4565b6000806000806000806000806000806000806103408d8f0312156158c3578586fd5b6158cd8e8e61518b565b9b506158dc8e60e08f01615250565b9a506158eb6102008e0161535f565b99506158fa6102208e0161535f565b98506159096102408e0161535f565b97506159186102608e0161535f565b96506001600160401b036102808e01351115615932578586fd5b6159438e6102808f01358f016152af565b90965094506001600160401b036102a08e01351115615960578081fd5b6159718e6102a08f01358f016152f5565b93506001600160401b036102c08e0135111561598b578081fd5b61599c8e6102c08f01358f016152f5565b92506159ab6102e08e0161536a565b91506159bb8e6103008f016151fc565b90509295989b509295989b509295989b565b6000602082840312156159de578081fd5b815161056381615f75565b6000602082840312156159fa578081fd5b5035919050565b600060208284031215615a12578081fd5b5051919050565b600080600060608486031215615a2d578081fd5b83356001600160401b0380821115615a43578283fd5b615a4f878388016152f5565b945060208601359150808211156153ed578283fd5b60008060008060808587031215615a79578182fd5b84356001600160401b0380821115615a8f578384fd5b615a9b888389016152f5565b95506020870135915080821115615ab0578384fd5b615abc888389016152f5565b94506040870135915080821115615ad1578384fd5b615add888389016152f5565b93506060870135915080821115615af2578283fd5b50615aff878288016152f5565b91505092959194509250565b60008060008060008060c08789031215615b23578384fd5b8635615b2e81615f83565b95506020870135615b3e81615f83565b95989597505050506040840135936060810135936080820135935060a0909101359150565b60008151808452815b81811015615b8857602081850181015186830182015201615b6c565b81811115615b995782602083870101525b50601f01601f19169290920160200192915050565b6001600160a01b0391909116815260200190565b6001600160a01b039485168152928416602084015292166040820152606081019190915260800190565b6001600160a01b038b811682528a81166020830152604082018a9052606082018990526080820188905260a08201879052610140820190615c2c87615f42565b8660c0840152615c3b86615f42565b8560e0840152615c4a85615f42565b84610100840152808416610120840152509b9a5050505050505050505050565b6001600160a01b03841681526000615c8184615f42565b83602083015260606040830152610d396060830184615b63565b901515815260200190565b90815260200190565b9283526020830191909152604082015260600190565b93845260ff9290921660208401526040830152606082015260800190565b6000602082526105636020830184615b63565b6000610180615d048f615f42565b8e8352806020840152615d198184018f615b63565b90508281036040840152615d2d818e615b63565b6001600160a01b038d811660608601528482036080860152909150615d52828d615b63565b9a1660a0840152505060c081019690965260e086019490945261010085019290925261012084015261014083015215156101609091015295945050505050565b60208082526026908201527f4f776e61626c653a206e6577206f776e657220697320746865207a65726f206160408201526564647265737360d01b606082015260800190565b6020808252818101527f4f776e61626c653a2063616c6c6572206973206e6f7420746865206f776e6572604082015260600190565b6020808252601f908201527f5265656e7472616e637947756172643a207265656e7472616e742063616c6c00604082015260600190565b6040518181016001600160401b0381118282101715615e6557615e65615f2c565b604052919050565b60006001600160401b03821115615e8657615e86615f2c565b5060200290565b60008219821115615ea057615ea0615f16565b500190565b600082615ec057634e487b7160e01b81526012600452602481fd5b500490565b6000816000190483118215151615615edf57615edf615f16565b500290565b600082821015615ef657615ef6615f16565b500390565b6000600019821415615f0f57615f0f615f16565b5060010190565b634e487b7160e01b600052601160045260246000fd5b634e487b7160e01b600052604160045260246000fd5b6002811061361c57634e487b7160e01b600052602160045260246000fd5b6001600160a01b038116811461361c57600080fd5b801515811461361c57600080fd5b6002811061361c57600080fdfea264697066735822122001c698960337a7181213d266ccd77af6fc230d5f38f6fa3f9b1c897ca6abc8ea64736f6c63430008000033",
	"deployedBytecode": "0x6080604052600436106101815760003560e01c80637b103999116100d1578063a25eb5d91161008a578063cae6047f11610064578063cae6047f14610415578063d537e1311461042a578063e57d4adb1461044a578063f2fde38b1461046a57610181565b8063a25eb5d9146103cd578063ab834bab146103e2578063ca595b9a146103f557610181565b80637b1039991461032e5780637ccefc52146103435780637d766981146103585780638076f005146103785780638911ebea146103985780638da5cb5b146103b857610181565b80633f67ee0d1161013e57806364df049e1161011857806364df049e146102c4578063715018a6146102d957806372593b4c146102ee578063796668681461030e57610181565b80633f67ee0d14610264578063562b2ebc1461028457806363d36c0b146102a457610181565b806306fdde03146101865780630eefdbad146101b157806310796a47146101d3578063239e83df1461020057806328a8ee681461022057806329a03acf14610242575b600080fd5b34801561019257600080fd5b5061019b61048a565b6040516101a89190615ce3565b60405180910390f35b3480156101bd57600080fd5b506101c66104c3565b6040516101a89190615bae565b3480156101df57600080fd5b506101f36101ee3660046153b3565b6104d2565b6040516101a89190615c9b565b34801561020c57600080fd5b5061019b61021b366004615a19565b61056a565b34801561022c57600080fd5b5061023561057f565b6040516101a89190615ca6565b34801561024e57600080fd5b5061026261025d3660046158a1565b610585565b005b34801561027057600080fd5b5061023561027f3660046156ae565b610979565b34801561029057600080fd5b506101f361029f366004615a64565b610d08565b3480156102b057600080fd5b506102356102bf366004615b0b565b610d42565b3480156102d057600080fd5b506101c6610d5f565b3480156102e557600080fd5b50610262610d6e565b3480156102fa57600080fd5b506101f3610309366004615425565b610dc2565b34801561031a57600080fd5b506102626103293660046157a4565b6115c7565b34801561033a57600080fd5b506101c6611958565b34801561034f57600080fd5b50610235611967565b34801561036457600080fd5b506102356103733660046156ae565b61196d565b34801561038457600080fd5b506101f36103933660046159e9565b611ced565b3480156103a457600080fd5b506101f36103b33660046158a1565b611d02565b3480156103c457600080fd5b506101c661212b565b3480156103d957600080fd5b506101c661213a565b6102626103f0366004615550565b612149565b34801561040157600080fd5b506101f36104103660046156ae565b612a1a565b34801561042157600080fd5b50610235612d9e565b34801561043657600080fd5b50610235610445366004615425565b612da4565b34801561045657600080fd5b506101f36104653660046159e9565b613599565b34801561047657600080fd5b5061026261048536600461537b565b6135ae565b6040518060400160405280601881526020017f466f7262697473776170204e4654532045786368616e6765000000000000000081525081565b6004546001600160a01b031681565b600080825184516104e39190615e8d565b6001600160401b0381111561050857634e487b7160e01b600052604160045260246000fd5b6040519080825280601f01601f191660200182016040528015610532576020820181803683370190505b50905060208101610543818561361f565b905061054f818661361f565b506000604051835160208501895afa925050505b9392505050565b6060610577848484613662565b509192915050565b60085481565b61096b604051806102e001604052808e6000600781106105b557634e487b7160e01b600052603260045260246000fd5b60200201516001600160a01b031681526020018e6001600781106105e957634e487b7160e01b600052603260045260246000fd5b60200201516001600160a01b031681526020018e60026007811061061d57634e487b7160e01b600052603260045260246000fd5b60200201516001600160a01b031681526020018d60006009811061065157634e487b7160e01b600052603260045260246000fd5b602002015181526020018d60016009811061067c57634e487b7160e01b600052603260045260246000fd5b602002015181526020018d6002600981106106a757634e487b7160e01b600052603260045260246000fd5b602002015181526020018d6003600981106106d257634e487b7160e01b600052603260045260246000fd5b602002015181526020018e6003600781106106fd57634e487b7160e01b600052603260045260246000fd5b60200201516001600160a01b031681526020018c600181111561073057634e487b7160e01b600052602160045260246000fd5b81526020018b600181111561075557634e487b7160e01b600052602160045260246000fd5b81526020018a600181111561077a57634e487b7160e01b600052602160045260246000fd5b815260808f01516001600160a01b031660208201526040018960018111156107b257634e487b7160e01b600052602160045260246000fd5b815260200188888080601f0160208091040260200160405190810160405280939291908181526020018383808284376000920191909152505050908252506020810187905260a08f01516001600160a01b03166040820152606081018690526080018e600660200201516001600160a01b031681526020018d60046009811061084b57634e487b7160e01b600052603260045260246000fd5b602002015181526020018d60056009811061087657634e487b7160e01b600052603260045260246000fd5b602002015181526020018d6006600981106108a157634e487b7160e01b600052603260045260246000fd5b602002015181526020018d6007600981106108cc57634e487b7160e01b600052603260045260246000fd5b602002015181526020018d6008600981106108f757634e487b7160e01b600052603260045260246000fd5b602002015181525060405180606001604052808560ff1681526020018460006002811061093457634e487b7160e01b600052603260045260246000fd5b602002015181526020018460016002811061095f57634e487b7160e01b600052603260045260246000fd5b60200201519052613842565b505050505050505050505050565b6000610cf9604051806102e001604052808d6000600781106109ab57634e487b7160e01b600052603260045260246000fd5b60200201516001600160a01b031681526020018d6001600781106109df57634e487b7160e01b600052603260045260246000fd5b60200201516001600160a01b031681526020018d600260078110610a1357634e487b7160e01b600052603260045260246000fd5b60200201516001600160a01b031681526020018c600060098110610a4757634e487b7160e01b600052603260045260246000fd5b602002015181526020018c600160098110610a7257634e487b7160e01b600052603260045260246000fd5b602002015181526020018c600260098110610a9d57634e487b7160e01b600052603260045260246000fd5b602002015181526020018c600360098110610ac857634e487b7160e01b600052603260045260246000fd5b602002015181526020018d600360078110610af357634e487b7160e01b600052603260045260246000fd5b60200201516001600160a01b031681526020018b6001811115610b2657634e487b7160e01b600052602160045260246000fd5b81526020018a6001811115610b4b57634e487b7160e01b600052602160045260246000fd5b8152602001896001811115610b7057634e487b7160e01b600052602160045260246000fd5b815260808e01516001600160a01b03166020820152604001886001811115610ba857634e487b7160e01b600052602160045260246000fd5b815260200187878080601f0160208091040260200160405190810160405280939291908181526020018383808284376000920191909152505050908252506020810186905260a08e01516001600160a01b03166040820152606081018590526080018d600660200201516001600160a01b031681526020018c600460098110610c4157634e487b7160e01b600052603260045260246000fd5b602002015181526020018c600560098110610c6c57634e487b7160e01b600052603260045260246000fd5b602002015181526020018c600660098110610c9757634e487b7160e01b600052603260045260246000fd5b602002015181526020018c600760098110610cc257634e487b7160e01b600052603260045260246000fd5b602002015181526020018c600860098110610ced57634e487b7160e01b600052603260045260246000fd5b602002015190526138be565b9b9a5050505050505050505050565b825160009015610d1d57610d1d858486613662565b815115610d2f57610d2f838684613662565b610d3985846138f4565b95945050505050565b6000610d52878787878787613958565b90505b9695505050505050565b6009546001600160a01b031681565b610d76613a1d565b6001600160a01b0316610d8761212b565b6001600160a01b031614610db65760405162461bcd60e51b8152600401610dad90615dd8565b60405180910390fd5b610dc06000613a21565b565b600080604051806102e001604052808c6000600e8110610df257634e487b7160e01b600052603260045260246000fd5b60200201516001600160a01b031681526020018c6001600e8110610e2657634e487b7160e01b600052603260045260246000fd5b60200201516001600160a01b031681526020018c6002600e8110610e5a57634e487b7160e01b600052603260045260246000fd5b60200201516001600160a01b031681526020018b600060128110610e8e57634e487b7160e01b600052603260045260246000fd5b602002015181526020018b600160128110610eb957634e487b7160e01b600052603260045260246000fd5b602002015181526020018b600260128110610ee457634e487b7160e01b600052603260045260246000fd5b602002015181526020018b600360128110610f0f57634e487b7160e01b600052603260045260246000fd5b602002015181526020018c6003600e8110610f3a57634e487b7160e01b600052603260045260246000fd5b60200201516001600160a01b031681526020018a600060088110610f6e57634e487b7160e01b600052603260045260246000fd5b602002015160ff166001811115610f9557634e487b7160e01b600052602160045260246000fd5b6001811115610fb457634e487b7160e01b600052602160045260246000fd5b81526020018a6001602002015160ff166001811115610fe357634e487b7160e01b600052602160045260246000fd5b600181111561100257634e487b7160e01b600052602160045260246000fd5b81526020018a6002602002015160ff16600181111561103157634e487b7160e01b600052602160045260246000fd5b600181111561105057634e487b7160e01b600052602160045260246000fd5b815260808d01516001600160a01b031660208201526040018a6003602002015160ff16600181111561109257634e487b7160e01b600052602160045260246000fd5b60018111156110b157634e487b7160e01b600052602160045260246000fd5b8152602081018a90526040810188905260a0808e01516001600160a01b0316606083015260808201879052018c600660200201516001600160a01b031681526020018b60046012811061111457634e487b7160e01b600052603260045260246000fd5b602002015181526020018b60056012811061113f57634e487b7160e01b600052603260045260246000fd5b602002015181526020018b60066012811061116a57634e487b7160e01b600052603260045260246000fd5b602002015181526020018b60076012811061119557634e487b7160e01b600052603260045260246000fd5b602002015181526020018b6008601281106111c057634e487b7160e01b600052603260045260246000fd5b602002015181525090506000604051806102e001604052808d6007600e81106111f957634e487b7160e01b600052603260045260246000fd5b60200201516001600160a01b031681526020018d6008600e811061122d57634e487b7160e01b600052603260045260246000fd5b60200201516001600160a01b031681526020018d6009600e811061126157634e487b7160e01b600052603260045260246000fd5b60200201516001600160a01b031681526020018c60096012811061129557634e487b7160e01b600052603260045260246000fd5b602002015181526020018c600a601281106112c057634e487b7160e01b600052603260045260246000fd5b602002015181526020018c600b601281106112eb57634e487b7160e01b600052603260045260246000fd5b602002015181526020018c600c6012811061131657634e487b7160e01b600052603260045260246000fd5b602002015181526020018d600a600e811061134157634e487b7160e01b600052603260045260246000fd5b60200201516001600160a01b031681526020018b60046008811061137557634e487b7160e01b600052603260045260246000fd5b602002015160ff16600181111561139c57634e487b7160e01b600052602160045260246000fd5b60018111156113bb57634e487b7160e01b600052602160045260246000fd5b81526020018b6005602002015160ff1660018111156113ea57634e487b7160e01b600052602160045260246000fd5b600181111561140957634e487b7160e01b600052602160045260246000fd5b81526020018b6006602002015160ff16600181111561143857634e487b7160e01b600052602160045260246000fd5b600181111561145757634e487b7160e01b600052602160045260246000fd5b81526101608e01516001600160a01b031660208201526040018b6007602002015160ff16600181111561149a57634e487b7160e01b600052602160045260246000fd5b60018111156114b957634e487b7160e01b600052602160045260246000fd5b8152602081018a9052604081018890526101808e01516001600160a01b039081166060830152608082018790526101a08f01511660a082015260c0018c600d602002015181526020018c600e6012811061152357634e487b7160e01b600052603260045260246000fd5b602002015181526020018c600f6012811061154e57634e487b7160e01b600052603260045260246000fd5b602002015181526020018c60106012811061157957634e487b7160e01b600052603260045260246000fd5b602002015181526020018c6011601281106115a457634e487b7160e01b600052603260045260246000fd5b6020020151905290506115b78282613a73565b9c9b505050505050505050505050565b6000604051806102e001604052808d6000600781106115f657634e487b7160e01b600052603260045260246000fd5b60200201516001600160a01b031681526020018d60016007811061162a57634e487b7160e01b600052603260045260246000fd5b60200201516001600160a01b031681526020018d60026007811061165e57634e487b7160e01b600052603260045260246000fd5b60200201516001600160a01b031681526020018c60006009811061169257634e487b7160e01b600052603260045260246000fd5b602002015181526020018c6001600981106116bd57634e487b7160e01b600052603260045260246000fd5b602002015181526020018c6002600981106116e857634e487b7160e01b600052603260045260246000fd5b602002015181526020018c60036009811061171357634e487b7160e01b600052603260045260246000fd5b602002015181526020018d60036007811061173e57634e487b7160e01b600052603260045260246000fd5b60200201516001600160a01b031681526020018b600181111561177157634e487b7160e01b600052602160045260246000fd5b81526020018a600181111561179657634e487b7160e01b600052602160045260246000fd5b81526020018960018111156117bb57634e487b7160e01b600052602160045260246000fd5b815260808e01516001600160a01b031660208201526040018860018111156117f357634e487b7160e01b600052602160045260246000fd5b815260200187878080601f0160208091040260200160405190810160405280939291908181526020018383808284376000920191909152505050908252506020810186905260a08e01516001600160a01b03166040820152606081018590526080018d600660200201516001600160a01b031681526020018c60046009811061188c57634e487b7160e01b600052603260045260246000fd5b602002015181526020018c6005600981106118b757634e487b7160e01b600052603260045260246000fd5b602002015181526020018c6006600981106118e257634e487b7160e01b600052603260045260246000fd5b602002015181526020018c60076009811061190d57634e487b7160e01b600052603260045260246000fd5b602002015181526020018c60086009811061193857634e487b7160e01b600052603260045260246000fd5b60200201519052905061096b8183613cc5565b5050505050505050505050565b6003546001600160a01b031681565b60075481565b6000610cf9604051806102e001604052808d60006007811061199f57634e487b7160e01b600052603260045260246000fd5b60200201516001600160a01b031681526020018d6001600781106119d357634e487b7160e01b600052603260045260246000fd5b60200201516001600160a01b031681526020018d600260078110611a0757634e487b7160e01b600052603260045260246000fd5b60200201516001600160a01b031681526020018c600060098110611a3b57634e487b7160e01b600052603260045260246000fd5b602002015181526020018c600160098110611a6657634e487b7160e01b600052603260045260246000fd5b602002015181526020018c600260098110611a9157634e487b7160e01b600052603260045260246000fd5b602002015181526020018c600360098110611abc57634e487b7160e01b600052603260045260246000fd5b602002015181526020018d600360078110611ae757634e487b7160e01b600052603260045260246000fd5b60200201516001600160a01b031681526020018b6001811115611b1a57634e487b7160e01b600052602160045260246000fd5b81526020018a6001811115611b3f57634e487b7160e01b600052602160045260246000fd5b8152602001896001811115611b6457634e487b7160e01b600052602160045260246000fd5b815260808e01516001600160a01b03166020820152604001886001811115611b9c57634e487b7160e01b600052602160045260246000fd5b815260200187878080601f0160208091040260200160405190810160405280939291908181526020018383808284376000920191909152505050908252506020810186905260a08e01516001600160a01b03166040820152606081018590526080018d600660200201516001600160a01b031681526020018c600460098110611c3557634e487b7160e01b600052603260045260246000fd5b602002015181526020018c600560098110611c6057634e487b7160e01b600052603260045260246000fd5b602002015181526020018c600660098110611c8b57634e487b7160e01b600052603260045260246000fd5b602002015181526020018c600760098110611cb657634e487b7160e01b600052603260045260246000fd5b602002015181526020018c600860098110611ce157634e487b7160e01b600052603260045260246000fd5b60200201519052613e60565b60056020526000908152604090205460ff1681565b600080604051806102e001604052808f600060078110611d3257634e487b7160e01b600052603260045260246000fd5b60200201516001600160a01b031681526020018f600160078110611d6657634e487b7160e01b600052603260045260246000fd5b60200201516001600160a01b031681526020018f600260078110611d9a57634e487b7160e01b600052603260045260246000fd5b60200201516001600160a01b031681526020018e600060098110611dce57634e487b7160e01b600052603260045260246000fd5b602002015181526020018e600160098110611df957634e487b7160e01b600052603260045260246000fd5b602002015181526020018e600260098110611e2457634e487b7160e01b600052603260045260246000fd5b602002015181526020018e600360098110611e4f57634e487b7160e01b600052603260045260246000fd5b602002015181526020018f600360078110611e7a57634e487b7160e01b600052603260045260246000fd5b60200201516001600160a01b031681526020018d6001811115611ead57634e487b7160e01b600052602160045260246000fd5b81526020018c6001811115611ed257634e487b7160e01b600052602160045260246000fd5b81526020018b6001811115611ef757634e487b7160e01b600052602160045260246000fd5b81526020018f600460200201516001600160a01b031681526020018a6001811115611f3257634e487b7160e01b600052602160045260246000fd5b815260200189898080601f016020809104026020016040519081016040528093929190818152602001838380828437600092019190915250505090825250602081018890526040018f600560200201516001600160a01b031681526020018681526020018f600660078110611fb757634e487b7160e01b600052603260045260246000fd5b60200201516001600160a01b031681526020018e600460098110611feb57634e487b7160e01b600052603260045260246000fd5b602002015181526020018e60056009811061201657634e487b7160e01b600052603260045260246000fd5b602002015181526020018e60066009811061204157634e487b7160e01b600052603260045260246000fd5b602002015181526020018e60076009811061206c57634e487b7160e01b600052603260045260246000fd5b602002015181526020018e60086009811061209757634e487b7160e01b600052603260045260246000fd5b6020020151905290506121196120ac82613e60565b8260405180606001604052808860ff168152602001876000600281106120e257634e487b7160e01b600052603260045260246000fd5b602002015181526020018760016002811061210d57634e487b7160e01b600052603260045260246000fd5b60200201519052613ef1565b9e9d5050505050505050505050505050565b6001546001600160a01b031690565b6002546001600160a01b031681565b61194b604051806102e001604052808d6000600e811061217957634e487b7160e01b600052603260045260246000fd5b60200201516001600160a01b031681526020018d6001600e81106121ad57634e487b7160e01b600052603260045260246000fd5b60200201516001600160a01b031681526020018d6002600e81106121e157634e487b7160e01b600052603260045260246000fd5b60200201516001600160a01b031681526020018c60006012811061221557634e487b7160e01b600052603260045260246000fd5b602002015181526020018c60016012811061224057634e487b7160e01b600052603260045260246000fd5b602002015181526020018c60026012811061226b57634e487b7160e01b600052603260045260246000fd5b602002015181526020018c60036012811061229657634e487b7160e01b600052603260045260246000fd5b602002015181526020018d6003600e81106122c157634e487b7160e01b600052603260045260246000fd5b60200201516001600160a01b031681526020018b6000600881106122f557634e487b7160e01b600052603260045260246000fd5b602002015160ff16600181111561231c57634e487b7160e01b600052602160045260246000fd5b600181111561233b57634e487b7160e01b600052602160045260246000fd5b81526020018b6001602002015160ff16600181111561236a57634e487b7160e01b600052602160045260246000fd5b600181111561238957634e487b7160e01b600052602160045260246000fd5b81526020018b6002602002015160ff1660018111156123b857634e487b7160e01b600052602160045260246000fd5b60018111156123d757634e487b7160e01b600052602160045260246000fd5b815260808e01516001600160a01b031660208201526040018b6003602002015160ff16600181111561241957634e487b7160e01b600052602160045260246000fd5b600181111561243857634e487b7160e01b600052602160045260246000fd5b8152602081018b90526040810189905260a0808f01516001600160a01b0316606083015260808201889052018d600660200201516001600160a01b031681526020018c60046012811061249b57634e487b7160e01b600052603260045260246000fd5b602002015181526020018c6005601281106124c657634e487b7160e01b600052603260045260246000fd5b602002015181526020018c6006601281106124f157634e487b7160e01b600052603260045260246000fd5b602002015181526020018c60076012811061251c57634e487b7160e01b600052603260045260246000fd5b602002015181526020018c60086012811061254757634e487b7160e01b600052603260045260246000fd5b6020908102919091015190915260408051606081018252865160ff168152855192810192909252810184600160200201519052604080516102e08101909152808f600760200201516001600160a01b031681526020018f6008600e81106125be57634e487b7160e01b600052603260045260246000fd5b60200201516001600160a01b031681526020018f6009600e81106125f257634e487b7160e01b600052603260045260246000fd5b60200201516001600160a01b031681526020018e60096012811061262657634e487b7160e01b600052603260045260246000fd5b602002015181526020018e600a6012811061265157634e487b7160e01b600052603260045260246000fd5b602002015181526020018e600b6012811061267c57634e487b7160e01b600052603260045260246000fd5b602002015181526020018e600c601281106126a757634e487b7160e01b600052603260045260246000fd5b602002015181526020018f600a600e81106126d257634e487b7160e01b600052603260045260246000fd5b60200201516001600160a01b031681526020018d60046008811061270657634e487b7160e01b600052603260045260246000fd5b602002015160ff16600181111561272d57634e487b7160e01b600052602160045260246000fd5b600181111561274c57634e487b7160e01b600052602160045260246000fd5b81526020018d6005602002015160ff16600181111561277b57634e487b7160e01b600052602160045260246000fd5b600181111561279a57634e487b7160e01b600052602160045260246000fd5b81526020018d6006602002015160ff1660018111156127c957634e487b7160e01b600052602160045260246000fd5b60018111156127e857634e487b7160e01b600052602160045260246000fd5b81526020018f600b60200201516001600160a01b031681526020018d60076008811061282457634e487b7160e01b600052603260045260246000fd5b602002015160ff16600181111561284b57634e487b7160e01b600052602160045260246000fd5b600181111561286a57634e487b7160e01b600052602160045260246000fd5b8152602081018c9052604081018a90526060018f600c60200201516001600160a01b031681526020018781526020018f600d600e81106128ba57634e487b7160e01b600052603260045260246000fd5b60200201516001600160a01b031681526020018e600d601281106128ee57634e487b7160e01b600052603260045260246000fd5b602002015181526020018e600e6012811061291957634e487b7160e01b600052603260045260246000fd5b602002015181526020018e600f6012811061294457634e487b7160e01b600052603260045260246000fd5b602002015181526020018e60106012811061296f57634e487b7160e01b600052603260045260246000fd5b602002015181526020018e60116012811061299a57634e487b7160e01b600052603260045260246000fd5b60200201519052604080516060810190915280876001602002015160ff168152602001866002600581106129de57634e487b7160e01b600052603260045260246000fd5b6020020151815260200186600360058110612a0957634e487b7160e01b600052603260045260246000fd5b60200201519052608086015161400c565b600080604051806102e001604052808d600060078110612a4a57634e487b7160e01b600052603260045260246000fd5b60200201516001600160a01b031681526020018d600160078110612a7e57634e487b7160e01b600052603260045260246000fd5b60200201516001600160a01b031681526020018d600260078110612ab257634e487b7160e01b600052603260045260246000fd5b60200201516001600160a01b031681526020018c600060098110612ae657634e487b7160e01b600052603260045260246000fd5b602002015181526020018c600160098110612b1157634e487b7160e01b600052603260045260246000fd5b602002015181526020018c600260098110612b3c57634e487b7160e01b600052603260045260246000fd5b602002015181526020018c600360098110612b6757634e487b7160e01b600052603260045260246000fd5b602002015181526020018d600360078110612b9257634e487b7160e01b600052603260045260246000fd5b60200201516001600160a01b031681526020018b6001811115612bc557634e487b7160e01b600052602160045260246000fd5b81526020018a6001811115612bea57634e487b7160e01b600052602160045260246000fd5b8152602001896001811115612c0f57634e487b7160e01b600052602160045260246000fd5b815260808e01516001600160a01b03166020820152604001886001811115612c4757634e487b7160e01b600052602160045260246000fd5b815260200187878080601f0160208091040260200160405190810160405280939291908181526020018383808284376000920191909152505050908252506020810186905260a08e01516001600160a01b03166040820152606081018590526080018d600660200201516001600160a01b031681526020018c600460098110612ce057634e487b7160e01b600052603260045260246000fd5b602002015181526020018c600560098110612d0b57634e487b7160e01b600052603260045260246000fd5b602002015181526020018c600660098110612d3657634e487b7160e01b600052603260045260246000fd5b602002015181526020018c600760098110612d6157634e487b7160e01b600052603260045260246000fd5b602002015181526020018c600860098110612d8c57634e487b7160e01b600052603260045260246000fd5b6020020151905290506115b78161453b565b61271081565b600080604051806102e001604052808c6000600e8110612dd457634e487b7160e01b600052603260045260246000fd5b60200201516001600160a01b031681526020018c6001600e8110612e0857634e487b7160e01b600052603260045260246000fd5b60200201516001600160a01b031681526020018c6002600e8110612e3c57634e487b7160e01b600052603260045260246000fd5b60200201516001600160a01b031681526020018b600060128110612e7057634e487b7160e01b600052603260045260246000fd5b602002015181526020018b600160128110612e9b57634e487b7160e01b600052603260045260246000fd5b602002015181526020018b600260128110612ec657634e487b7160e01b600052603260045260246000fd5b602002015181526020018b600360128110612ef157634e487b7160e01b600052603260045260246000fd5b602002015181526020018c6003600e8110612f1c57634e487b7160e01b600052603260045260246000fd5b60200201516001600160a01b031681526020018a600060088110612f5057634e487b7160e01b600052603260045260246000fd5b602002015160ff166001811115612f7757634e487b7160e01b600052602160045260246000fd5b6001811115612f9657634e487b7160e01b600052602160045260246000fd5b81526020018a6001602002015160ff166001811115612fc557634e487b7160e01b600052602160045260246000fd5b6001811115612fe457634e487b7160e01b600052602160045260246000fd5b81526020018a6002602002015160ff16600181111561301357634e487b7160e01b600052602160045260246000fd5b600181111561303257634e487b7160e01b600052602160045260246000fd5b815260808d01516001600160a01b031660208201526040018a6003602002015160ff16600181111561307457634e487b7160e01b600052602160045260246000fd5b600181111561309357634e487b7160e01b600052602160045260246000fd5b8152602081018a90526040810188905260a0808e01516001600160a01b0316606083015260808201879052018c600660200201516001600160a01b031681526020018b6004601281106130f657634e487b7160e01b600052603260045260246000fd5b602002015181526020018b60056012811061312157634e487b7160e01b600052603260045260246000fd5b602002015181526020018b60066012811061314c57634e487b7160e01b600052603260045260246000fd5b602002015181526020018b60076012811061317757634e487b7160e01b600052603260045260246000fd5b602002015181526020018b6008601281106131a257634e487b7160e01b600052603260045260246000fd5b602002015181525090506000604051806102e001604052808d6007600e81106131db57634e487b7160e01b600052603260045260246000fd5b60200201516001600160a01b031681526020018d6008600e811061320f57634e487b7160e01b600052603260045260246000fd5b60200201516001600160a01b031681526020018d6009600e811061324357634e487b7160e01b600052603260045260246000fd5b60200201516001600160a01b031681526020018c60096012811061327757634e487b7160e01b600052603260045260246000fd5b602002015181526020018c600a601281106132a257634e487b7160e01b600052603260045260246000fd5b602002015181526020018c600b601281106132cd57634e487b7160e01b600052603260045260246000fd5b602002015181526020018c600c601281106132f857634e487b7160e01b600052603260045260246000fd5b602002015181526020018d600a600e811061332357634e487b7160e01b600052603260045260246000fd5b60200201516001600160a01b031681526020018b60046008811061335757634e487b7160e01b600052603260045260246000fd5b602002015160ff16600181111561337e57634e487b7160e01b600052602160045260246000fd5b600181111561339d57634e487b7160e01b600052602160045260246000fd5b81526020018b6005602002015160ff1660018111156133cc57634e487b7160e01b600052602160045260246000fd5b60018111156133eb57634e487b7160e01b600052602160045260246000fd5b81526020018b6006602002015160ff16600181111561341a57634e487b7160e01b600052602160045260246000fd5b600181111561343957634e487b7160e01b600052602160045260246000fd5b81526101608e01516001600160a01b031660208201526040018b6007602002015160ff16600181111561347c57634e487b7160e01b600052602160045260246000fd5b600181111561349b57634e487b7160e01b600052602160045260246000fd5b8152602081018a9052604081018890526101808e01516001600160a01b039081166060830152608082018790526101a08f01511660a082015260c0018c600d602002015181526020018c600e6012811061350557634e487b7160e01b600052603260045260246000fd5b602002015181526020018c600f6012811061353057634e487b7160e01b600052603260045260246000fd5b602002015181526020018c60106012811061355b57634e487b7160e01b600052603260045260246000fd5b602002015181526020018c60116012811061358657634e487b7160e01b600052603260045260246000fd5b6020020151905290506115b782826145d4565b60066020526000908152604090205460ff1681565b6135b6613a1d565b6001600160a01b03166135c761212b565b6001600160a01b0316146135ed5760405162461bcd60e51b8152600401610dad90615dd8565b6001600160a01b0381166136135760405162461bcd60e51b8152600401610dad90615d92565b61361c81613a21565b50565b80516000901561365b57815180602001830160208401855b60018383101415613652578151815260209182019101613637565b50505092909201915b5090919050565b815183511461367057600080fd5b805183511461367e57600080fd5b60006020845161368e9190615ea5565b9050600061369d826020615ec5565b9050816136ab602083615ea5565b146136c657634e487b7160e01b600052600160045260246000fd5b60005b82811015613703578060010160200280850151818701518116828901518219161782890152505080806136fb90615efb565b9150506136c9565b8215613730578290508060010160200280850151818701518116828901518219161782890152505061383a565b50805b855181101561383a5784818151811061375c57634e487b7160e01b600052603260045260246000fd5b602001015160f81c60f81b84828151811061378757634e487b7160e01b600052603260045260246000fd5b602001015160f81c60f81b168682815181106137b357634e487b7160e01b600052603260045260246000fd5b602001015160f81c60f81b8583815181106137de57634e487b7160e01b600052603260045260246000fd5b602001015160f81c60f81b60ff60f81b18161786828151811061381157634e487b7160e01b600052603260045260246000fd5b60200101906001600160f81b031916908160001a9053508061383281615efb565b915050613733565b505050505050565b600061384e8383614662565b905082602001516001600160a01b0316613866613a1d565b6001600160a01b03161461387957600080fd5b600081815260056020526040808220805460ff191660011790555182917f5152abf959f6564662358c2e52b702259b78bac5ee7842a0f01937e670efcc7d91a2505050565b60006138ec826101200151836101400151846102400151856102600151866102800151876102a00151613958565b90505b919050565b815181516000916001918114808314613910576000925061394e565b600160208701838101602088015b60028483851001141561394957805183511461393d5760009650600093505b6020928301920161391e565b505050505b5090949350505050565b60008086600181111561397b57634e487b7160e01b600052602160045260246000fd5b1415613988575083610d55565b60018660018111156139aa57634e487b7160e01b600052602160045260246000fd5b1415610d555760006139d76139c8866139c34288614684565b614690565b6139d28587614684565b61469c565b905060018860018111156139fb57634e487b7160e01b600052602160045260246000fd5b1415613a1357613a0b8682614684565b915050610d55565b613a0b86826146a8565b3390565b600180546001600160a01b038381166001600160a01b0319831681179093556040519116919082907f8be0079c531659141344cd1fd0a4f28419497f9722a3daafe3b4186f6b6457e090600090a35050565b6000808361012001516001811115613a9b57634e487b7160e01b600052602160045260246000fd5b148015613acc575060018261012001516001811115613aca57634e487b7160e01b600052602160045260246000fd5b145b8015613b1f57508161010001516001811115613af857634e487b7160e01b600052602160045260246000fd5b8361010001516001811115613b1d57634e487b7160e01b600052602160045260246000fd5b145b8015613b4657508161022001516001600160a01b03168361022001516001600160a01b0316145b8015613b80575060408201516001600160a01b03161580613b80575082602001516001600160a01b031682604001516001600160a01b0316145b8015613bba575060408301516001600160a01b03161580613bba575081602001516001600160a01b031683604001516001600160a01b0316145b8015613c15575060e08201516001600160a01b0316158015613be8575060e08301516001600160a01b031615155b80613c15575060e08201516001600160a01b031615801590613c15575060e08301516001600160a01b0316155b8015613c3c57508161016001516001600160a01b03168361016001516001600160a01b0316145b8015613c8f57508161018001516001811115613c6857634e487b7160e01b600052602160045260246000fd5b8361018001516001811115613c8d57634e487b7160e01b600052602160045260246000fd5b145b8015613caa5750613caa836102800151846102a001516146b4565b80156105635750610563826102800151836102a001516146b4565b81602001516001600160a01b0316613cdb613a1d565b6001600160a01b031614613cee57600080fd5b6000613cf983613e60565b60008181526006602052604090205490915060ff1615613d1857600080fd5b60016006600083815260200190815260200160002060006101000a81548160ff0219169083151502179055508260e001516001600160a01b031683602001516001600160a01b0316827f90c7f9f5b58c15f0f635bfb99f55d3d78fdbef3559e7d8abf5c81052a527662286600001518760400151886060015189608001518a60a001518b60c001518c61010001518d61012001518e61014001518f6101600151604051613dce9a99989796959493929190615bec565b60405180910390a4807fe55393c778364e440d958b39ac1debd99dcfae3775a8a04d1e79124adf6a2d08846101800151856101a00151866101c00151876101e001518861020001518961022001518a61024001518b61026001518c61028001518d6102a001518e6102c001518e604051613e539c9b9a99989796959493929190615cf6565b60405180910390a2505050565b600073__$7109f9d235029bc2eecdd4bced8a9f77fe$__63918a15cf613e85846146d0565b6040518263ffffffff1660e01b8152600401613ea19190615ca6565b60206040518083038186803b158015613eb957600080fd5b505af4158015613ecd573d6000803e3d6000fd5b505050506040513d601f19601f820116820180604052508101906138ec9190615a01565b6000613efc8361453b565b613f0857506000610563565b60008481526005602052604090205460ff1615613f2757506000610563565b60008481526006602052604090205460ff1615613f4657506001610563565b6020808401518351918401516040808601519051630c2bf17b60e41b81526001600160a01b039093169373__$7109f9d235029bc2eecdd4bced8a9f77fe$__9363c2bf17b093613f9b938b9392600401615cc5565b60206040518083038186803b158015613fb357600080fd5b505af4158015613fc7573d6000803e3d6000fd5b505050506040513d601f19601f82011682018060405250810190613feb9190615397565b6001600160a01b0316141561400257506001610563565b5060009392505050565b6002600054141561402f5760405162461bcd60e51b8152600401610dad90615e0d565b6002600090815561403e613a1d565b6001600160a01b031686602001516001600160a01b03161415614072576140648661453b565b61406d57600080fd5b61407f565b61407c8686614662565b90505b6000614089613a1d565b6001600160a01b031685602001516001600160a01b031614156140bd576140af8561453b565b6140b857600080fd5b6140ca565b6140c78585614662565b90505b6140d48786613a73565b6140dd57600080fd5b610160850151803b90816140f057600080fd5b6101c0890151511561411657614116896101a00151886101a001518b6101c00151613662565b6101c0870151511561413c5761413c876101a001518a6101a00151896101c00151613662565b614150896101a00151886101a001516138f4565b61415957600080fd5b600354602088015160405163c455279160e01b81526000926001600160a01b03169163c45527919161418e9190600401615bae565b60206040518083038186803b1580156141a657600080fd5b505afa1580156141ba573d6000803e3d6000fd5b505050506040513d601f19601f820116820180604052508101906141de9190615397565b90506001600160a01b0381166141f357600080fd5b600360009054906101000a90046001600160a01b03166001600160a01b03166397204d8e6040518163ffffffff1660e01b815260040160206040518083038186803b15801561424157600080fd5b505afa158015614255573d6000803e3d6000fd5b505050506040513d601f19601f820116820180604052508101906142799190615397565b6001600160a01b0316816001600160a01b0316635c60da1b6040518163ffffffff1660e01b815260040160206040518083038186803b1580156142bb57600080fd5b505afa1580156142cf573d6000803e3d6000fd5b505050506040513d601f19601f820116820180604052508101906142f39190615397565b6001600160a01b03161461430657600080fd5b60208a015181906001600160a01b031661431e613a1d565b6001600160a01b031614614346576000868152600560205260409020805460ff191660011790555b88602001516001600160a01b031661435c613a1d565b6001600160a01b031614614384576000858152600560205260409020805460ff191660011790555b60006143908c8b61492e565b9050816001600160a01b0316631b0f7ba98b61016001518c61018001518d6101a001516040518463ffffffff1660e01b81526004016143d193929190615c6a565b602060405180830381600087803b1580156143eb57600080fd5b505af11580156143ff573d6000803e3d6000fd5b505050506040513d601f19601f8201168201806040525081019061442391906159cd565b61442c57600080fd5b6101e08c01516001600160a01b0316156144635761445a8c6101e001518b6101a001518e61020001516104d2565b61446357600080fd5b6101e08a01516001600160a01b03161561449a576144918a6101e001518b6101a001518c61020001516104d2565b61449a57600080fd5b60e08a015188906001600160a01b03166144b8578a602001516144be565b8c602001515b60e08c01516001600160a01b0391821691166144de578d602001516144e4565b8b602001515b6001600160a01b03167fc4109843e0b7d514e4c093114b863f8e7d8d9a458c372cd51bfe526b588006c98a8a8660405161452093929190615caf565b60405180910390a45050600160005550505050505050505050565b80516000906001600160a01b03163014614557575060006138ef565b61456b826101400151836102a00151614f1b565b614577575060006138ef565b6001826101000151600181111561459e57634e487b7160e01b600052602160045260246000fd5b1480156145bf57506007548260a0015110806145bf57506008548260c00151105b156145cc575060006138ef565b506001919050565b600080614603836101200151846101400151856102400151866102600151876102800151886102a00151613958565b905060006146338561012001518661014001518761024001518861026001518961028001518a6102a00151613958565b90508181101561464257600080fd5b60e08401516001600160a01b031661465a5780610d39565b509392505050565b60008061466e84613e60565b905061467b818585613ef1565b61056357600080fd5b60006105638284615ee4565b60006105638284615ec5565b60006105638284615ea5565b60006105638284615e8d565b6000428310801561056357508115806105635750504210919050565b6000806146dc83614f4d565b90506000816001600160401b0381111561470657634e487b7160e01b600052604160045260246000fd5b6040519080825280601f01601f191660200182016040528015614730576020820181803683370190505b5084519091506020820190614746908290614f85565b9050614756818660200151614f85565b9050614766818660400151614f85565b9050614776818660600151614f9f565b9050614786818660800151614f9f565b9050614796818660a00151614f9f565b90506147a6818660c00151614f9f565b90506147b6818660e00151614f85565b90506147e68186610100015160018111156147e157634e487b7160e01b600052602160045260246000fd5b614fa7565b90506148118186610120015160018111156147e157634e487b7160e01b600052602160045260246000fd5b905061483c8186610140015160018111156147e157634e487b7160e01b600052602160045260246000fd5b905061484d81866101600151614f85565b90506148788186610180015160018111156147e157634e487b7160e01b600052602160045260246000fd5b905061488981866101a0015161361f565b905061489a81866101c0015161361f565b90506148ab81866101e00151614f85565b90506148bc8186610200015161361f565b90506148cd81866102200151614f85565b90506148de81866102400151614f9f565b90506148ef81866102600151614f9f565b905061490081866102800151614f9f565b905061491181866102a00151614f9f565b905061492281866102c00151614f9f565b50506020012092915050565b6102208101516000906001600160a01b03161561495057341561495057600080fd5b600061495c84846145d4565b905060008111801561497b57506102208301516001600160a01b031615155b15614999576149998361022001518560200151856020015184614fb4565b60e0830151819081906001600160a01b031615614cd7578560800151856080015111156149c557600080fd5b600185610100015160018111156149ec57634e487b7160e01b600052602160045260246000fd5b1415614c90578560c001518560c001511115614a0757600080fd5b606085015115614aaa576000614a2c614a24876060015186614690565b61271061469c565b6102208701519091506001600160a01b0316614a8f57614a4c8382614684565b60e08701516040519194506001600160a01b03169082156108fc029083906000818181858888f19350505050158015614a89573d6000803e3d6000fd5b50614aa8565b614aa886610220015187602001518860e0015184614fb4565b505b608085015115614b45576000614ac7614a24876080015186614690565b6102208701519091506001600160a01b0316614b2a57614ae782826146a8565b60e08701516040519193506001600160a01b03169082156108fc029083906000818181858888f19350505050158015614b24573d6000803e3d6000fd5b50614b43565b614b4386610220015188602001518860e0015184614fb4565b505b60a085015115614be8576000614b62614a248760a0015186614690565b6102208701519091506001600160a01b0316614bc357614b828382614684565b6009546040519194506001600160a01b03169082156108fc029083906000818181858888f19350505050158015614bbd573d6000803e3d6000fd5b50614be6565b6102208601516020870151600954614be69291906001600160a01b031684614fb4565b505b60c085015115614c8b576000614c05614a248760c0015186614690565b6102208701519091506001600160a01b0316614c6657614c2582826146a8565b6009546040519193506001600160a01b03169082156108fc029083906000818181858888f19350505050158015614c60573d6000803e3d6000fd5b50614c89565b6102208601516020880151600954614c899291906001600160a01b031684614fb4565b505b614cd2565b606085015115614cb157614cb185602001518660e001518760600151615050565b608085015115614cd257614cd286602001518660e001518760800151615050565b614e5f565b846080015186608001511115614cec57600080fd5b60018561010001516001811115614d1357634e487b7160e01b600052602160045260246000fd5b1415614e1d576102208501516001600160a01b0316614d3157600080fd5b8460c001518660c001511115614d4657600080fd5b606086015115614d7957614d7985610220015187602001518860e00151614d74614a248b6060015189614690565b614fb4565b608086015115614da757614da785610220015186602001518860e00151614d74614a248b6080015189614690565b60a086015115614de257610220850151602087015160095460a0890151614de29392916001600160a01b031690614d7490614a249089614690565b60c086015115614cd257610220850151602086015160095460c0890151614cd29392916001600160a01b031690614d7490614a249089614690565b606086015115614e3e57614e3e86602001518760e001518860600151615050565b608086015115614e5f57614e5f85602001518760e001518860800151615050565b6102208501516001600160a01b031661394e5780341015614e7f57600080fd5b84602001516001600160a01b03166108fc839081150290604051600060405180830381858888f19350505050158015614ebc573d6000803e3d6000fd5b506000614ec93483614684565b90508015614f105786602001516001600160a01b03166108fc829081150290604051600060405180830381858888f19350505050158015614f0e573d6000803e3d6000fd5b505b505090949350505050565b600080836001811115614f3e57634e487b7160e01b600052602160045260246000fd5b14806105635750501515919050565b600081610200015151826101c0015151836101a00151516101b0614f719190615e8d565b614f7b9190615e8d565b6138ec9190615e8d565b60601b6bffffffffffffffffffffffff1916815260140190565b815260200190565b6000818353505060010190565b801561504a5760048054604051630aed65f560e11b81526001600160a01b03909116916315dacbea91614fef91889188918891889101615bc2565b602060405180830381600087803b15801561500957600080fd5b505af115801561501d573d6000803e3d6000fd5b505050506040513d601f19601f8201168201806040525081019061504191906159cd565b61504a57600080fd5b50505050565b600254615068906001600160a01b0316848484614fb4565b505050565b600061508061507b84615e6d565b615e44565b905080826020868187028601111561509757600080fd5b60005b868110156150b65782358452928101929181019160010161509a565b505050509392505050565b60006150cf61507b84615e6d565b90508082602086818702860111156150e657600080fd5b60005b868110156150b6576150fa8361536a565b845292810192918101916001016150e9565b600082601f83011261511c578081fd5b6040516101c08082018281106001600160401b038211171561514057615140615f2c565b6040528184828101871015615153578485fd5b8492505b600e83101561518057803561516b81615f60565b82526001929092019160209182019101615157565b509195945050505050565b600082601f83011261519b578081fd5b60405160e081018181106001600160401b03821117156151bd576151bd615f2c565b604052808360e081018610156151d1578384fd5b835b60078110156151805781356151e781615f60565b835260209283019291909101906001016151d3565b600082601f83011261520c578081fd5b6105638360028461506d565b600082601f830112615228578081fd5b6105638360058461506d565b600082601f830112615244578081fd5b6105638360128461506d565b600082601f830112615260578081fd5b6105638360098461506d565b600082601f83011261527c578081fd5b610563836002846150c1565b600082601f830112615298578081fd5b610563836008846150c1565b80356138ef81615f75565b60008083601f8401126152c0578182fd5b5081356001600160401b038111156152d6578182fd5b6020830191508360208285010111156152ee57600080fd5b9250929050565b600082601f830112615305578081fd5b81356001600160401b0381111561531e5761531e615f2c565b615331601f8201601f1916602001615e44565b818152846020838601011115615345578283fd5b816020850160208301379081016020019190915292915050565b80356138ef81615f83565b803560ff811681146138ef57600080fd5b60006020828403121561538c578081fd5b813561056381615f60565b6000602082840312156153a8578081fd5b815161056381615f60565b6000806000606084860312156153c7578182fd5b83356153d281615f60565b925060208401356001600160401b03808211156153ed578384fd5b6153f9878388016152f5565b9350604086013591508082111561540e578283fd5b5061541b868287016152f5565b9150509250925092565b60008060008060008060008060006105c08a8c031215615443578687fd5b61544d8b8b61510c565b985061545d8b6101c08c01615234565b975061546d8b6104008c01615288565b96506105008a01356001600160401b0380821115615489578687fd5b6154958d838e016152f5565b97506105208c01359150808211156154ab578687fd5b6154b78d838e016152f5565b96506105408c01359150808211156154cd578586fd5b6154d98d838e016152f5565b95506105608c01359150808211156154ef578485fd5b6154fb8d838e016152f5565b94506105808c0135915080821115615511578384fd5b61551d8d838e016152f5565b93506105a08c0135915080821115615533578283fd5b506155408c828d016152f5565b9150509295985092959850929598565b60008060008060008060008060008060006106a08c8e031215615571578485fd5b61557b8d8d61510c565b9a5061558b8d6101c08e01615234565b995061559b8d6104008e01615288565b98506001600160401b03806105008e013511156155b6578586fd5b6155c78e6105008f01358f016152f5565b9850806105208e013511156155da578586fd5b6155eb8e6105208f01358f016152f5565b9750806105408e013511156155fe578586fd5b61560f8e6105408f01358f016152f5565b9650806105608e01351115615622578586fd5b6156338e6105608f01358f016152f5565b9550806105808e01351115615646578283fd5b6156578e6105808f01358f016152f5565b9450806105a08e0135111561566a578283fd5b5061567c8d6105a08e01358e016152f5565b925061568c8d6105c08e0161526c565b915061569c8d6106008e01615218565b90509295989b509295989b9093969950565b6000806000806000806000806000806102e08b8d0312156156cd578384fd5b6156d78c8c61518b565b99506156e68c60e08d01615250565b98506156f56102008c0161535f565b97506157046102208c0161535f565b96506157136102408c0161535f565b95506157226102608c0161535f565b94506102808b01356001600160401b038082111561573e578586fd5b61574a8e838f016152af565b90965094506102a08d0135915080821115615763578384fd5b61576f8e838f016152f5565b93506102c08d0135915080821115615785578283fd5b506157928d828e016152f5565b9150509295989b9194979a5092959850565b60008060008060008060008060008060006103008c8e0312156157c5578485fd5b6157cf8d8d61518b565b9a506157de8d60e08e01615250565b99506157ed6102008d0161535f565b98506157fc6102208d0161535f565b975061580b6102408d0161535f565b965061581a6102608d0161535f565b95506001600160401b03806102808e01351115615835578586fd5b6158468e6102808f01358f016152af565b90965094506102a08d013581101561585c578182fd5b61586d8e6102a08f01358f016152f5565b9350806102c08e01351115615880578182fd5b506158928d6102c08e01358e016152f5565b915061569c6102e08d016152a4565b6000806000806000806000806000806000806103408d8f0312156158c3578586fd5b6158cd8e8e61518b565b9b506158dc8e60e08f01615250565b9a506158eb6102008e0161535f565b99506158fa6102208e0161535f565b98506159096102408e0161535f565b97506159186102608e0161535f565b96506001600160401b036102808e01351115615932578586fd5b6159438e6102808f01358f016152af565b90965094506001600160401b036102a08e01351115615960578081fd5b6159718e6102a08f01358f016152f5565b93506001600160401b036102c08e0135111561598b578081fd5b61599c8e6102c08f01358f016152f5565b92506159ab6102e08e0161536a565b91506159bb8e6103008f016151fc565b90509295989b509295989b509295989b565b6000602082840312156159de578081fd5b815161056381615f75565b6000602082840312156159fa578081fd5b5035919050565b600060208284031215615a12578081fd5b5051919050565b600080600060608486031215615a2d578081fd5b83356001600160401b0380821115615a43578283fd5b615a4f878388016152f5565b945060208601359150808211156153ed578283fd5b60008060008060808587031215615a79578182fd5b84356001600160401b0380821115615a8f578384fd5b615a9b888389016152f5565b95506020870135915080821115615ab0578384fd5b615abc888389016152f5565b94506040870135915080821115615ad1578384fd5b615add888389016152f5565b93506060870135915080821115615af2578283fd5b50615aff878288016152f5565b91505092959194509250565b60008060008060008060c08789031215615b23578384fd5b8635615b2e81615f83565b95506020870135615b3e81615f83565b95989597505050506040840135936060810135936080820135935060a0909101359150565b60008151808452815b81811015615b8857602081850181015186830182015201615b6c565b81811115615b995782602083870101525b50601f01601f19169290920160200192915050565b6001600160a01b0391909116815260200190565b6001600160a01b039485168152928416602084015292166040820152606081019190915260800190565b6001600160a01b038b811682528a81166020830152604082018a9052606082018990526080820188905260a08201879052610140820190615c2c87615f42565b8660c0840152615c3b86615f42565b8560e0840152615c4a85615f42565b84610100840152808416610120840152509b9a5050505050505050505050565b6001600160a01b03841681526000615c8184615f42565b83602083015260606040830152610d396060830184615b63565b901515815260200190565b90815260200190565b9283526020830191909152604082015260600190565b93845260ff9290921660208401526040830152606082015260800190565b6000602082526105636020830184615b63565b6000610180615d048f615f42565b8e8352806020840152615d198184018f615b63565b90508281036040840152615d2d818e615b63565b6001600160a01b038d811660608601528482036080860152909150615d52828d615b63565b9a1660a0840152505060c081019690965260e086019490945261010085019290925261012084015261014083015215156101609091015295945050505050565b60208082526026908201527f4f776e61626c653a206e6577206f776e657220697320746865207a65726f206160408201526564647265737360d01b606082015260800190565b6020808252818101527f4f776e61626c653a2063616c6c6572206973206e6f7420746865206f776e6572604082015260600190565b6020808252601f908201527f5265656e7472616e637947756172643a207265656e7472616e742063616c6c00604082015260600190565b6040518181016001600160401b0381118282101715615e6557615e65615f2c565b604052919050565b60006001600160401b03821115615e8657615e86615f2c565b5060200290565b60008219821115615ea057615ea0615f16565b500190565b600082615ec057634e487b7160e01b81526012600452602481fd5b500490565b6000816000190483118215151615615edf57615edf615f16565b500290565b600082821015615ef657615ef6615f16565b500390565b6000600019821415615f0f57615f0f615f16565b5060010190565b634e487b7160e01b600052601160045260246000fd5b634e487b7160e01b600052604160045260246000fd5b6002811061361c57634e487b7160e01b600052602160045260246000fd5b6001600160a01b038116811461361c57600080fd5b801515811461361c57600080fd5b6002811061361c57600080fdfea264697066735822122001c698960337a7181213d266ccd77af6fc230d5f38f6fa3f9b1c897ca6abc8ea64736f6c63430008000033",
	"libraries": {
		"ECDSA": "0x5644E2feD299C6Caa1a6d90e8b57b58cC7aA1a02"
	},
	"devdoc": {
		"kind": "dev",
		"methods": {
			"atomicMatch_(address[14],uint256[18],uint8[8],bytes,bytes,bytes,bytes,bytes,bytes,uint8[2],bytes32[5])": {
				"details": "Call atomicMatch - only accept transaction when buy order matching with sell order"
			},
			"owner()": {
				"details": "Returns the address of the current owner."
			},
			"renounceOwnership()": {
				"details": "Leaves the contract without owner. It will not be possible to call `onlyOwner` functions anymore. Can only be called by the current owner. NOTE: Renouncing ownership will leave the contract without an owner, thereby removing any functionality that is only available to the owner."
			},
			"transferOwnership(address)": {
				"details": "Transfers ownership of the contract to a new account (`newOwner`). Can only be called by the current owner."
			}
		},
		"version": 1
	},
	"userdoc": {
		"kind": "user",
		"methods": {},
		"version": 1
	},
	"storageLayout": {
		"storage": [
			{
				"astId": 9098,
				"contract": "contracts/market/ForbitswapNFTSExchange.sol:ForbitswapNFTSExchange",
				"label": "_status",
				"offset": 0,
				"slot": "0",
				"type": "t_uint256"
			},
			{
				"astId": 7,
				"contract": "contracts/market/ForbitswapNFTSExchange.sol:ForbitswapNFTSExchange",
				"label": "_owner",
				"offset": 0,
				"slot": "1",
				"type": "t_address"
			},
			{
				"astId": 4546,
				"contract": "contracts/market/ForbitswapNFTSExchange.sol:ForbitswapNFTSExchange",
				"label": "exchangeToken",
				"offset": 0,
				"slot": "2",
				"type": "t_contract(IERC20)8980"
			},
			{
				"astId": 4549,
				"contract": "contracts/market/ForbitswapNFTSExchange.sol:ForbitswapNFTSExchange",
				"label": "registry",
				"offset": 0,
				"slot": "3",
				"type": "t_contract(ProxyRegistry)6986"
			},
			{
				"astId": 4552,
				"contract": "contracts/market/ForbitswapNFTSExchange.sol:ForbitswapNFTSExchange",
				"label": "tokenTransferProxy",
				"offset": 0,
				"slot": "4",
				"type": "t_contract(TokenTransferProxy)7115"
			},
			{
				"astId": 4556,
				"contract": "contracts/market/ForbitswapNFTSExchange.sol:ForbitswapNFTSExchange",
				"label": "cancelledOrFinalized",
				"offset": 0,
				"slot": "5",
				"type": "t_mapping(t_bytes32,t_bool)"
			},
			{
				"astId": 4560,
				"contract": "contracts/market/ForbitswapNFTSExchange.sol:ForbitswapNFTSExchange",
				"label": "approvedOrders",
				"offset": 0,
				"slot": "6",
				"type": "t_mapping(t_bytes32,t_bool)"
			},
			{
				"astId": 4563,
				"contract": "contracts/market/ForbitswapNFTSExchange.sol:ForbitswapNFTSExchange",
				"label": "minimumMakerProtocolFee",
				"offset": 0,
				"slot": "7",
				"type": "t_uint256"
			},
			{
				"astId": 4566,
				"contract": "contracts/market/ForbitswapNFTSExchange.sol:ForbitswapNFTSExchange",
				"label": "minimumTakerProtocolFee",
				"offset": 0,
				"slot": "8",
				"type": "t_uint256"
			},
			{
				"astId": 4568,
				"contract": "contracts/market/ForbitswapNFTSExchange.sol:ForbitswapNFTSExchange",
				"label": "protocolFeeRecipient",
				"offset": 0,
				"slot": "9",
				"type": "t_address"
			}
		],
		"types": {
			"t_address": {
				"encoding": "inplace",
				"label": "address",
				"numberOfBytes": "20"
			},
			"t_bool": {
				"encoding": "inplace",
				"label": "bool",
				"numberOfBytes": "1"
			},
			"t_bytes32": {
				"encoding": "inplace",
				"label": "bytes32",
				"numberOfBytes": "32"
			},
			"t_contract(IERC20)8980": {
				"encoding": "inplace",
				"label": "contract IERC20",
				"numberOfBytes": "20"
			},
			"t_contract(ProxyRegistry)6986": {
				"encoding": "inplace",
				"label": "contract ProxyRegistry",
				"numberOfBytes": "20"
			},
			"t_contract(TokenTransferProxy)7115": {
				"encoding": "inplace",
				"label": "contract TokenTransferProxy",
				"numberOfBytes": "20"
			},
			"t_mapping(t_bytes32,t_bool)": {
				"encoding": "mapping",
				"key": "t_bytes32",
				"label": "mapping(bytes32 => bool)",
				"numberOfBytes": "32",
				"value": "t_bool"
			},
			"t_uint256": {
				"encoding": "inplace",
				"label": "uint256",
				"numberOfBytes": "32"
			}
		}
	}
}