{
	"address": "0x14aFCbb771B02743234aF08e7DDd8647f42A5b58",
	"abi": [
		{
			"inputs": [],
			"stateMutability": "nonpayable",
			"type": "constructor"
		},
		{
			"anonymous": false,
			"inputs": [
				{
					"indexed": true,
					"internalType": "address",
					"name": "previousOwner",
					"type": "address"
				},
				{
					"indexed": true,
					"internalType": "address",
					"name": "newOwner",
					"type": "address"
				}
			],
			"name": "OwnershipTransferred",
			"type": "event"
		},
		{
			"inputs": [],
			"name": "DELAY_PERIOD",
			"outputs": [
				{
					"internalType": "uint256",
					"name": "",
					"type": "uint256"
				}
			],
			"stateMutability": "view",
			"type": "function"
		},
		{
			"inputs": [
				{
					"internalType": "address",
					"name": "",
					"type": "address"
				}
			],
			"name": "contracts",
			"outputs": [
				{
					"internalType": "bool",
					"name": "",
					"type": "bool"
				}
			],
			"stateMutability": "view",
			"type": "function"
		},
		{
			"inputs": [],
			"name": "delegateProxyImplementation",
			"outputs": [
				{
					"internalType": "address",
					"name": "",
					"type": "address"
				}
			],
			"stateMutability": "view",
			"type": "function"
		},
		{
			"inputs": [
				{
					"internalType": "address",
					"name": "addr",
					"type": "address"
				}
			],
			"name": "endGrantAuthentication",
			"outputs": [],
			"stateMutability": "nonpayable",
			"type": "function"
		},
		{
			"inputs": [
				{
					"internalType": "address",
					"name": "authAddress",
					"type": "address"
				}
			],
			"name": "grantInitialAuthentication",
			"outputs": [],
			"stateMutability": "nonpayable",
			"type": "function"
		},
		{
			"inputs": [],
			"name": "initialAddressSet",
			"outputs": [
				{
					"internalType": "bool",
					"name": "",
					"type": "bool"
				}
			],
			"stateMutability": "view",
			"type": "function"
		},
		{
			"inputs": [],
			"name": "name",
			"outputs": [
				{
					"internalType": "string",
					"name": "",
					"type": "string"
				}
			],
			"stateMutability": "view",
			"type": "function"
		},
		{
			"inputs": [],
			"name": "owner",
			"outputs": [
				{
					"internalType": "address",
					"name": "",
					"type": "address"
				}
			],
			"stateMutability": "view",
			"type": "function"
		},
		{
			"inputs": [
				{
					"internalType": "address",
					"name": "",
					"type": "address"
				}
			],
			"name": "pending",
			"outputs": [
				{
					"internalType": "uint256",
					"name": "",
					"type": "uint256"
				}
			],
			"stateMutability": "view",
			"type": "function"
		},
		{
			"inputs": [
				{
					"internalType": "address",
					"name": "",
					"type": "address"
				}
			],
			"name": "proxies",
			"outputs": [
				{
					"internalType": "contract OwnableDelegateProxy",
					"name": "",
					"type": "address"
				}
			],
			"stateMutability": "view",
			"type": "function"
		},
		{
			"inputs": [],
			"name": "registerProxy",
			"outputs": [
				{
					"internalType": "contract OwnableDelegateProxy",
					"name": "proxy",
					"type": "address"
				}
			],
			"stateMutability": "nonpayable",
			"type": "function"
		},
		{
			"inputs": [],
			"name": "renounceOwnership",
			"outputs": [],
			"stateMutability": "nonpayable",
			"type": "function"
		},
		{
			"inputs": [
				{
					"internalType": "address",
					"name": "addr",
					"type": "address"
				}
			],
			"name": "revokeAuthentication",
			"outputs": [],
			"stateMutability": "nonpayable",
			"type": "function"
		},
		{
			"inputs": [
				{
					"internalType": "address",
					"name": "addr",
					"type": "address"
				}
			],
			"name": "startGrantAuthentication",
			"outputs": [],
			"stateMutability": "nonpayable",
			"type": "function"
		},
		{
			"inputs": [
				{
					"internalType": "address",
					"name": "newOwner",
					"type": "address"
				}
			],
			"name": "transferOwnership",
			"outputs": [],
			"stateMutability": "nonpayable",
			"type": "function"
		}
	],
	"transactionHash": "0x1c73275ca48b8f3489ced760842ee9f4ef862d9b30fb30bbf8c92542130c55d5",
	"args": [],
	"solcInputHash": "98c15b4f3559a23f2599202e42791894",
	"bytecode": "0x6080604052621275006005556006805460ff1916905534801561002157600080fd5b5061003261002d610080565b610084565b60405161003e906100d4565b604051809103906000f08015801561005a573d6000803e3d6000fd5b50600180546001600160a01b0319166001600160a01b03929092169190911790556100e1565b3390565b600080546001600160a01b038381166001600160a01b0319831681178455604051919092169283917f8be0079c531659141344cd1fd0a4f28419497f9722a3daafe3b4186f6b6457e09190a35050565b6109198061129283390190565b6111a2806100f06000396000f3fe60806040523480156200001157600080fd5b50600436106200010c5760003560e01c80638da5cb5b11620000a5578063ddd81f82116200006f578063ddd81f821462000214578063e71a02e1146200021e578063ef7f38341462000228578063f2fde38b146200023f576200010c565b80638da5cb5b14620001c357806397204d8e14620001dc578063c455279114620001e6578063d4e8e06314620001fd576200010c565b806353376d1f11620000e757806353376d1f14620001655780635eebea20146200017c57806369dc9ff314620001a2578063715018a614620001b9576200010c565b806306fdde0314620001115780631a86ac4f146200013357806338b6e407146200014c575b600080fd5b6200011b62000256565b6040516200012a9190620008cf565b60405180910390f35b6200013d6200028f565b6040516200012a9190620008c4565b620001636200015d366004620007e1565b62000298565b005b6200016362000176366004620007e1565b62000396565b620001936200018d366004620007e1565b620003fd565b6040516200012a91906200095f565b6200013d620001b3366004620007e1565b6200040f565b6200016362000424565b620001cd62000478565b6040516200012a91906200085f565b620001cd62000487565b620001cd620001f7366004620007e1565b62000496565b620001636200020e366004620007e1565b620004b1565b620001cd6200055d565b6200019362000670565b6200016362000239366004620007e1565b62000676565b6200016362000250366004620007e1565b62000702565b6040518060400160405280601e81526020017f466f7262697473776170204e4654532050726f7879205265676973747279000081525081565b60065460ff1681565b620002a26200077f565b6001600160a01b0316620002b562000478565b6001600160a01b031614620002e75760405162461bcd60e51b8152600401620002de906200092a565b60405180910390fd5b6001600160a01b03811660009081526004602052604090205460ff161580156200032857506001600160a01b03811660009081526003602052604090205415155b80156200035b57506005546001600160a01b0382166000908152600360205260409020544291620003599162000968565b105b6200036557600080fd5b6001600160a01b0316600090815260036020908152604080832083905560049091529020805460ff19166001179055565b620003a06200077f565b6001600160a01b0316620003b362000478565b6001600160a01b031614620003dc5760405162461bcd60e51b8152600401620002de906200092a565b6001600160a01b03166000908152600460205260409020805460ff19169055565b60036020526000908152604090205481565b60046020526000908152604090205460ff1681565b6200042e6200077f565b6001600160a01b03166200044162000478565b6001600160a01b0316146200046a5760405162461bcd60e51b8152600401620002de906200092a565b62000476600062000783565b565b6000546001600160a01b031690565b6001546001600160a01b031681565b6002602052600090815260409020546001600160a01b031681565b620004bb6200077f565b6001600160a01b0316620004ce62000478565b6001600160a01b031614620004f75760405162461bcd60e51b8152600401620002de906200092a565b6001600160a01b03811660009081526004602052604090205460ff161580156200053757506001600160a01b038116600090815260036020526040902054155b6200054157600080fd5b6001600160a01b03166000908152600360205260409020429055565b6000806002816200056d6200077f565b6001600160a01b03908116825260208201929092526040016000205416146200059557600080fd5b6200059f6200077f565b6001546001600160a01b0316620005b56200077f565b30604051602401620005c992919062000873565b60408051601f198184030181529181526020820180516001600160e01b031663485cc95560e01b17905251620005ff90620007d3565b6200060d939291906200088d565b604051809103906000f0801580156200062a573d6000803e3d6000fd5b50905080600260006200063c6200077f565b6001600160a01b039081168252602082019290925260400160002080546001600160a01b0319169290911691909117905590565b60055481565b620006806200077f565b6001600160a01b03166200069362000478565b6001600160a01b031614620006bc5760405162461bcd60e51b8152600401620002de906200092a565b60065460ff1615620006cd57600080fd5b6006805460ff1990811660019081179092556001600160a01b0390921660009081526004602052604090208054909216179055565b6200070c6200077f565b6001600160a01b03166200071f62000478565b6001600160a01b031614620007485760405162461bcd60e51b8152600401620002de906200092a565b6001600160a01b038116620007715760405162461bcd60e51b8152600401620002de90620008e4565b6200077c8162000783565b50565b3390565b600080546001600160a01b038381166001600160a01b0319831681178455604051919092169283917f8be0079c531659141344cd1fd0a4f28419497f9722a3daafe3b4186f6b6457e09190a35050565b6107df806200098e83390190565b600060208284031215620007f3578081fd5b81356001600160a01b03811681146200080a578182fd5b9392505050565b60008151808452815b8181101562000838576020818501810151868301820152016200081a565b818111156200084a5782602083870101525b50601f01601f19169290920160200192915050565b6001600160a01b0391909116815260200190565b6001600160a01b0392831681529116602082015260400190565b6001600160a01b03848116825283166020820152606060408201819052600090620008bb9083018462000811565b95945050505050565b901515815260200190565b6000602082526200080a602083018462000811565b60208082526026908201527f4f776e61626c653a206e6577206f776e657220697320746865207a65726f206160408201526564647265737360d01b606082015260800190565b6020808252818101527f4f776e61626c653a2063616c6c6572206973206e6f7420746865206f776e6572604082015260600190565b90815260200190565b600082198211156200098857634e487b7160e01b81526011600452602481fd5b50019056fe608060405234801561001057600080fd5b506040516107df3803806107df83398101604081905261002f91610153565b610038836100b2565b610041826100d4565b6000826001600160a01b03168260405161005b9190610219565b600060405180830381855af49150503d8060008114610096576040519150601f19603f3d011682016040523d82523d6000602084013e61009b565b606091505b50509050806100a957600080fd5b5050505061027b565b600180546001600160a01b0319166001600160a01b0392909216919091179055565b6000546001600160a01b03828116911614156100ef57600080fd5b600080546001600160a01b0319166001600160a01b038316908117825560405190917fbc7cd75a20ee27fd9adebab32041f755214dbc6bffa90cc0225b39da2e5c2d3b91a250565b80516001600160a01b038116811461014e57600080fd5b919050565b600080600060608486031215610167578283fd5b61017084610137565b925061017e60208501610137565b60408501519092506001600160401b038082111561019a578283fd5b818601915086601f8301126101ad578283fd5b8151818111156101bf576101bf610265565b604051601f8201601f1916810160200183811182821017156101e3576101e3610265565b6040528181528382016020018910156101fa578485fd5b61020b826020830160208701610235565b809450505050509250925092565b6000825161022b818460208701610235565b9190910192915050565b60005b83811015610250578181015183820152602001610238565b8381111561025f576000848401525b50505050565b634e487b7160e01b600052604160045260246000fd5b6105558061028a6000396000f3fe6080604052600436106100745760003560e01c80634f1ef2861161004e5780634f1ef2861461012e5780635c60da1b146101415780636fde820214610156578063f1739cae1461016b5761007b565b8063025313a2146100bf5780633659cfe6146100ea5780634555d5c91461010c5761007b565b3661007b57005b600061008561018b565b90506001600160a01b03811661009a57600080fd5b60405136600082376000803683855af43d806000843e8180156100bb578184f35b8184fd5b3480156100cb57600080fd5b506100d461019a565b6040516100e191906104d2565b60405180910390f35b3480156100f657600080fd5b5061010a6101053660046103c4565b6101a9565b005b34801561011857600080fd5b506101216101e1565b6040516100e19190610500565b61010a61013c3660046103e5565b6101e6565b34801561014d57600080fd5b506100d461018b565b34801561016257600080fd5b506100d4610288565b34801561017757600080fd5b5061010a6101863660046103c4565b610297565b6000546001600160a01b031690565b60006101a4610288565b905090565b6101b161019a565b6001600160a01b03166101c261031f565b6001600160a01b0316146101d557600080fd5b6101de81610323565b50565b600290565b6101ee61019a565b6001600160a01b03166101ff61031f565b6001600160a01b03161461021257600080fd5b61021b826101a9565b6000306001600160a01b0316826040516102359190610499565b600060405180830381855af49150503d8060008114610270576040519150601f19603f3d011682016040523d82523d6000602084013e610275565b606091505b505090508061028357600080fd5b505050565b6001546001600160a01b031690565b61029f61019a565b6001600160a01b03166102b061031f565b6001600160a01b0316146102c357600080fd5b6001600160a01b0381166102d657600080fd5b7f5a3e66efaa1e445ebd894728a69d6959842ea1e97bd79b892797106e270efcd96102ff61019a565b8260405161030e9291906104e6565b60405180910390a16101de81610386565b3390565b6000546001600160a01b038281169116141561033e57600080fd5b600080546001600160a01b0319166001600160a01b038316908117825560405190917fbc7cd75a20ee27fd9adebab32041f755214dbc6bffa90cc0225b39da2e5c2d3b91a250565b600180546001600160a01b0319166001600160a01b0392909216919091179055565b80356001600160a01b03811681146103bf57600080fd5b919050565b6000602082840312156103d5578081fd5b6103de826103a8565b9392505050565b600080604083850312156103f7578081fd5b610400836103a8565b915060208084013567ffffffffffffffff8082111561041d578384fd5b818601915086601f830112610430578384fd5b81358181111561044257610442610509565b604051601f8201601f191681018501838111828210171561046557610465610509565b604052818152838201850189101561047b578586fd5b81858501868301378585838301015280955050505050509250929050565b60008251815b818110156104b9576020818601810151858301520161049f565b818111156104c75782828501525b509190910192915050565b6001600160a01b0391909116815260200190565b6001600160a01b0392831681529116602082015260400190565b90815260200190565b634e487b7160e01b600052604160045260246000fdfea264697066735822122055cc98846d1d7c501818162c4c6a3a12fc8c5eb650c58bdfddb5798b354920b664736f6c63430008000033a2646970667358221220640026fb3130879680aac25f38e97afedf9469b0e6395cf39ff6e534b3021f5a64736f6c6343000800003360806040526001805460ff60a01b1916905534801561001d57600080fd5b506108ec8061002d6000396000f3fe60806040526004361061008a5760003560e01c80634f8632ba116100595780634f8632ba1461017957806363d256ce1461019b5780636fde8202146101b05780637b103999146101c55780638f4ffcb1146101da576100d9565b80631b0f7ba9146100e15780633f801f9114610117578063485cc955146101395780634c93505f14610159576100d9565b366100d9576100976101fa565b6001600160a01b03167fa419615bc8fda4c87663805ee2a3597a6d71c1d476911d9892f340d965bc7bf1346040516100cf9190610807565b60405180910390a2005b6100976101fa565b3480156100ed57600080fd5b506101016100fc3660046106a3565b6101fe565b60405161010e91906107fc565b60405180910390f35b34801561012357600080fd5b506101376101323660046106a3565b6103e2565b005b34801561014557600080fd5b5061013761015436600461066b565b6103fb565b34801561016557600080fd5b50610137610174366004610770565b610453565b34801561018557600080fd5b5061018e6104cc565b60405161010e91906107c4565b3480156101a757600080fd5b506101016104db565b3480156101bc57600080fd5b5061018e6104eb565b3480156101d157600080fd5b5061018e6104fa565b3480156101e657600080fd5b506101376101f5366004610706565b610509565b3390565b6002546000906001600160a01b03166102156101fa565b6001600160a01b031614806102bf5750600354600160a01b900460ff161580156102bf57506003546001600160a01b03166369dc9ff36102536101fa565b6040518263ffffffff1660e01b815260040161026f91906107c4565b60206040518083038186803b15801561028757600080fd5b505afa15801561029b573d6000803e3d6000fd5b505050506040513d601f19601f820116820180604052508101906102bf919061078c565b6102c857600080fd5b60008360018111156102ea57634e487b7160e01b600052602160045260246000fd5b141561035557836001600160a01b03168260405161030891906107a8565b6000604051808303816000865af19150503d8060008114610345576040519150601f19603f3d011682016040523d82523d6000602084013e61034a565b606091505b5050809150506103db565b600183600181111561037757634e487b7160e01b600052602160045260246000fd5b14156103db57836001600160a01b03168260405161039591906107a8565b600060405180830381855af49150503d80600081146103d0576040519150601f19603f3d011682016040523d82523d6000602084013e6103d5565b606091505b50909150505b9392505050565b6103ed8383836101fe565b6103f657600080fd5b505050565b600154600160a01b900460ff161561041257600080fd5b6001805460ff60a01b1916600160a01b179055600280546001600160a01b039384166001600160a01b03199182161790915560038054929093169116179055565b6002546001600160a01b03166104676101fa565b6001600160a01b03161461047a57600080fd5b6003805460ff60a01b1916600160a01b831515021790556040517f2165014523a6f4135deffed62d70149aad59b64de5aac51e3abbcbe2a83e2f7e906104c19083906107fc565b60405180910390a150565b6002546001600160a01b031681565b600354600160a01b900460ff1681565b6001546001600160a01b031690565b6003546001600160a01b031681565b6040516323b872dd60e01b815282906001600160a01b038216906323b872dd9061053b908890309089906004016107d8565b602060405180830381600087803b15801561055557600080fd5b505af1158015610569573d6000803e3d6000fd5b505050506040513d601f19601f8201168201806040525081019061058d919061078c565b61059657600080fd5b826001600160a01b0316856001600160a01b03167fd65b48fd35864b3528d38e44760be5553248f89bf3ff6b06cca57817cc2650bf86856040516105db929190610810565b60405180910390a35050505050565b600082601f8301126105fa578081fd5b813567ffffffffffffffff808211156106155761061561087a565b604051601f8301601f1916810160200182811182821017156106395761063961087a565b604052828152848301602001861015610650578384fd5b82602086016020830137918201602001929092529392505050565b6000806040838503121561067d578182fd5b823561068881610890565b9150602083013561069881610890565b809150509250929050565b6000806000606084860312156106b7578081fd5b83356106c281610890565b92506020840135600281106106d5578182fd5b9150604084013567ffffffffffffffff8111156106f0578182fd5b6106fc868287016105ea565b9150509250925092565b6000806000806080858703121561071b578081fd5b843561072681610890565b935060208501359250604085013561073d81610890565b9150606085013567ffffffffffffffff811115610758578182fd5b610764878288016105ea565b91505092959194509250565b600060208284031215610781578081fd5b81356103db816108a8565b60006020828403121561079d578081fd5b81516103db816108a8565b600082516107ba81846020870161084a565b9190910192915050565b6001600160a01b0391909116815260200190565b6001600160a01b039384168152919092166020820152604081019190915260600190565b901515815260200190565b90815260200190565b600083825260406020830152825180604084015261083581606085016020870161084a565b601f01601f1916919091016060019392505050565b60005b8381101561086557818101518382015260200161084d565b83811115610874576000848401525b50505050565b634e487b7160e01b600052604160045260246000fd5b6001600160a01b03811681146108a557600080fd5b50565b80151581146108a557600080fdfea264697066735822122016fb621efbd8040feec15f961d6f4007c59a4e8891503845184b6b88edfa1f2764736f6c63430008000033",
	"libraries": {},
	"devdoc": {
		"kind": "dev",
		"methods": {
			"endGrantAuthentication(address)": {
				"details": "ProxyRegistry owner only",
				"params": {
					"addr": "Address to which to grant permissions"
				}
			},
			"grantInitialAuthentication(address)": {
				"details": "No delay, can only be called once - after that the standard registry process with a delay must be used",
				"params": {
					"authAddress": "Address of the contract to grant authentication"
				}
			},
			"owner()": {
				"details": "Returns the address of the current owner."
			},
			"registerProxy()": {
				"details": "Must be called by the user which the proxy is for, creates a new AuthenticatedProxy",
				"returns": {
					"proxy": "New AuthenticatedProxy contract"
				}
			},
			"renounceOwnership()": {
				"details": "Leaves the contract without owner. It will not be possible to call `onlyOwner` functions anymore. Can only be called by the current owner. NOTE: Renouncing ownership will leave the contract without an owner, thereby removing any functionality that is only available to the owner."
			},
			"revokeAuthentication(address)": {
				"details": "ProxyRegistry owner only",
				"params": {
					"addr": "Address of which to revoke permissions"
				}
			},
			"startGrantAuthentication(address)": {
				"details": "ProxyRegistry owner only",
				"params": {
					"addr": "Address to which to grant permissions"
				}
			},
			"transferOwnership(address)": {
				"details": "Transfers ownership of the contract to a new account (`newOwner`). Can only be called by the current owner."
			}
		},
		"version": 1
	},
	"userdoc": {
		"kind": "user",
		"methods": {
			"endGrantAuthentication(address)": {
				"notice": "End the process to enable access for specified contract after delay period has passed."
			},
			"grantInitialAuthentication(address)": {
				"notice": "Grant authentication to the initial Exchange protocol contract"
			},
			"registerProxy()": {
				"notice": "Register a proxy contract with this registry"
			},
			"revokeAuthentication(address)": {
				"notice": "Revoke access for specified contract. Can be done instantly."
			},
			"startGrantAuthentication(address)": {
				"notice": "Start the process to enable access for specified contract. Subject to delay period."
			}
		},
		"version": 1
	},
	"storageLayout": {
		"storage": [
			{
				"astId": 7,
				"contract": "contracts/market/ForbitswapNFTSProxyRegistry.sol:ForbitswapNFTSProxyRegistry",
				"label": "_owner",
				"offset": 0,
				"slot": "0",
				"type": "t_address"
			},
			{
				"astId": 6828,
				"contract": "contracts/market/ForbitswapNFTSProxyRegistry.sol:ForbitswapNFTSProxyRegistry",
				"label": "delegateProxyImplementation",
				"offset": 0,
				"slot": "1",
				"type": "t_address"
			},
			{
				"astId": 6833,
				"contract": "contracts/market/ForbitswapNFTSProxyRegistry.sol:ForbitswapNFTSProxyRegistry",
				"label": "proxies",
				"offset": 0,
				"slot": "2",
				"type": "t_mapping(t_address,t_contract(OwnableDelegateProxy)6598)"
			},
			{
				"astId": 6837,
				"contract": "contracts/market/ForbitswapNFTSProxyRegistry.sol:ForbitswapNFTSProxyRegistry",
				"label": "pending",
				"offset": 0,
				"slot": "3",
				"type": "t_mapping(t_address,t_uint256)"
			},
			{
				"astId": 6841,
				"contract": "contracts/market/ForbitswapNFTSProxyRegistry.sol:ForbitswapNFTSProxyRegistry",
				"label": "contracts",
				"offset": 0,
				"slot": "4",
				"type": "t_mapping(t_address,t_bool)"
			},
			{
				"astId": 6844,
				"contract": "contracts/market/ForbitswapNFTSProxyRegistry.sol:ForbitswapNFTSProxyRegistry",
				"label": "DELAY_PERIOD",
				"offset": 0,
				"slot": "5",
				"type": "t_uint256"
			},
			{
				"astId": 3114,
				"contract": "contracts/market/ForbitswapNFTSProxyRegistry.sol:ForbitswapNFTSProxyRegistry",
				"label": "initialAddressSet",
				"offset": 0,
				"slot": "6",
				"type": "t_bool"
			}
		],
		"types": {
			"t_address": {
				"encoding": "inplace",
				"label": "address",
				"numberOfBytes": "20"
			},
			"t_bool": {
				"encoding": "inplace",
				"label": "bool",
				"numberOfBytes": "1"
			},
			"t_contract(OwnableDelegateProxy)6598": {
				"encoding": "inplace",
				"label": "contract OwnableDelegateProxy",
				"numberOfBytes": "20"
			},
			"t_mapping(t_address,t_bool)": {
				"encoding": "mapping",
				"key": "t_address",
				"label": "mapping(address => bool)",
				"numberOfBytes": "32",
				"value": "t_bool"
			},
			"t_mapping(t_address,t_contract(OwnableDelegateProxy)6598)": {
				"encoding": "mapping",
				"key": "t_address",
				"label": "mapping(address => contract OwnableDelegateProxy)",
				"numberOfBytes": "32",
				"value": "t_contract(OwnableDelegateProxy)6598"
			},
			"t_mapping(t_address,t_uint256)": {
				"encoding": "mapping",
				"key": "t_address",
				"label": "mapping(address => uint256)",
				"numberOfBytes": "32",
				"value": "t_uint256"
			},
			"t_uint256": {
				"encoding": "inplace",
				"label": "uint256",
				"numberOfBytes": "32"
			}
		}
	}
}